{
  "contractName": "JustHodl",
  "abi": [
    {
      "inputs": [],
      "stateMutability": "payable",
      "type": "constructor"
    },
    {
      "anonymous": false,
      "inputs": [
        {
          "indexed": true,
          "internalType": "address",
          "name": "owner",
          "type": "address"
        },
        {
          "indexed": true,
          "internalType": "address",
          "name": "spender",
          "type": "address"
        },
        {
          "indexed": false,
          "internalType": "uint256",
          "name": "value",
          "type": "uint256"
        }
      ],
      "name": "Approval",
      "type": "event"
    },
    {
      "anonymous": false,
      "inputs": [
        {
          "indexed": true,
          "internalType": "address",
          "name": "from",
          "type": "address"
        },
        {
          "indexed": true,
          "internalType": "address",
          "name": "to",
          "type": "address"
        },
        {
          "indexed": false,
          "internalType": "uint256",
          "name": "value",
          "type": "uint256"
        }
      ],
      "name": "Transfer",
      "type": "event"
    },
    {
      "inputs": [
        {
          "internalType": "address",
          "name": "owner",
          "type": "address"
        },
        {
          "internalType": "address",
          "name": "spender",
          "type": "address"
        }
      ],
      "name": "allowance",
      "outputs": [
        {
          "internalType": "uint256",
          "name": "",
          "type": "uint256"
        }
      ],
      "stateMutability": "view",
      "type": "function"
    },
    {
      "inputs": [
        {
          "internalType": "address",
          "name": "spender",
          "type": "address"
        },
        {
          "internalType": "uint256",
          "name": "amount",
          "type": "uint256"
        }
      ],
      "name": "approve",
      "outputs": [
        {
          "internalType": "bool",
          "name": "",
          "type": "bool"
        }
      ],
      "stateMutability": "nonpayable",
      "type": "function"
    },
    {
      "inputs": [
        {
          "internalType": "address",
          "name": "account",
          "type": "address"
        }
      ],
      "name": "balanceOf",
      "outputs": [
        {
          "internalType": "uint256",
          "name": "",
          "type": "uint256"
        }
      ],
      "stateMutability": "view",
      "type": "function"
    },
    {
      "inputs": [],
      "name": "bonusSupply",
      "outputs": [
        {
          "internalType": "uint256",
          "name": "",
          "type": "uint256"
        }
      ],
      "stateMutability": "view",
      "type": "function"
    },
    {
      "inputs": [],
      "name": "decimals",
      "outputs": [
        {
          "internalType": "uint8",
          "name": "",
          "type": "uint8"
        }
      ],
      "stateMutability": "view",
      "type": "function"
    },
    {
      "inputs": [
        {
          "internalType": "address",
          "name": "spender",
          "type": "address"
        },
        {
          "internalType": "uint256",
          "name": "subtractedValue",
          "type": "uint256"
        }
      ],
      "name": "decreaseAllowance",
      "outputs": [
        {
          "internalType": "bool",
          "name": "",
          "type": "bool"
        }
      ],
      "stateMutability": "nonpayable",
      "type": "function"
    },
    {
      "inputs": [
        {
          "internalType": "address",
          "name": "_address",
          "type": "address"
        }
      ],
      "name": "hodlMinimumAchived",
      "outputs": [
        {
          "internalType": "bool",
          "name": "",
          "type": "bool"
        }
      ],
      "stateMutability": "view",
      "type": "function"
    },
    {
      "inputs": [
        {
          "internalType": "address",
          "name": "_address",
          "type": "address"
        }
      ],
      "name": "hodlTimeOf",
      "outputs": [
        {
          "internalType": "uint256",
          "name": "",
          "type": "uint256"
        }
      ],
      "stateMutability": "view",
      "type": "function"
    },
    {
      "inputs": [],
      "name": "holdersSupply",
      "outputs": [
        {
          "internalType": "uint256",
          "name": "",
          "type": "uint256"
        }
      ],
      "stateMutability": "view",
      "type": "function"
    },
    {
      "inputs": [
        {
          "internalType": "address",
          "name": "spender",
          "type": "address"
        },
        {
          "internalType": "uint256",
          "name": "addedValue",
          "type": "uint256"
        }
      ],
      "name": "increaseAllowance",
      "outputs": [
        {
          "internalType": "bool",
          "name": "",
          "type": "bool"
        }
      ],
      "stateMutability": "nonpayable",
      "type": "function"
    },
    {
      "inputs": [],
      "name": "name",
      "outputs": [
        {
          "internalType": "string",
          "name": "",
          "type": "string"
        }
      ],
      "stateMutability": "view",
      "type": "function"
    },
    {
      "inputs": [
        {
          "internalType": "address",
          "name": "_address",
          "type": "address"
        }
      ],
      "name": "pureBalanceOf",
      "outputs": [
        {
          "internalType": "uint256",
          "name": "",
          "type": "uint256"
        }
      ],
      "stateMutability": "view",
      "type": "function"
    },
    {
      "inputs": [
        {
          "internalType": "address",
          "name": "_address",
          "type": "address"
        }
      ],
      "name": "pureBonusOf",
      "outputs": [
        {
          "internalType": "uint256",
          "name": "",
          "type": "uint256"
        }
      ],
      "stateMutability": "view",
      "type": "function"
    },
    {
      "inputs": [],
      "name": "symbol",
      "outputs": [
        {
          "internalType": "string",
          "name": "",
          "type": "string"
        }
      ],
      "stateMutability": "view",
      "type": "function"
    },
    {
      "inputs": [],
      "name": "totalHodlSinceLastBuy",
      "outputs": [
        {
          "internalType": "uint256",
          "name": "",
          "type": "uint256"
        }
      ],
      "stateMutability": "view",
      "type": "function"
    },
    {
      "inputs": [],
      "name": "totalSupply",
      "outputs": [
        {
          "internalType": "uint256",
          "name": "",
          "type": "uint256"
        }
      ],
      "stateMutability": "view",
      "type": "function"
    },
    {
      "inputs": [],
      "name": "getOwner",
      "outputs": [
        {
          "internalType": "address",
          "name": "",
          "type": "address"
        }
      ],
      "stateMutability": "view",
      "type": "function"
    },
    {
      "inputs": [
        {
          "internalType": "address",
          "name": "_address",
          "type": "address"
        }
      ],
      "name": "setOwner",
      "outputs": [],
      "stateMutability": "nonpayable",
      "type": "function"
    },
    {
      "inputs": [
        {
          "internalType": "address",
          "name": "_address",
          "type": "address"
        }
      ],
      "name": "isPenaltyException",
      "outputs": [
        {
          "internalType": "bool",
          "name": "",
          "type": "bool"
        }
      ],
      "stateMutability": "view",
      "type": "function"
    },
    {
      "inputs": [
        {
          "internalType": "address",
          "name": "_address",
          "type": "address"
        }
      ],
      "name": "addPenaltyException",
      "outputs": [
        {
          "internalType": "bool",
          "name": "",
          "type": "bool"
        }
      ],
      "stateMutability": "nonpayable",
      "type": "function"
    },
    {
      "inputs": [
        {
          "internalType": "address",
          "name": "_address",
          "type": "address"
        }
      ],
      "name": "removePenaltyException",
      "outputs": [
        {
          "internalType": "bool",
          "name": "",
          "type": "bool"
        }
      ],
      "stateMutability": "nonpayable",
      "type": "function"
    },
    {
      "inputs": [
        {
          "internalType": "address",
          "name": "_address",
          "type": "address"
        }
      ],
      "name": "isSenderException",
      "outputs": [
        {
          "internalType": "bool",
          "name": "",
          "type": "bool"
        }
      ],
      "stateMutability": "view",
      "type": "function"
    },
    {
      "inputs": [
        {
          "internalType": "address",
          "name": "_address",
          "type": "address"
        }
      ],
      "name": "addSenderException",
      "outputs": [
        {
          "internalType": "bool",
          "name": "",
          "type": "bool"
        }
      ],
      "stateMutability": "nonpayable",
      "type": "function"
    },
    {
      "inputs": [
        {
          "internalType": "address",
          "name": "_address",
          "type": "address"
        }
      ],
      "name": "removeSenderException",
      "outputs": [
        {
          "internalType": "bool",
          "name": "",
          "type": "bool"
        }
      ],
      "stateMutability": "nonpayable",
      "type": "function"
    },
    {
      "inputs": [
        {
          "internalType": "address",
          "name": "_address",
          "type": "address"
        }
      ],
      "name": "isRecipientException",
      "outputs": [
        {
          "internalType": "bool",
          "name": "",
          "type": "bool"
        }
      ],
      "stateMutability": "view",
      "type": "function"
    },
    {
      "inputs": [
        {
          "internalType": "address",
          "name": "_address",
          "type": "address"
        }
      ],
      "name": "addRecipientException",
      "outputs": [
        {
          "internalType": "bool",
          "name": "",
          "type": "bool"
        }
      ],
      "stateMutability": "nonpayable",
      "type": "function"
    },
    {
      "inputs": [
        {
          "internalType": "address",
          "name": "_address",
          "type": "address"
        }
      ],
      "name": "removeRecipientException",
      "outputs": [
        {
          "internalType": "bool",
          "name": "",
          "type": "bool"
        }
      ],
      "stateMutability": "nonpayable",
      "type": "function"
    },
    {
      "inputs": [
        {
          "internalType": "address",
          "name": "_address",
          "type": "address"
        }
      ],
      "name": "isWhitelistedSender",
      "outputs": [
        {
          "internalType": "bool",
          "name": "",
          "type": "bool"
        }
      ],
      "stateMutability": "view",
      "type": "function"
    },
    {
      "inputs": [
        {
          "internalType": "address",
          "name": "_address",
          "type": "address"
        }
      ],
      "name": "addWhitelistedSender",
      "outputs": [
        {
          "internalType": "bool",
          "name": "",
          "type": "bool"
        }
      ],
      "stateMutability": "nonpayable",
      "type": "function"
    },
    {
      "inputs": [
        {
          "internalType": "address",
          "name": "_address",
          "type": "address"
        }
      ],
      "name": "removeWhitelistedSender",
      "outputs": [
        {
          "internalType": "bool",
          "name": "",
          "type": "bool"
        }
      ],
      "stateMutability": "nonpayable",
      "type": "function"
    },
    {
      "inputs": [
        {
          "internalType": "address",
          "name": "_to",
          "type": "address"
        },
        {
          "internalType": "uint256",
          "name": "_value",
          "type": "uint256"
        }
      ],
      "name": "transfer",
      "outputs": [
        {
          "internalType": "bool",
          "name": "",
          "type": "bool"
        }
      ],
      "stateMutability": "nonpayable",
      "type": "function"
    },
    {
      "inputs": [
        {
          "internalType": "address",
          "name": "_from",
          "type": "address"
        },
        {
          "internalType": "address",
          "name": "_to",
          "type": "address"
        },
        {
          "internalType": "uint256",
          "name": "_value",
          "type": "uint256"
        }
      ],
      "name": "transferFrom",
      "outputs": [
        {
          "internalType": "bool",
          "name": "",
          "type": "bool"
        }
      ],
      "stateMutability": "nonpayable",
      "type": "function"
    }
  ],
  "bytecode": "0x60806040526000805560006001556000600255600a8055683635c9adc5dea00000600b556040518060400160405280600881526020017f4a757374486f646c0000000000000000000000000000000000000000000000008152506040518060400160405280600381526020017f4a484f00000000000000000000000000000000000000000000000000000000008152508160079080519060200190620000a79291906200038c565b508060089080519060200190620000c09291906200038c565b506012600960006101000a81548160ff021916908360ff160217905550505033600960016101000a81548173ffffffffffffffffffffffffffffffffffffffff021916908373ffffffffffffffffffffffffffffffffffffffff1602179055506200013433600b546200013a60201b60201c565b6200043b565b600073ffffffffffffffffffffffffffffffffffffffff168273ffffffffffffffffffffffffffffffffffffffff161415620001c2576040517f08c379a0000000000000000000000000000000000000000000000000000000008152600401808060200182810382526026815260200180620039c16026913960400191505060405180910390fd5b620001d660008383620002fe60201b60201c565b620001f2816006546200030360201b62002bd11790919060201c565b6006819055506200025181600460008573ffffffffffffffffffffffffffffffffffffffff1673ffffffffffffffffffffffffffffffffffffffff168152602001908152602001600020546200030360201b62002bd11790919060201c565b600460008473ffffffffffffffffffffffffffffffffffffffff1673ffffffffffffffffffffffffffffffffffffffff168152602001908152602001600020819055508173ffffffffffffffffffffffffffffffffffffffff16600073ffffffffffffffffffffffffffffffffffffffff167fddf252ad1be2c89b69c2b068fc378daa952ba7f163c4a11628f55a4df523b3ef836040518082815260200191505060405180910390a35050565b505050565b60008082840190508381101562000382576040517f08c379a000000000000000000000000000000000000000000000000000000000815260040180806020018281038252601b8152602001807f536166654d6174683a206164646974696f6e206f766572666c6f77000000000081525060200191505060405180910390fd5b8091505092915050565b828054600181600116156101000203166002900490600052602060002090601f016020900481019282601f10620003cf57805160ff191683800117855562000400565b8280016001018555821562000400579182015b82811115620003ff578251825591602001919060010190620003e2565b5b5090506200040f919062000413565b5090565b6200043891905b80821115620004345760008160009055506001016200041a565b5090565b90565b613576806200044b6000396000f3fe608060405234801561001057600080fd5b50600436106101f05760003560e01c806371b766171161010f57806397c540a8116100a2578063be49457311610071578063be49457314610b3f578063dd62ed3e14610b97578063f07ae52f14610c0f578063f19211db14610c6b576101f0565b806397c540a8146109bf578063a457c2d714610a17578063a9059cbb14610a7d578063baedc44514610ae3576101f0565b806388f9e04f116100de57806388f9e04f1461083a578063893d20e81461089657806394604e66146108e057806395d89b411461093c576101f0565b806371b766171461070c5780637851eca214610768578063863843bc146107c0578063885ec8ee146107de576101f0565b80631b9e2fad1161018757806347d8f5591161015657806347d8f559146105de578063664e4340146105fc57806367cca5921461065857806370a08231146106b4576101f0565b80631b9e2fad1461047257806323b872dd146104ce578063313ce567146105545780633950935114610578576101f0565b8063095ea7b3116101c3578063095ea7b31461034e57806313af4035146103b457806313bc94ca146103f857806318160ddd14610454576101f0565b806302640bdc146101f557806303d3d3ca1461025157806305ff91101461026f57806306fdde03146102cb575b600080fd5b6102376004803603602081101561020b57600080fd5b81019080803573ffffffffffffffffffffffffffffffffffffffff169060200190929190505050610cc7565b604051808215151515815260200191505060405180910390f35b610259610d20565b6040518082815260200191505060405180910390f35b6102b16004803603602081101561028557600080fd5b81019080803573ffffffffffffffffffffffffffffffffffffffff169060200190929190505050610d2a565b604051808215151515815260200191505060405180910390f35b6102d3610eb6565b6040518080602001828103825283818151815260200191508051906020019080838360005b838110156103135780820151818401526020810190506102f8565b50505050905090810190601f1680156103405780820380516001836020036101000a031916815260200191505b509250505060405180910390f35b61039a6004803603604081101561036457600080fd5b81019080803573ffffffffffffffffffffffffffffffffffffffff16906020019092919080359060200190929190505050610f58565b604051808215151515815260200191505060405180910390f35b6103f6600480360360208110156103ca57600080fd5b81019080803573ffffffffffffffffffffffffffffffffffffffff169060200190929190505050610f76565b005b61043a6004803603602081101561040e57600080fd5b81019080803573ffffffffffffffffffffffffffffffffffffffff169060200190929190505050611060565b604051808215151515815260200191505060405180910390f35b61045c6111ec565b6040518082815260200191505060405180910390f35b6104b46004803603602081101561048857600080fd5b81019080803573ffffffffffffffffffffffffffffffffffffffff1690602001909291905050506111f6565b604051808215151515815260200191505060405180910390f35b61053a600480360360608110156104e457600080fd5b81019080803573ffffffffffffffffffffffffffffffffffffffff169060200190929190803573ffffffffffffffffffffffffffffffffffffffff1690602001909291908035906020019092919050505061128c565b604051808215151515815260200191505060405180910390f35b61055c6113c7565b604051808260ff1660ff16815260200191505060405180910390f35b6105c46004803603604081101561058e57600080fd5b81019080803573ffffffffffffffffffffffffffffffffffffffff169060200190929190803590602001909291905050506113de565b604051808215151515815260200191505060405180910390f35b6105e6611491565b6040518082815260200191505060405180910390f35b61063e6004803603602081101561061257600080fd5b81019080803573ffffffffffffffffffffffffffffffffffffffff16906020019092919050505061149a565b604051808215151515815260200191505060405180910390f35b61069a6004803603602081101561066e57600080fd5b81019080803573ffffffffffffffffffffffffffffffffffffffff169060200190929190505050611618565b604051808215151515815260200191505060405180910390f35b6106f6600480360360208110156106ca57600080fd5b81019080803573ffffffffffffffffffffffffffffffffffffffff1690602001909291905050506117ff565b6040518082815260200191505060405180910390f35b61074e6004803603602081101561072257600080fd5b81019080803573ffffffffffffffffffffffffffffffffffffffff16906020019092919050505061187c565b604051808215151515815260200191505060405180910390f35b6107aa6004803603602081101561077e57600080fd5b81019080803573ffffffffffffffffffffffffffffffffffffffff16906020019092919050505061199f565b6040518082815260200191505060405180910390f35b6107c86119e8565b6040518082815260200191505060405180910390f35b610820600480360360208110156107f457600080fd5b81019080803573ffffffffffffffffffffffffffffffffffffffff1690602001909291905050506119f2565b604051808215151515815260200191505060405180910390f35b61087c6004803603602081101561085057600080fd5b81019080803573ffffffffffffffffffffffffffffffffffffffff169060200190929190505050611bd9565b604051808215151515815260200191505060405180910390f35b61089e611c3a565b604051808273ffffffffffffffffffffffffffffffffffffffff1673ffffffffffffffffffffffffffffffffffffffff16815260200191505060405180910390f35b610922600480360360208110156108f657600080fd5b81019080803573ffffffffffffffffffffffffffffffffffffffff169060200190929190505050611c64565b604051808215151515815260200191505060405180910390f35b610944611cbd565b6040518080602001828103825283818151815260200191508051906020019080838360005b83811015610984578082015181840152602081019050610969565b50505050905090810190601f1680156109b15780820380516001836020036101000a031916815260200191505b509250505060405180910390f35b610a01600480360360208110156109d557600080fd5b81019080803573ffffffffffffffffffffffffffffffffffffffff169060200190929190505050611d5f565b6040518082815260200191505060405180910390f35b610a6360048036036040811015610a2d57600080fd5b81019080803573ffffffffffffffffffffffffffffffffffffffff16906020019092919080359060200190929190505050611dc2565b604051808215151515815260200191505060405180910390f35b610ac960048036036040811015610a9357600080fd5b81019080803573ffffffffffffffffffffffffffffffffffffffff16906020019092919080359060200190929190505050611e8f565b604051808215151515815260200191505060405180910390f35b610b2560048036036020811015610af957600080fd5b81019080803573ffffffffffffffffffffffffffffffffffffffff169060200190929190505050611fc7565b604051808215151515815260200191505060405180910390f35b610b8160048036036020811015610b5557600080fd5b81019080803573ffffffffffffffffffffffffffffffffffffffff1690602001909291905050506121ae565b6040518082815260200191505060405180910390f35b610bf960048036036040811015610bad57600080fd5b81019080803573ffffffffffffffffffffffffffffffffffffffff169060200190929190803573ffffffffffffffffffffffffffffffffffffffff1690602001909291905050506121f7565b6040518082815260200191505060405180910390f35b610c5160048036036020811015610c2557600080fd5b81019080803573ffffffffffffffffffffffffffffffffffffffff16906020019092919050505061227e565b604051808215151515815260200191505060405180910390f35b610cad60048036036020811015610c8157600080fd5b81019080803573ffffffffffffffffffffffffffffffffffffffff16906020019092919050505061240a565b604051808215151515815260200191505060405180910390f35b6000600d60008373ffffffffffffffffffffffffffffffffffffffff1673ffffffffffffffffffffffffffffffffffffffff16815260200190815260200160002060000160149054906101000a900460ff169050919050565b6000600254905090565b6000600960019054906101000a900473ffffffffffffffffffffffffffffffffffffffff1673ffffffffffffffffffffffffffffffffffffffff163373ffffffffffffffffffffffffffffffffffffffff1614610dd2576040517f08c379a000000000000000000000000000000000000000000000000000000000815260040180806020018281038252602c815260200180613309602c913960400191505060405180910390fd5b610ddb8261240a565b610e30576040517f08c379a00000000000000000000000000000000000000000000000000000000081526004018080602001828103825260418152602001806132996041913960600191505060405180910390fd5b600e60008373ffffffffffffffffffffffffffffffffffffffff1673ffffffffffffffffffffffffffffffffffffffff168152602001908152602001600020600080820160006101000a81549073ffffffffffffffffffffffffffffffffffffffff02191690556000820160146101000a81549060ff0219169055505060019050919050565b606060078054600181600116156101000203166002900480601f016020809104026020016040519081016040528092919081815260200182805460018160011615610100020316600290048015610f4e5780601f10610f2357610100808354040283529160200191610f4e565b820191906000526020600020905b815481529060010190602001808311610f3157829003601f168201915b5050505050905090565b6000610f6c610f65612463565b848461246b565b6001905092915050565b600960019054906101000a900473ffffffffffffffffffffffffffffffffffffffff1673ffffffffffffffffffffffffffffffffffffffff163373ffffffffffffffffffffffffffffffffffffffff161461101c576040517f08c379a000000000000000000000000000000000000000000000000000000000815260040180806020018281038252602c815260200180613309602c913960400191505060405180910390fd5b80600960016101000a81548173ffffffffffffffffffffffffffffffffffffffff021916908373ffffffffffffffffffffffffffffffffffffffff16021790555050565b6000600960019054906101000a900473ffffffffffffffffffffffffffffffffffffffff1673ffffffffffffffffffffffffffffffffffffffff163373ffffffffffffffffffffffffffffffffffffffff1614611108576040517f08c379a000000000000000000000000000000000000000000000000000000000815260040180806020018281038252602c815260200180613309602c913960400191505060405180910390fd5b61111182611c64565b611166576040517f08c379a000000000000000000000000000000000000000000000000000000000815260040180806020018281038252603f815260200180613335603f913960400191505060405180910390fd5b600c60008373ffffffffffffffffffffffffffffffffffffffff1673ffffffffffffffffffffffffffffffffffffffff168152602001908152602001600020600080820160006101000a81549073ffffffffffffffffffffffffffffffffffffffff02191690556000820160146101000a81549060ff0219169055505060019050919050565b6000600654905090565b6000600f60003373ffffffffffffffffffffffffffffffffffffffff1673ffffffffffffffffffffffffffffffffffffffff16815260200190815260200160002060008373ffffffffffffffffffffffffffffffffffffffff1673ffffffffffffffffffffffffffffffffffffffff16815260200190815260200160002060000160149054906101000a900460ff169050919050565b60008061129885612662565b905060006112a585612662565b90506112b086611c64565b806112c057506112bf85611c64565b5b156112f8576112d08686866126cf565b156112ed576112e282828660006127a8565b6001925050506113c0565b6000925050506113c0565b6113028686612807565b156113b95760008090506000859050600061131c896121ae565b9050848015611331575061132f89611bd9565b155b156113765761135e6064611350600a548a61297d90919063ffffffff16565b612a0390919063ffffffff16565b92506113738388612a4d90919063ffffffff16565b91505b6113818989846126cf565b156113b5576113908885612a97565b61139b878483612b5e565b6113a7858584866127a8565b6001955050505050506113c0565b5050505b6000925050505b9392505050565b6000600960009054906101000a900460ff16905090565b60006114876113eb612463565b8461148285600560006113fc612463565b73ffffffffffffffffffffffffffffffffffffffff1673ffffffffffffffffffffffffffffffffffffffff16815260200190815260200160002060008973ffffffffffffffffffffffffffffffffffffffff1673ffffffffffffffffffffffffffffffffffffffff16815260200190815260200160002054612bd190919063ffffffff16565b61246b565b6001905092915050565b60008054905090565b60006114a5826111f6565b156114fb576040517f08c379a00000000000000000000000000000000000000000000000000000000081526004018080602001828103825260358152602001806133746035913960400191505060405180910390fd5b60405180604001604052808373ffffffffffffffffffffffffffffffffffffffff16815260200160011515815250600f60003373ffffffffffffffffffffffffffffffffffffffff1673ffffffffffffffffffffffffffffffffffffffff16815260200190815260200160002060008473ffffffffffffffffffffffffffffffffffffffff1673ffffffffffffffffffffffffffffffffffffffff16815260200190815260200160002060008201518160000160006101000a81548173ffffffffffffffffffffffffffffffffffffffff021916908373ffffffffffffffffffffffffffffffffffffffff16021790555060208201518160000160146101000a81548160ff02191690831515021790555090505060019050919050565b6000600960019054906101000a900473ffffffffffffffffffffffffffffffffffffffff1673ffffffffffffffffffffffffffffffffffffffff163373ffffffffffffffffffffffffffffffffffffffff16146116c0576040517f08c379a000000000000000000000000000000000000000000000000000000000815260040180806020018281038252602c815260200180613309602c913960400191505060405180910390fd5b6116c982610cc7565b1561171f576040517f08c379a00000000000000000000000000000000000000000000000000000000081526004018080602001828103825260428152602001806132576042913960600191505060405180910390fd5b60405180604001604052808373ffffffffffffffffffffffffffffffffffffffff16815260200160011515815250600d60008473ffffffffffffffffffffffffffffffffffffffff1673ffffffffffffffffffffffffffffffffffffffff16815260200190815260200160002060008201518160000160006101000a81548173ffffffffffffffffffffffffffffffffffffffff021916908373ffffffffffffffffffffffffffffffffffffffff16021790555060208201518160000160146101000a81548160ff02191690831515021790555090505060019050919050565b600080600460008473ffffffffffffffffffffffffffffffffffffffff1673ffffffffffffffffffffffffffffffffffffffff168152602001908152602001600020549050600081118015611859575061185883611bd9565b5b15611872576118688382612c59565b8101915050611877565b809150505b919050565b6000611887826111f6565b6118dc576040517f08c379a00000000000000000000000000000000000000000000000000000000081526004018080602001828103825260318152602001806133ec6031913960400191505060405180910390fd5b600f60003373ffffffffffffffffffffffffffffffffffffffff1673ffffffffffffffffffffffffffffffffffffffff16815260200190815260200160002060008373ffffffffffffffffffffffffffffffffffffffff1673ffffffffffffffffffffffffffffffffffffffff168152602001908152602001600020600080820160006101000a81549073ffffffffffffffffffffffffffffffffffffffff02191690556000820160146101000a81549060ff0219169055505060019050919050565b6000600360008373ffffffffffffffffffffffffffffffffffffffff1673ffffffffffffffffffffffffffffffffffffffff168152602001908152602001600020549050919050565b6000600154905090565b6000600960019054906101000a900473ffffffffffffffffffffffffffffffffffffffff1673ffffffffffffffffffffffffffffffffffffffff163373ffffffffffffffffffffffffffffffffffffffff1614611a9a576040517f08c379a000000000000000000000000000000000000000000000000000000000815260040180806020018281038252602c815260200180613309602c913960400191505060405180910390fd5b611aa382611c64565b15611af9576040517f08c379a00000000000000000000000000000000000000000000000000000000081526004018080602001828103825260438152602001806133a96043913960600191505060405180910390fd5b60405180604001604052808373ffffffffffffffffffffffffffffffffffffffff16815260200160011515815250600c60008473ffffffffffffffffffffffffffffffffffffffff1673ffffffffffffffffffffffffffffffffffffffff16815260200190815260200160002060008201518160000160006101000a81548173ffffffffffffffffffffffffffffffffffffffff021916908373ffffffffffffffffffffffffffffffffffffffff16021790555060208201518160000160146101000a81548160ff02191690831515021790555090505060019050919050565b600080600360008473ffffffffffffffffffffffffffffffffffffffff1673ffffffffffffffffffffffffffffffffffffffff168152602001908152602001600020549050600081118015611c3257508062093a804203115b915050919050565b6000600960019054906101000a900473ffffffffffffffffffffffffffffffffffffffff16905090565b6000600c60008373ffffffffffffffffffffffffffffffffffffffff1673ffffffffffffffffffffffffffffffffffffffff16815260200190815260200160002060000160149054906101000a900460ff169050919050565b606060088054600181600116156101000203166002900480601f016020809104026020016040519081016040528092919081815260200182805460018160011615610100020316600290048015611d555780601f10611d2a57610100808354040283529160200191611d55565b820191906000526020600020905b815481529060010190602001808311611d3857829003601f168201915b5050505050905090565b6000611dbb600460008473ffffffffffffffffffffffffffffffffffffffff1673ffffffffffffffffffffffffffffffffffffffff16815260200190815260200160002054611dad846117ff565b612a4d90919063ffffffff16565b9050919050565b6000611e85611dcf612463565b84611e80856040518060600160405280602c8152602001613468602c913960056000611df9612463565b73ffffffffffffffffffffffffffffffffffffffff1673ffffffffffffffffffffffffffffffffffffffff16815260200190815260200160002060008a73ffffffffffffffffffffffffffffffffffffffff1673ffffffffffffffffffffffffffffffffffffffff16815260200190815260200160002054612d169092919063ffffffff16565b61246b565b6001905092915050565b600080611e9b33612662565b90506000611ea885612662565b9050611eb333611c64565b80611ec35750611ec285611c64565b5b15611efa57611ed28585612dd6565b15611eef57611ee482828660006127a8565b600192505050611fc1565b600092505050611fc1565b611f043386612807565b15611fba57600080905060008590506000611f1e336121ae565b9050848015611f335750611f3133611bd9565b155b15611f7857611f606064611f52600a548a61297d90919063ffffffff16565b612a0390919063ffffffff16565b9250611f758388612a4d90919063ffffffff16565b91505b611f828883612dd6565b15611fb657611f918885612a97565b611f9c878483612b5e565b611fa8858584866127a8565b600195505050505050611fc1565b5050505b6000925050505b92915050565b6000600960019054906101000a900473ffffffffffffffffffffffffffffffffffffffff1673ffffffffffffffffffffffffffffffffffffffff163373ffffffffffffffffffffffffffffffffffffffff161461206f576040517f08c379a000000000000000000000000000000000000000000000000000000000815260040180806020018281038252602c815260200180613309602c913960400191505060405180910390fd5b6120788261240a565b156120ce576040517f08c379a00000000000000000000000000000000000000000000000000000000081526004018080602001828103825260458152602001806134fc6045913960600191505060405180910390fd5b60405180604001604052808373ffffffffffffffffffffffffffffffffffffffff16815260200160011515815250600e60008473ffffffffffffffffffffffffffffffffffffffff1673ffffffffffffffffffffffffffffffffffffffff16815260200190815260200160002060008201518160000160006101000a81548173ffffffffffffffffffffffffffffffffffffffff021916908373ffffffffffffffffffffffffffffffffffffffff16021790555060208201518160000160146101000a81548160ff02191690831515021790555090505060019050919050565b6000600460008373ffffffffffffffffffffffffffffffffffffffff1673ffffffffffffffffffffffffffffffffffffffff168152602001908152602001600020549050919050565b6000600560008473ffffffffffffffffffffffffffffffffffffffff1673ffffffffffffffffffffffffffffffffffffffff16815260200190815260200160002060008373ffffffffffffffffffffffffffffffffffffffff1673ffffffffffffffffffffffffffffffffffffffff16815260200190815260200160002054905092915050565b6000600960019054906101000a900473ffffffffffffffffffffffffffffffffffffffff1673ffffffffffffffffffffffffffffffffffffffff163373ffffffffffffffffffffffffffffffffffffffff1614612326576040517f08c379a000000000000000000000000000000000000000000000000000000000815260040180806020018281038252602c815260200180613309602c913960400191505060405180910390fd5b61232f82610cc7565b612384576040517f08c379a000000000000000000000000000000000000000000000000000000000815260040180806020018281038252603e8152602001806131c1603e913960400191505060405180910390fd5b600d60008373ffffffffffffffffffffffffffffffffffffffff1673ffffffffffffffffffffffffffffffffffffffff168152602001908152602001600020600080820160006101000a81549073ffffffffffffffffffffffffffffffffffffffff02191690556000820160146101000a81549060ff0219169055505060019050919050565b6000600e60008373ffffffffffffffffffffffffffffffffffffffff1673ffffffffffffffffffffffffffffffffffffffff16815260200190815260200160002060000160149054906101000a900460ff169050919050565b600033905090565b600073ffffffffffffffffffffffffffffffffffffffff168373ffffffffffffffffffffffffffffffffffffffff1614156124f1576040517f08c379a000000000000000000000000000000000000000000000000000000000815260040180806020018281038252602b81526020018061322c602b913960400191505060405180910390fd5b600073ffffffffffffffffffffffffffffffffffffffff168273ffffffffffffffffffffffffffffffffffffffff161415612577576040517f08c379a00000000000000000000000000000000000000000000000000000000081526004018080602001828103825260298152602001806131986029913960400191505060405180910390fd5b80600560008573ffffffffffffffffffffffffffffffffffffffff1673ffffffffffffffffffffffffffffffffffffffff16815260200190815260200160002060008473ffffffffffffffffffffffffffffffffffffffff1673ffffffffffffffffffffffffffffffffffffffff168152602001908152602001600020819055508173ffffffffffffffffffffffffffffffffffffffff168373ffffffffffffffffffffffffffffffffffffffff167f8c5be1e5ebec7d5bd14f71427d1e84f3dd0314c0f7b2291e5b200ac8c7c3b925836040518082815260200191505060405180910390a3505050565b600061266d82612df4565b1580156126c85750600960019054906101000a900473ffffffffffffffffffffffffffffffffffffffff1673ffffffffffffffffffffffffffffffffffffffff168273ffffffffffffffffffffffffffffffffffffffff1614155b9050919050565b60006126dc848484612e07565b61279d846126e8612463565b612798856040518060600160405280602f81526020016132da602f9139600560008b73ffffffffffffffffffffffffffffffffffffffff1673ffffffffffffffffffffffffffffffffffffffff168152602001908152602001600020600061274e612463565b73ffffffffffffffffffffffffffffffffffffffff1673ffffffffffffffffffffffffffffffffffffffff16815260200190815260200160002054612d169092919063ffffffff16565b61246b565b600190509392505050565b6000600254905084156127dd576127da826127cc8584612a4d90919063ffffffff16565b612a4d90919063ffffffff16565b90505b83156127f9576127f68382612bd190919063ffffffff16565b90505b806002819055505050505050565b6000600960019054906101000a900473ffffffffffffffffffffffffffffffffffffffff1673ffffffffffffffffffffffffffffffffffffffff168373ffffffffffffffffffffffffffffffffffffffff16148061286a575061286982612df4565b5b8061287a575061287983610cc7565b5b8061288a57506128898261240a565b5b8061291e5750600f60008373ffffffffffffffffffffffffffffffffffffffff1673ffffffffffffffffffffffffffffffffffffffff16815260200190815260200160002060008473ffffffffffffffffffffffffffffffffffffffff1673ffffffffffffffffffffffffffffffffffffffff16815260200190815260200160002060000160149054906101000a900460ff165b612973576040517f08c379a000000000000000000000000000000000000000000000000000000000815260040180806020018281038252603c8152602001806134c0603c913960400191505060405180910390fd5b6001905092915050565b60008083141561299057600090506129fd565b60008284029050828482816129a157fe5b04146129f8576040517f08c379a000000000000000000000000000000000000000000000000000000000815260040180806020018281038252602181526020018061341d6021913960400191505060405180910390fd5b809150505b92915050565b6000612a4583836040518060400160405280601a81526020017f536166654d6174683a206469766973696f6e206279207a65726f0000000000008152506130cc565b905092915050565b6000612a8f83836040518060400160405280601e81526020017f536166654d6174683a207375627472616374696f6e206f766572666c6f770000815250612d16565b905092915050565b8015612b5a576000600360008473ffffffffffffffffffffffffffffffffffffffff1673ffffffffffffffffffffffffffffffffffffffff1681526020019081526020016000205490506000429050612b0d81612aff84600054612a4d90919063ffffffff16565b612bd190919063ffffffff16565b60008190555080600360008673ffffffffffffffffffffffffffffffffffffffff1673ffffffffffffffffffffffffffffffffffffffff1681526020019081526020016000208190555050505b5050565b80831115612bb0576000612b7b8285612a4d90919063ffffffff16565b9050612ba483612b9683600154612a4d90919063ffffffff16565b612bd190919063ffffffff16565b60018190555050612bcc565b612bc582600154612bd190919063ffffffff16565b6001819055505b505050565b600080828401905083811015612c4f576040517f08c379a000000000000000000000000000000000000000000000000000000000815260040180806020018281038252601b8152602001807f536166654d6174683a206164646974696f6e206f766572666c6f77000000000081525060200191505060405180910390fd5b8091505092915050565b6000612d0e612c746002600054612a0390919063ffffffff16565b612d00600360008773ffffffffffffffffffffffffffffffffffffffff1673ffffffffffffffffffffffffffffffffffffffff16815260200190815260200160002054612cf2612ccf6002805461297d90919063ffffffff16565b612ce48860015461297d90919063ffffffff16565b612a0390919063ffffffff16565b61297d90919063ffffffff16565b612a0390919063ffffffff16565b905092915050565b6000838311158290612dc3576040517f08c379a00000000000000000000000000000000000000000000000000000000081526004018080602001828103825283818151815260200191508051906020019080838360005b83811015612d88578082015181840152602081019050612d6d565b50505050905090810190601f168015612db55780820380516001836020036101000a031916815260200191505b509250505060405180910390fd5b5060008385039050809150509392505050565b6000612dea612de3612463565b8484612e07565b6001905092915050565b600080823b905060008111915050919050565b600073ffffffffffffffffffffffffffffffffffffffff168373ffffffffffffffffffffffffffffffffffffffff161415612e8d576040517f08c379a000000000000000000000000000000000000000000000000000000000815260040180806020018281038252602c815260200180613494602c913960400191505060405180910390fd5b600073ffffffffffffffffffffffffffffffffffffffff168273ffffffffffffffffffffffffffffffffffffffff161415612f13576040517f08c379a000000000000000000000000000000000000000000000000000000000815260040180806020018281038252602a81526020018061343e602a913960400191505060405180910390fd5b612f1e838383613192565b612f8a816040518060600160405280602d81526020016131ff602d9139600460008773ffffffffffffffffffffffffffffffffffffffff1673ffffffffffffffffffffffffffffffffffffffff16815260200190815260200160002054612d169092919063ffffffff16565b600460008573ffffffffffffffffffffffffffffffffffffffff1673ffffffffffffffffffffffffffffffffffffffff1681526020019081526020016000208190555061301f81600460008573ffffffffffffffffffffffffffffffffffffffff1673ffffffffffffffffffffffffffffffffffffffff16815260200190815260200160002054612bd190919063ffffffff16565b600460008473ffffffffffffffffffffffffffffffffffffffff1673ffffffffffffffffffffffffffffffffffffffff168152602001908152602001600020819055508173ffffffffffffffffffffffffffffffffffffffff168373ffffffffffffffffffffffffffffffffffffffff167fddf252ad1be2c89b69c2b068fc378daa952ba7f163c4a11628f55a4df523b3ef836040518082815260200191505060405180910390a3505050565b60008083118290613178576040517f08c379a00000000000000000000000000000000000000000000000000000000081526004018080602001828103825283818151815260200191508051906020019080838360005b8381101561313d578082015181840152602081019050613122565b50505050905090810190601f16801561316a5780820380516001836020036101000a031916815260200191505b509250505060405180910390fd5b50600083858161318457fe5b049050809150509392505050565b50505056fe4a757374486f646c426173653a20617070726f766520746f20746865207a65726f20616464726573734a757374486f646c3a2061646472657373206973206e6f742070726573656e7420696e207468652073656e64657220657863657074696f6e73206c6973744a757374486f646c426173653a207472616e7366657220616d6f756e7420657863656564732062616c616e63654a757374486f646c426173653a20617070726f76652066726f6d20746865207a65726f20616464726573734a757374486f646c3a206164647265737320697320616c72656164792070726573656e7420696e207468652073656e64657220657863657074696f6e73206c6973744a757374486f646c3a2061646472657373206973206e6f742070726573656e7420696e2074686520726563697069656e7420657863657074696f6e73206c6973744a757374486f646c426173653a207472616e7366657220616d6f756e74206578636565647320616c6c6f77616e63654a757374486f646c3a206f6e6c79206f776e65722063616e20706572666f726d207468697320616374696f6e4a757374486f646c3a2061646472657373206973206e6f742070726573656e7420696e207468652070656e616c747920657863657074696f6e73206c6973744a757374486f646c3a206164647265737320697320616c72656164792070726573656e7420696e207468652077686974656c6973744a757374486f646c3a206164647265737320697320616c72656164792070726573656e7420696e207468652070656e616c747920657863657074696f6e73206c6973744a757374486f646c3a2061646472657373206973206e6f742070726573656e7420696e207468652077686974656c697374536166654d6174683a206d756c7469706c69636174696f6e206f766572666c6f774a757374486f646c426173653a207472616e7366657220746f20746865207a65726f20616464726573734a757374486f646c426173653a2064656372656173656420616c6c6f77616e63652062656c6f77207a65726f4a757374486f646c426173653a207472616e736665722066726f6d20746865207a65726f20616464726573734a757374486f646c3a20796f7520617265206e6f7420616c6c6f77656420746f2073656e6420746f6b656e7320746f207468617420616464726573734a757374486f646c3a206164647265737320697320616c72656164792070726573656e7420696e2074686520726563697069656e7420657863657074696f6e73206c697374a2646970667358221220f6684c5c01ecf55978bdf3ef3c3469ad5052f35404b2fcc3397bf70374ee987164736f6c634300060600334a757374486f646c426173653a206d696e7420746f20746865207a65726f2061646472657373",
  "immutableReferences": {},
  "source": "pragma solidity ^0.6.0;\n\nimport \"./JustHodlBase.sol\";\n\n/*   __    __\n    /  |  /  |\n    $$ |  $$ |\n    $$ |__$$ |\n    $$    $$ |     Just Hodl\n    $$$$$$$$ |     $JHO\n    $$ |  $$ |\n    $$ |  $$ |\n    $$ /  $$ /\n\n    The Token For The Hodlers.\n\n    More informations at https://justhodl.finance\n*/\n\ncontract JustHodl is JustHodlBase {\n    address private owner;\n    uint256 private penaltyRatio = 10;\n    uint256 private maxSupply = 1000 * (10 ** 18);\n\n    struct Addr {\n        address _address;\n        bool exists;\n    }\n\n    mapping (address => Addr) private penaltyExceptions;\n    mapping (address => Addr) private senderExceptions;\n    mapping (address => Addr) private recipientExceptions;\n    mapping (address => mapping (address => Addr)) private whitelistedSenders;\n\n    modifier _onlyOwner() {\n        require(msg.sender == owner, \"JustHodl: only owner can perform this action\");\n        _;\n    }\n\n    constructor() public payable JustHodlBase(\"JustHodl\", \"JHO\") {\n        owner = msg.sender;\n        _mint(msg.sender, maxSupply);\n    }\n\n    function getOwner() public view returns (address) {\n        return owner;\n    }\n\n    function setOwner(address _address) public _onlyOwner {\n        owner = _address;\n    }\n\n    function isPenaltyException(address _address) public view returns (bool) {\n        return penaltyExceptions[_address].exists;\n    }\n\n    function addPenaltyException(address _address) public _onlyOwner returns (bool) {\n        require(!isPenaltyException(_address), \"JustHodl: address is already present in the penalty exceptions list\");\n        penaltyExceptions[_address] = Addr(_address, true);\n        return true;\n    }\n\n    function removePenaltyException(address _address) public _onlyOwner returns (bool) {\n        require(isPenaltyException(_address), \"JustHodl: address is not present in the penalty exceptions list\");\n        delete penaltyExceptions[_address];\n        return true;\n    }\n\n    function isSenderException(address _address) public view returns (bool) {\n        return senderExceptions[_address].exists;\n    }\n\n    function addSenderException(address _address) public _onlyOwner returns (bool) {\n        require(!isSenderException(_address), \"JustHodl: address is already present in the sender exceptions list\");\n        senderExceptions[_address] = Addr(_address, true);\n        return true;\n    }\n\n    function removeSenderException(address _address) public _onlyOwner returns (bool) {\n        require(isSenderException(_address), \"JustHodl: address is not present in the sender exceptions list\");\n        delete senderExceptions[_address];\n        return true;\n    }\n\n    function isRecipientException(address _address) public view returns (bool) {\n        return recipientExceptions[_address].exists;\n    }\n\n    function addRecipientException(address _address) public _onlyOwner returns (bool) {\n        require(!isRecipientException(_address), \"JustHodl: address is already present in the recipient exceptions list\");\n        recipientExceptions[_address] = Addr(_address, true);\n        return true;\n    }\n\n    function removeRecipientException(address _address) public _onlyOwner returns (bool) {\n        require(isRecipientException(_address), \"JustHodl: address is not present in the recipient exceptions list\");\n        delete recipientExceptions[_address];\n        return true;\n    }\n\n    function isWhitelistedSender(address _address) public view returns (bool) {\n        return whitelistedSenders[msg.sender][_address].exists;\n    }\n\n    function addWhitelistedSender(address _address) public returns (bool) {\n        require(!isWhitelistedSender(_address), \"JustHodl: address is already present in the whitelist\");\n        whitelistedSenders[msg.sender][_address] = Addr(_address, true);\n        return true;\n    }\n\n    function removeWhitelistedSender(address _address) public returns (bool) {\n        require(isWhitelistedSender(_address), \"JustHodl: address is not present in the whitelist\");\n        delete whitelistedSenders[msg.sender][_address];\n        return true;\n    }\n\n    function transfer(address _to, uint256 _value) public override returns (bool) {\n        bool isFromHodler = _isValidHodler(msg.sender);\n        bool isToHodler = _isValidHodler(_to);\n        if (isPenaltyException(msg.sender) || isPenaltyException(_to)) {\n            if (super.transfer(_to, _value)) {\n                _updateHoldersSupply(isFromHodler, isToHodler, _value, 0);\n                return true;\n            }\n            return false;\n        } else {\n            if (_allowedToSend(msg.sender, _to)) {\n                uint256 penalty = 0;\n                uint256 finalValue = _value;\n                uint256 pureBalanceBeforeThx = pureBalanceOf(msg.sender);\n                if (isFromHodler && !hodlMinimumAchived(msg.sender)) {\n                    penalty = _value.mul(penaltyRatio).div(100);\n                    finalValue = _value.sub(penalty);\n                }\n                if (super.transfer(_to, finalValue)) {\n                    _updateTimer(_to, isToHodler);\n                    _updateBonusSupply(_value, penalty, pureBalanceBeforeThx);\n                    _updateHoldersSupply(isFromHodler, isToHodler, finalValue, penalty);\n                    return true;\n                }\n            }\n            return false;\n        }\n    }\n\n    function transferFrom(address _from, address _to, uint256 _value) public override returns (bool) {\n        bool isFromHodler = _isValidHodler(_from);\n        bool isToHodler = _isValidHodler(_to);\n        if (isPenaltyException(_from) || isPenaltyException(_to)) {\n            if (super.transferFrom(_from, _to, _value)) {\n                _updateHoldersSupply(isFromHodler, isToHodler, _value, 0);\n                return true;\n            }\n           return false;\n        } else {\n            if (_allowedToSend(_from, _to)) {\n                uint256 penalty = 0;\n                uint256 finalValue = _value;\n                uint256 pureBalanceBeforeThx = pureBalanceOf(_from);\n                if (isFromHodler && !hodlMinimumAchived(_from)) {\n                    penalty = _value.mul(penaltyRatio).div(100);\n                    finalValue = _value.sub(penalty);\n                }\n                if (super.transferFrom(_from, _to, finalValue)) {\n                    _updateTimer(_to, isToHodler);\n                    _updateBonusSupply(_value, penalty, pureBalanceBeforeThx);\n                    _updateHoldersSupply(isFromHodler, isToHodler, finalValue, penalty);\n                    return true;\n                }\n            }\n            return false;\n        }\n    }\n\n    function _allowedToSend(address _from, address _to) private view returns (bool) {\n        require (\n            _from == owner ||\n            _isContract(_to) ||\n            isSenderException(_from) ||\n            isRecipientException(_to) ||\n            whitelistedSenders[_to][_from].exists,\n            \"JustHodl: you are not allowed to send tokens to that address\"\n        );\n        return true;\n    }\n\n    function _updateTimer(address _to, bool _isToHodler) private {\n        if (_isToHodler) {\n            uint256 oldLastBuy = _hodlerHodlTime[_to];\n            uint256 newLastBuy = now;\n            _totalHodlSinceLastBuy = _totalHodlSinceLastBuy.sub(oldLastBuy).add(newLastBuy);\n            _hodlerHodlTime[_to] = newLastBuy;\n        }\n    }\n\n    function _updateBonusSupply(uint256 _value, uint256 _penalty, uint256 _pureBalanceBeforeThx) private {\n        if (_value > _pureBalanceBeforeThx) {\n            uint256 spentBonus = _value.sub(_pureBalanceBeforeThx);\n            _bonusSupply = _bonusSupply.sub(spentBonus).add(_penalty);\n        } else {\n            _bonusSupply = _bonusSupply.add(_penalty);\n        }\n    }\n\n    function _updateHoldersSupply(bool _isFromHodler, bool _isToHodler, uint256 _value, uint256 _penalty) private {\n        uint256 finalValue = _holdersSupply;\n        if (_isFromHodler) {\n            finalValue = finalValue.sub(_value).sub(_penalty);\n        }\n        if (_isToHodler) {\n            finalValue = finalValue.add(_value);\n        }\n        _holdersSupply = finalValue;\n    }\n\n    function _isValidHodler(address _address) private view returns (bool) {\n        return !_isContract(_address) && _address != owner;\n    }\n\n    function _isContract(address _address) private view returns (bool) {\n        uint256 size;\n        assembly { size := extcodesize(_address) }\n        return size > 0;\n    }\n}\n",
  "sourcePath": "/home/minato/projects/crypto/project-hodler/contracts/JustHodl.sol",
  "compiler": {
    "name": "solc",
    "version": "0.6.6+commit.6c089d02.Emscripten.clang"
  },
  "schemaVersion": "3.3.1",
  "updatedAt": "2020-10-22T11:18:21.449Z",
  "devdoc": {
    "methods": {}
  },
  "userdoc": {
    "methods": {}
  }
}