{
  "contractName": "JustHodl",
  "abi": [
    {
      "inputs": [],
      "stateMutability": "payable",
      "type": "constructor",
      "payable": true
    },
    {
      "anonymous": false,
      "inputs": [
        {
          "indexed": true,
          "internalType": "address",
          "name": "owner",
          "type": "address"
        },
        {
          "indexed": true,
          "internalType": "address",
          "name": "spender",
          "type": "address"
        },
        {
          "indexed": false,
          "internalType": "uint256",
          "name": "value",
          "type": "uint256"
        }
      ],
      "name": "Approval",
      "type": "event"
    },
    {
      "anonymous": false,
      "inputs": [
        {
          "indexed": true,
          "internalType": "address",
          "name": "from",
          "type": "address"
        },
        {
          "indexed": true,
          "internalType": "address",
          "name": "to",
          "type": "address"
        },
        {
          "indexed": false,
          "internalType": "uint256",
          "name": "value",
          "type": "uint256"
        }
      ],
      "name": "Transfer",
      "type": "event"
    },
    {
      "inputs": [
        {
          "internalType": "address",
          "name": "owner",
          "type": "address"
        },
        {
          "internalType": "address",
          "name": "spender",
          "type": "address"
        }
      ],
      "name": "allowance",
      "outputs": [
        {
          "internalType": "uint256",
          "name": "",
          "type": "uint256"
        }
      ],
      "stateMutability": "view",
      "type": "function",
      "constant": true
    },
    {
      "inputs": [
        {
          "internalType": "address",
          "name": "spender",
          "type": "address"
        },
        {
          "internalType": "uint256",
          "name": "amount",
          "type": "uint256"
        }
      ],
      "name": "approve",
      "outputs": [
        {
          "internalType": "bool",
          "name": "",
          "type": "bool"
        }
      ],
      "stateMutability": "nonpayable",
      "type": "function"
    },
    {
      "inputs": [
        {
          "internalType": "address",
          "name": "account",
          "type": "address"
        }
      ],
      "name": "balanceOf",
      "outputs": [
        {
          "internalType": "uint256",
          "name": "",
          "type": "uint256"
        }
      ],
      "stateMutability": "view",
      "type": "function",
      "constant": true
    },
    {
      "inputs": [],
      "name": "bonusSupply",
      "outputs": [
        {
          "internalType": "uint256",
          "name": "",
          "type": "uint256"
        }
      ],
      "stateMutability": "view",
      "type": "function",
      "constant": true
    },
    {
      "inputs": [],
      "name": "decimals",
      "outputs": [
        {
          "internalType": "uint8",
          "name": "",
          "type": "uint8"
        }
      ],
      "stateMutability": "view",
      "type": "function",
      "constant": true
    },
    {
      "inputs": [
        {
          "internalType": "address",
          "name": "spender",
          "type": "address"
        },
        {
          "internalType": "uint256",
          "name": "subtractedValue",
          "type": "uint256"
        }
      ],
      "name": "decreaseAllowance",
      "outputs": [
        {
          "internalType": "bool",
          "name": "",
          "type": "bool"
        }
      ],
      "stateMutability": "nonpayable",
      "type": "function"
    },
    {
      "inputs": [
        {
          "internalType": "address",
          "name": "_address",
          "type": "address"
        }
      ],
      "name": "hodlMinimumAchived",
      "outputs": [
        {
          "internalType": "bool",
          "name": "",
          "type": "bool"
        }
      ],
      "stateMutability": "view",
      "type": "function",
      "constant": true
    },
    {
      "inputs": [
        {
          "internalType": "address",
          "name": "_address",
          "type": "address"
        }
      ],
      "name": "hodlTimeOf",
      "outputs": [
        {
          "internalType": "uint256",
          "name": "",
          "type": "uint256"
        }
      ],
      "stateMutability": "view",
      "type": "function",
      "constant": true
    },
    {
      "inputs": [],
      "name": "holdersSupply",
      "outputs": [
        {
          "internalType": "uint256",
          "name": "",
          "type": "uint256"
        }
      ],
      "stateMutability": "view",
      "type": "function",
      "constant": true
    },
    {
      "inputs": [
        {
          "internalType": "address",
          "name": "spender",
          "type": "address"
        },
        {
          "internalType": "uint256",
          "name": "addedValue",
          "type": "uint256"
        }
      ],
      "name": "increaseAllowance",
      "outputs": [
        {
          "internalType": "bool",
          "name": "",
          "type": "bool"
        }
      ],
      "stateMutability": "nonpayable",
      "type": "function"
    },
    {
      "inputs": [],
      "name": "name",
      "outputs": [
        {
          "internalType": "string",
          "name": "",
          "type": "string"
        }
      ],
      "stateMutability": "view",
      "type": "function",
      "constant": true
    },
    {
      "inputs": [
        {
          "internalType": "address",
          "name": "_address",
          "type": "address"
        }
      ],
      "name": "pureBalanceOf",
      "outputs": [
        {
          "internalType": "uint256",
          "name": "",
          "type": "uint256"
        }
      ],
      "stateMutability": "view",
      "type": "function",
      "constant": true
    },
    {
      "inputs": [
        {
          "internalType": "address",
          "name": "_address",
          "type": "address"
        }
      ],
      "name": "pureBonusOf",
      "outputs": [
        {
          "internalType": "uint256",
          "name": "",
          "type": "uint256"
        }
      ],
      "stateMutability": "view",
      "type": "function",
      "constant": true
    },
    {
      "inputs": [],
      "name": "symbol",
      "outputs": [
        {
          "internalType": "string",
          "name": "",
          "type": "string"
        }
      ],
      "stateMutability": "view",
      "type": "function",
      "constant": true
    },
    {
      "inputs": [],
      "name": "totalHodlSinceLastBuy",
      "outputs": [
        {
          "internalType": "uint256",
          "name": "",
          "type": "uint256"
        }
      ],
      "stateMutability": "view",
      "type": "function",
      "constant": true
    },
    {
      "inputs": [],
      "name": "totalSupply",
      "outputs": [
        {
          "internalType": "uint256",
          "name": "",
          "type": "uint256"
        }
      ],
      "stateMutability": "view",
      "type": "function",
      "constant": true
    },
    {
      "inputs": [],
      "name": "getOwner",
      "outputs": [
        {
          "internalType": "address",
          "name": "",
          "type": "address"
        }
      ],
      "stateMutability": "view",
      "type": "function",
      "constant": true
    },
    {
      "inputs": [
        {
          "internalType": "address",
          "name": "_address",
          "type": "address"
        }
      ],
      "name": "setOwner",
      "outputs": [],
      "stateMutability": "nonpayable",
      "type": "function"
    },
    {
      "inputs": [
        {
          "internalType": "address",
          "name": "_address",
          "type": "address"
        }
      ],
      "name": "isSenderException",
      "outputs": [
        {
          "internalType": "bool",
          "name": "",
          "type": "bool"
        }
      ],
      "stateMutability": "view",
      "type": "function",
      "constant": true
    },
    {
      "inputs": [
        {
          "internalType": "address",
          "name": "_address",
          "type": "address"
        }
      ],
      "name": "addSenderException",
      "outputs": [
        {
          "internalType": "bool",
          "name": "",
          "type": "bool"
        }
      ],
      "stateMutability": "nonpayable",
      "type": "function"
    },
    {
      "inputs": [
        {
          "internalType": "address",
          "name": "_address",
          "type": "address"
        }
      ],
      "name": "removeSenderException",
      "outputs": [
        {
          "internalType": "bool",
          "name": "",
          "type": "bool"
        }
      ],
      "stateMutability": "nonpayable",
      "type": "function"
    },
    {
      "inputs": [
        {
          "internalType": "address",
          "name": "_address",
          "type": "address"
        }
      ],
      "name": "isRecipientException",
      "outputs": [
        {
          "internalType": "bool",
          "name": "",
          "type": "bool"
        }
      ],
      "stateMutability": "view",
      "type": "function",
      "constant": true
    },
    {
      "inputs": [
        {
          "internalType": "address",
          "name": "_address",
          "type": "address"
        }
      ],
      "name": "addRecipientException",
      "outputs": [
        {
          "internalType": "bool",
          "name": "",
          "type": "bool"
        }
      ],
      "stateMutability": "nonpayable",
      "type": "function"
    },
    {
      "inputs": [
        {
          "internalType": "address",
          "name": "_address",
          "type": "address"
        }
      ],
      "name": "removeRecipientException",
      "outputs": [
        {
          "internalType": "bool",
          "name": "",
          "type": "bool"
        }
      ],
      "stateMutability": "nonpayable",
      "type": "function"
    },
    {
      "inputs": [
        {
          "internalType": "address",
          "name": "_address",
          "type": "address"
        }
      ],
      "name": "isWhitelistedSender",
      "outputs": [
        {
          "internalType": "bool",
          "name": "",
          "type": "bool"
        }
      ],
      "stateMutability": "view",
      "type": "function",
      "constant": true
    },
    {
      "inputs": [
        {
          "internalType": "address",
          "name": "_address",
          "type": "address"
        }
      ],
      "name": "addWhitelistedSender",
      "outputs": [
        {
          "internalType": "bool",
          "name": "",
          "type": "bool"
        }
      ],
      "stateMutability": "nonpayable",
      "type": "function"
    },
    {
      "inputs": [
        {
          "internalType": "address",
          "name": "_address",
          "type": "address"
        }
      ],
      "name": "removeWhitelistedSender",
      "outputs": [
        {
          "internalType": "bool",
          "name": "",
          "type": "bool"
        }
      ],
      "stateMutability": "nonpayable",
      "type": "function"
    },
    {
      "inputs": [
        {
          "internalType": "address",
          "name": "_to",
          "type": "address"
        },
        {
          "internalType": "uint256",
          "name": "_value",
          "type": "uint256"
        }
      ],
      "name": "transfer",
      "outputs": [
        {
          "internalType": "bool",
          "name": "",
          "type": "bool"
        }
      ],
      "stateMutability": "nonpayable",
      "type": "function"
    },
    {
      "inputs": [
        {
          "internalType": "address",
          "name": "_from",
          "type": "address"
        },
        {
          "internalType": "address",
          "name": "_to",
          "type": "address"
        },
        {
          "internalType": "uint256",
          "name": "_value",
          "type": "uint256"
        }
      ],
      "name": "transferFrom",
      "outputs": [
        {
          "internalType": "bool",
          "name": "",
          "type": "bool"
        }
      ],
      "stateMutability": "nonpayable",
      "type": "function"
    }
  ],
  "bytecode": "0x608060405260008055600060015560006002556000600355600a600b55686c6b935b8bbd400000600c556040518060400160405280600881526020017f4a757374486f646c0000000000000000000000000000000000000000000000008152506040518060400160405280600281526020017f4a480000000000000000000000000000000000000000000000000000000000008152508160089080519060200190620000ad92919062002913565b508060099080519060200190620000c692919062002913565b506012600a60006101000a81548160ff021916908360ff16021790555050506000600c549050600042905033600a60016101000a81548173ffffffffffffffffffffffffffffffffffffffff021916908373ffffffffffffffffffffffffffffffffffffffff160217905550620001607304689288b3d01d37a8fe85688042238c1cd9e5fa67563471d38188a210620026c160201b60201c565b60016000815480929190600101919050555080600460007304689288b3d01d37a8fe85688042238c1cd9e5fa73ffffffffffffffffffffffffffffffffffffffff1673ffffffffffffffffffffffffffffffffffffffff1681526020019081526020016000208190555067563471d38188a210820391506200020573048aaea5d07a21196e6df02e13ccdb23218f65ae671b4447ccc8edff80620026c160201b60201c565b600160008154809291906001019190505550806004600073048aaea5d07a21196e6df02e13ccdb23218f65ae73ffffffffffffffffffffffffffffffffffffffff1673ffffffffffffffffffffffffffffffffffffffff16815260200190815260200160002081905550671b4447ccc8edff8082039150620002a473074abaaff265fd872f438d37d22d31bf1d93fdc8613c4e620026c160201b60201c565b600160008154809291906001019190505550806004600073074abaaff265fd872f438d37d22d31bf1d93fdc873ffffffffffffffffffffffffffffffffffffffff1673ffffffffffffffffffffffffffffffffffffffff16815260200190815260200160002081905550613c4e82039150620003437315151ac99bba4ee669199efbdcd0d3af6d70fcb66722065902394f2ab0620026c160201b60201c565b60016000815480929190600101919050555080600460007315151ac99bba4ee669199efbdcd0d3af6d70fcb673ffffffffffffffffffffffffffffffffffffffff1673ffffffffffffffffffffffffffffffffffffffff168152602001908152602001600020819055506722065902394f2ab082039150620003e873151c67becfd20664a8bfe016569ebca04f71342e6725f85110da6dc590620026c160201b60201c565b600160008154809291906001019190505550806004600073151c67becfd20664a8bfe016569ebca04f71342e73ffffffffffffffffffffffffffffffffffffffff1673ffffffffffffffffffffffffffffffffffffffff168152602001908152602001600020819055506725f85110da6dc590820391506200048d7317e00383a843a9922bca3b280c0ade9f8ba484496736ca8a38d29d8000620026c160201b60201c565b60016000815480929190600101919050555080600460007317e00383a843a9922bca3b280c0ade9f8ba4844973ffffffffffffffffffffffffffffffffffffffff1673ffffffffffffffffffffffffffffffffffffffff168152602001908152602001600020819055506736ca8a38d29d80008203915062000533731c8ad03a5de826d4e4bcb842e3604e1e2f3e835968014bed951aaabd6700620026c160201b60201c565b6001600081548092919060010191905055508060046000731c8ad03a5de826d4e4bcb842e3604e1e2f3e835973ffffffffffffffffffffffffffffffffffffffff1673ffffffffffffffffffffffffffffffffffffffff1681526020019081526020016000208190555068014bed951aaabd670082039150620005d9731df63e28c9ede182d6dfb6bbc8c48d6fa537ccef670f5fd185e36f7760620026c160201b60201c565b6001600081548092919060010191905055508060046000731df63e28c9ede182d6dfb6bbc8c48d6fa537ccef73ffffffffffffffffffffffffffffffffffffffff1673ffffffffffffffffffffffffffffffffffffffff16815260200190815260200160002081905550670f5fd185e36f7760820391506200067f731f2facaff2a95027398f946d6868a7dba5a976676804f41569c6b0437a80620026c160201b60201c565b6001600081548092919060010191905055508060046000731f2facaff2a95027398f946d6868a7dba5a9766773ffffffffffffffffffffffffffffffffffffffff1673ffffffffffffffffffffffffffffffffffffffff168152602001908152602001600020819055506804f41569c6b0437a80820391506200072573205b7b1daee38c4744c6f0b782e27bca286c23db670328dc13d3aaedf0620026c160201b60201c565b600160008154809291906001019190505550806004600073205b7b1daee38c4744c6f0b782e27bca286c23db73ffffffffffffffffffffffffffffffffffffffff1673ffffffffffffffffffffffffffffffffffffffff16815260200190815260200160002081905550670328dc13d3aaedf082039150620007ca73206971261b391763458134212feeab23608746766718b3c90765fa89b0620026c160201b60201c565b600160008154809291906001019190505550806004600073206971261b391763458134212feeab236087467673ffffffffffffffffffffffffffffffffffffffff1673ffffffffffffffffffffffffffffffffffffffff168152602001908152602001600020819055506718b3c90765fa89b0820391506200086f7325f0020a60ae7a375c0970750f5f85c6680bf9bf678f63f2117d9a9ba0620026c160201b60201c565b60016000815480929190600101919050555080600460007325f0020a60ae7a375c0970750f5f85c6680bf9bf73ffffffffffffffffffffffffffffffffffffffff1673ffffffffffffffffffffffffffffffffffffffff16815260200190815260200160002081905550678f63f2117d9a9ba08203915062000915732759321df4c0f0475c41bbf9d17891bd42e32c3c6801717f34b9c66c6b90620026c160201b60201c565b6001600081548092919060010191905055508060046000732759321df4c0f0475c41bbf9d17891bd42e32c3c73ffffffffffffffffffffffffffffffffffffffff1673ffffffffffffffffffffffffffffffffffffffff168152602001908152602001600020819055506801717f34b9c66c6b9082039150620009bb732b6336412636616e9158252999432e1d6938f89f672bb3ce546e5a8730620026c160201b60201c565b6001600081548092919060010191905055508060046000732b6336412636616e9158252999432e1d6938f89f73ffffffffffffffffffffffffffffffffffffffff1673ffffffffffffffffffffffffffffffffffffffff16815260200190815260200160002081905550672bb3ce546e5a87308203915062000a607334f63cf9e5347d6b00403907ed65ef148177668b67375f53dc2dcf0000620026c160201b60201c565b60016000815480929190600101919050555080600460007334f63cf9e5347d6b00403907ed65ef148177668b73ffffffffffffffffffffffffffffffffffffffff1673ffffffffffffffffffffffffffffffffffffffff1681526020019081526020016000208190555067375f53dc2dcf00008203915062000b05733baaaffbb4ede1ffa7b512bcea490ceda2db0ee6670de0b6b3a7640000620026c160201b60201c565b6001600081548092919060010191905055508060046000733baaaffbb4ede1ffa7b512bcea490ceda2db0ee673ffffffffffffffffffffffffffffffffffffffff1673ffffffffffffffffffffffffffffffffffffffff16815260200190815260200160002081905550670de0b6b3a76400008203915062000baa733c9b75bfa82ddbb4613a0eae58d636260436273a670d01706801e95768620026c160201b60201c565b6001600081548092919060010191905055508060046000733c9b75bfa82ddbb4613a0eae58d636260436273a73ffffffffffffffffffffffffffffffffffffffff1673ffffffffffffffffffffffffffffffffffffffff16815260200190815260200160002081905550670d01706801e957688203915062000c50733f3fd86382f4d69e1c4e4cf5296b82b3d90fd69368015c16fc7fa7fe1950620026c160201b60201c565b6001600081548092919060010191905055508060046000733f3fd86382f4d69e1c4e4cf5296b82b3d90fd69373ffffffffffffffffffffffffffffffffffffffff1673ffffffffffffffffffffffffffffffffffffffff1681526020019081526020016000208190555068015c16fc7fa7fe19508203915062000cf673424dddc996c1df3d3e9d3d9d89aa32ea5fadb51f67256b60b6b0e16650620026c160201b60201c565b600160008154809291906001019190505550806004600073424dddc996c1df3d3e9d3d9d89aa32ea5fadb51f73ffffffffffffffffffffffffffffffffffffffff1673ffffffffffffffffffffffffffffffffffffffff1681526020019081526020016000208190555067256b60b6b0e166508203915062000d9c73449a7e1c10d2a0f68243fe104f9330fe16fefe1a6804a19162313804af80620026c160201b60201c565b600160008154809291906001019190505550806004600073449a7e1c10d2a0f68243fe104f9330fe16fefe1a73ffffffffffffffffffffffffffffffffffffffff1673ffffffffffffffffffffffffffffffffffffffff168152602001908152602001600020819055506804a19162313804af808203915062000e42735139e12886d06c57f20a345c583ad7f3b67d3a5c670953c53ecff0c190620026c160201b60201c565b6001600081548092919060010191905055508060046000735139e12886d06c57f20a345c583ad7f3b67d3a5c73ffffffffffffffffffffffffffffffffffffffff1673ffffffffffffffffffffffffffffffffffffffff16815260200190815260200160002081905550670953c53ecff0c1908203915062000ee77352217443e3fbed2ddf2364f8e174dec88a72b3a6678c2a687ce7720000620026c160201b60201c565b60016000815480929190600101919050555080600460007352217443e3fbed2ddf2364f8e174dec88a72b3a673ffffffffffffffffffffffffffffffffffffffff1673ffffffffffffffffffffffffffffffffffffffff16815260200190815260200160002081905550678c2a687ce77200008203915062000f8c73553c0a82a14f2fb77437917e87643a76fbed8cf467115002a3f54cc000620026c160201b60201c565b600160008154809291906001019190505550806004600073553c0a82a14f2fb77437917e87643a76fbed8cf473ffffffffffffffffffffffffffffffffffffffff1673ffffffffffffffffffffffffffffffffffffffff1681526020019081526020016000208190555067115002a3f54cc00082039150620010317356e2356c0754fae16ac4aeb96d3c843bec6aff67673311d13dc876e050620026c160201b60201c565b60016000815480929190600101919050555080600460007356e2356c0754fae16ac4aeb96d3c843bec6aff6773ffffffffffffffffffffffffffffffffffffffff1673ffffffffffffffffffffffffffffffffffffffff16815260200190815260200160002081905550673311d13dc876e05082039150620010d77359d7b684bced2a28fedebfc09ce3a795f49a462068030607bc01654aff00620026c160201b60201c565b60016000815480929190600101919050555080600460007359d7b684bced2a28fedebfc09ce3a795f49a462073ffffffffffffffffffffffffffffffffffffffff1673ffffffffffffffffffffffffffffffffffffffff1681526020019081526020016000208190555068030607bc01654aff00820391506200117d735d1ee9f2a17accf72532dd17ad36f0b8909a38ca674740b1b5f423f6c0620026c160201b60201c565b6001600081548092919060010191905055508060046000735d1ee9f2a17accf72532dd17ad36f0b8909a38ca73ffffffffffffffffffffffffffffffffffffffff1673ffffffffffffffffffffffffffffffffffffffff16815260200190815260200160002081905550674740b1b5f423f6c08203915062001222737527f8e3a272699f91065b13ef51292034437c7d670de0b6b3a7640000620026c160201b60201c565b6001600081548092919060010191905055508060046000737527f8e3a272699f91065b13ef51292034437c7d73ffffffffffffffffffffffffffffffffffffffff1673ffffffffffffffffffffffffffffffffffffffff16815260200190815260200160002081905550670de0b6b3a764000082039150620012c77378024ea589a845fb72f285371901614baa04c168671f0f1f99e0ebe840620026c160201b60201c565b60016000815480929190600101919050555080600460007378024ea589a845fb72f285371901614baa04c16873ffffffffffffffffffffffffffffffffffffffff1673ffffffffffffffffffffffffffffffffffffffff16815260200190815260200160002081905550671f0f1f99e0ebe840820391506200136c737944449ed57ce81a6cf7ff557f3e917b7a4680866720eefa45ab02e090620026c160201b60201c565b6001600081548092919060010191905055508060046000737944449ed57ce81a6cf7ff557f3e917b7a46808673ffffffffffffffffffffffffffffffffffffffff1673ffffffffffffffffffffffffffffffffffffffff168152602001908152602001600020819055506720eefa45ab02e090820391506200141173830b69752e151da5d31fb355fc6f636c3bf5e5f86721d9a21588958ef0620026c160201b60201c565b600160008154809291906001019190505550806004600073830b69752e151da5d31fb355fc6f636c3bf5e5f873ffffffffffffffffffffffffffffffffffffffff1673ffffffffffffffffffffffffffffffffffffffff168152602001908152602001600020819055506721d9a21588958ef082039150620014b6738a449393ce741a3ceabd9373008be53db12bf246673b99fe5de1b815b0620026c160201b60201c565b6001600081548092919060010191905055508060046000738a449393ce741a3ceabd9373008be53db12bf24673ffffffffffffffffffffffffffffffffffffffff1673ffffffffffffffffffffffffffffffffffffffff16815260200190815260200160002081905550673b99fe5de1b815b0820391506200155b738e09fc3d36b0595086538a92befe13d09c072661671f8f83ce8c52ad40620026c160201b60201c565b6001600081548092919060010191905055508060046000738e09fc3d36b0595086538a92befe13d09c07266173ffffffffffffffffffffffffffffffffffffffff1673ffffffffffffffffffffffffffffffffffffffff16815260200190815260200160002081905550671f8f83ce8c52ad408203915062001600739016563f047fde2a42bf68d9d3670a91e746f1bc6715d235eaa4602c30620026c160201b60201c565b6001600081548092919060010191905055508060046000739016563f047fde2a42bf68d9d3670a91e746f1bc73ffffffffffffffffffffffffffffffffffffffff1673ffffffffffffffffffffffffffffffffffffffff168152602001908152602001600020819055506715d235eaa4602c3082039150620016a5739317d29f94f9f399ed27048a14bbae81d7fd73fb676e5412e10c5b0000620026c160201b60201c565b6001600081548092919060010191905055508060046000739317d29f94f9f399ed27048a14bbae81d7fd73fb73ffffffffffffffffffffffffffffffffffffffff1673ffffffffffffffffffffffffffffffffffffffff16815260200190815260200160002081905550676e5412e10c5b0000820391506200174b739853c360cccaf3968f8dd46d50c133e61ddb67b16806c9b755b2eec06240620026c160201b60201c565b6001600081548092919060010191905055508060046000739853c360cccaf3968f8dd46d50c133e61ddb67b173ffffffffffffffffffffffffffffffffffffffff1673ffffffffffffffffffffffffffffffffffffffff168152602001908152602001600020819055506806c9b755b2eec0624082039150620017f2739bb354ddf9e43648a06fb69420425ff6c059d2316803bc48c82d38d46080620026c160201b60201c565b6001600081548092919060010191905055508060046000739bb354ddf9e43648a06fb69420425ff6c059d23173ffffffffffffffffffffffffffffffffffffffff1673ffffffffffffffffffffffffffffffffffffffff168152602001908152602001600020819055506803bc48c82d38d460808203915062001898739d2c491a573114d5fbb7aad5afc29637f33f31a467373bcce9be0e0000620026c160201b60201c565b6001600081548092919060010191905055508060046000739d2c491a573114d5fbb7aad5afc29637f33f31a473ffffffffffffffffffffffffffffffffffffffff1673ffffffffffffffffffffffffffffffffffffffff1681526020019081526020016000208190555067373bcce9be0e0000820391506200193d739df06e44585d1a5b9869a5e5630709e1c74b3b3a67032122803fcad478620026c160201b60201c565b6001600081548092919060010191905055508060046000739df06e44585d1a5b9869a5e5630709e1c74b3b3a73ffffffffffffffffffffffffffffffffffffffff1673ffffffffffffffffffffffffffffffffffffffff1681526020019081526020016000208190555067032122803fcad47882039150620019e273a3544d5a648d8b4649455c836743b4ab49289bc16703532966826b6aa8620026c160201b60201c565b600160008154809291906001019190505550806004600073a3544d5a648d8b4649455c836743b4ab49289bc173ffffffffffffffffffffffffffffffffffffffff1673ffffffffffffffffffffffffffffffffffffffff168152602001908152602001600020819055506703532966826b6aa88203915062001a8773a574469c959803481f25f825b41f1137bafcf095674d27054a5b286760620026c160201b60201c565b600160008154809291906001019190505550806004600073a574469c959803481f25f825b41f1137bafcf09573ffffffffffffffffffffffffffffffffffffffff1673ffffffffffffffffffffffffffffffffffffffff16815260200190815260200160002081905550674d27054a5b2867608203915062001b2c73a5aad2cd204e43dc16e4f93c4a20f4a3036124cd67e6f11aa29e4f13a0620026c160201b60201c565b600160008154809291906001019190505550806004600073a5aad2cd204e43dc16e4f93c4a20f4a3036124cd73ffffffffffffffffffffffffffffffffffffffff1673ffffffffffffffffffffffffffffffffffffffff1681526020019081526020016000208190555067e6f11aa29e4f13a08203915062001bd173aa3d85ad9d128dfecb55424085754f6dfa643eb1670e0aeb7fb3528000620026c160201b60201c565b600160008154809291906001019190505550806004600073aa3d85ad9d128dfecb55424085754f6dfa643eb173ffffffffffffffffffffffffffffffffffffffff1673ffffffffffffffffffffffffffffffffffffffff16815260200190815260200160002081905550670e0aeb7fb35280008203915062001c7773b086755a5b0b10bd53956936588555f586f5f49d68041043d7b5b9c957e0620026c160201b60201c565b600160008154809291906001019190505550806004600073b086755a5b0b10bd53956936588555f586f5f49d73ffffffffffffffffffffffffffffffffffffffff1673ffffffffffffffffffffffffffffffffffffffff1681526020019081526020016000208190555068041043d7b5b9c957e08203915062001d1d73b1fe569478506aefec2bcc84321e8d2053fe3fbb6784a553033b151330620026c160201b60201c565b600160008154809291906001019190505550806004600073b1fe569478506aefec2bcc84321e8d2053fe3fbb73ffffffffffffffffffffffffffffffffffffffff1673ffffffffffffffffffffffffffffffffffffffff168152602001908152602001600020819055506784a553033b1513308203915062001dc273c07378e46f4a9d7de862f3d8a51182b48e5166b467357289851834bb00620026c160201b60201c565b600160008154809291906001019190505550806004600073c07378e46f4a9d7de862f3d8a51182b48e5166b473ffffffffffffffffffffffffffffffffffffffff1673ffffffffffffffffffffffffffffffffffffffff1681526020019081526020016000208190555067357289851834bb008203915062001e6673c56c068c41149fab578e6e9321517a6c43be5920665641ca4d47aa90620026c160201b60201c565b600160008154809291906001019190505550806004600073c56c068c41149fab578e6e9321517a6c43be592073ffffffffffffffffffffffffffffffffffffffff1673ffffffffffffffffffffffffffffffffffffffff16815260200190815260200160002081905550665641ca4d47aa908203915062001f0a73c7789b84995e56ef8c1902279695b7b72f6844c1671bc16d674ec80000620026c160201b60201c565b600160008154809291906001019190505550806004600073c7789b84995e56ef8c1902279695b7b72f6844c173ffffffffffffffffffffffffffffffffffffffff1673ffffffffffffffffffffffffffffffffffffffff16815260200190815260200160002081905550671bc16d674ec800008203915062001faf73e18bb5af1c31177898fe8ebb42e7c1a8f5d092d76730fe1ce271a171c0620026c160201b60201c565b600160008154809291906001019190505550806004600073e18bb5af1c31177898fe8ebb42e7c1a8f5d092d773ffffffffffffffffffffffffffffffffffffffff1673ffffffffffffffffffffffffffffffffffffffff168152602001908152602001600020819055506730fe1ce271a171c0820391506200205473e20f75642b97c11af651a81afcbbc6d7b4e329816709a757316f902290620026c160201b60201c565b600160008154809291906001019190505550806004600073e20f75642b97c11af651a81afcbbc6d7b4e3298173ffffffffffffffffffffffffffffffffffffffff1673ffffffffffffffffffffffffffffffffffffffff168152602001908152602001600020819055506709a757316f90229082039150620020fa73e7ba0da73b9d15f5d628bc99a2c014d8396917626801646705c54ec6f260620026c160201b60201c565b600160008154809291906001019190505550806004600073e7ba0da73b9d15f5d628bc99a2c014d83969176273ffffffffffffffffffffffffffffffffffffffff1673ffffffffffffffffffffffffffffffffffffffff168152602001908152602001600020819055506801646705c54ec6f260820391506200219f73e950c23891e41e5bb3fe4a45dde62752a4bbf9fb667cff47cbe36a04620026c160201b60201c565b600160008154809291906001019190505550806004600073e950c23891e41e5bb3fe4a45dde62752a4bbf9fb73ffffffffffffffffffffffffffffffffffffffff1673ffffffffffffffffffffffffffffffffffffffff16815260200190815260200160002081905550667cff47cbe36a04820391506200224373ec1625f0be12b31d8edfdd165f7750ee4630a4756732d39d854f31cc20620026c160201b60201c565b600160008154809291906001019190505550806004600073ec1625f0be12b31d8edfdd165f7750ee4630a47573ffffffffffffffffffffffffffffffffffffffff1673ffffffffffffffffffffffffffffffffffffffff168152602001908152602001600020819055506732d39d854f31cc2082039150620022e973ee9eafddcdfbffab6b9e989b71a13684090cdfaa68012490bed9cad921a0620026c160201b60201c565b600160008154809291906001019190505550806004600073ee9eafddcdfbffab6b9e989b71a13684090cdfaa73ffffffffffffffffffffffffffffffffffffffff1673ffffffffffffffffffffffffffffffffffffffff1681526020019081526020016000208190555068012490bed9cad921a0820391506200238f73f82ffee7eda1dd212dd0d867e57aa174dc207d7e672c58db3923b721b0620026c160201b60201c565b600160008154809291906001019190505550806004600073f82ffee7eda1dd212dd0d867e57aa174dc207d7e73ffffffffffffffffffffffffffffffffffffffff1673ffffffffffffffffffffffffffffffffffffffff16815260200190815260200160002081905550672c58db3923b721b0820391506200243573f872ea3e3bc2d9efcb660de497a6f1c50e4ad25d680163c1ff1511c6a100620026c160201b60201c565b600160008154809291906001019190505550806004600073f872ea3e3bc2d9efcb660de497a6f1c50e4ad25d73ffffffffffffffffffffffffffffffffffffffff1673ffffffffffffffffffffffffffffffffffffffff16815260200190815260200160002081905550680163c1ff1511c6a10082039150620024db73fb04d99d7024bef7047cf6a16c4e33f48e1c49816718d9da1eea7a9920620026c160201b60201c565b600160008154809291906001019190505550806004600073fb04d99d7024bef7047cf6a16c4e33f48e1c498173ffffffffffffffffffffffffffffffffffffffff1673ffffffffffffffffffffffffffffffffffffffff168152602001908152602001600020819055506718d9da1eea7a9920820391506200258073fc04ec649be75e2b9bfe15d49e385f65277103b4671e793bcf085cdc80620026c160201b60201c565b600160008154809291906001019190505550806004600073fc04ec649be75e2b9bfe15d49e385f65277103b473ffffffffffffffffffffffffffffffffffffffff1673ffffffffffffffffffffffffffffffffffffffff16815260200190815260200160002081905550671e793bcf085cdc80820391506200262573ffe10be9b63a4005dd1e631ee6fca3f6d60242696730e25b03b13bb960620026c160201b60201c565b600160008154809291906001019190505550806004600073ffe10be9b63a4005dd1e631ee6fca3f6d602426973ffffffffffffffffffffffffffffffffffffffff1673ffffffffffffffffffffffffffffffffffffffff168152602001908152602001600020819055506730e25b03b13bb9608203915081600c5403600381905550620026b93383620026c160201b60201c565b5050620029c2565b600073ffffffffffffffffffffffffffffffffffffffff168273ffffffffffffffffffffffffffffffffffffffff16141562002749576040517f08c379a000000000000000000000000000000000000000000000000000000000815260040180806020018281038252602681526020018062005ecf6026913960400191505060405180910390fd5b6200275d600083836200288560201b60201c565b62002779816007546200288a60201b62002afd1790919060201c565b600781905550620027d881600560008573ffffffffffffffffffffffffffffffffffffffff1673ffffffffffffffffffffffffffffffffffffffff168152602001908152602001600020546200288a60201b62002afd1790919060201c565b600560008473ffffffffffffffffffffffffffffffffffffffff1673ffffffffffffffffffffffffffffffffffffffff168152602001908152602001600020819055508173ffffffffffffffffffffffffffffffffffffffff16600073ffffffffffffffffffffffffffffffffffffffff167fddf252ad1be2c89b69c2b068fc378daa952ba7f163c4a11628f55a4df523b3ef836040518082815260200191505060405180910390a35050565b505050565b60008082840190508381101562002909576040517f08c379a000000000000000000000000000000000000000000000000000000000815260040180806020018281038252601b8152602001807f536166654d6174683a206164646974696f6e206f766572666c6f77000000000081525060200191505060405180910390fd5b8091505092915050565b828054600181600116156101000203166002900490600052602060002090601f016020900481019282601f106200295657805160ff191683800117855562002987565b8280016001018555821562002987579182015b828111156200298657825182559160200191906001019062002969565b5b5090506200299691906200299a565b5090565b620029bf91905b80821115620029bb576000816000905550600101620029a1565b5090565b90565b6134fd80620029d26000396000f3fe608060405234801561001057600080fd5b50600436106101cf5760003560e01c806370a082311161010457806397c540a8116100a2578063be49457311610071578063be49457314610a0a578063dd62ed3e14610a62578063f07ae52f14610ada578063f19211db14610b36576101cf565b806397c540a81461088a578063a457c2d7146108e2578063a9059cbb14610948578063baedc445146109ae576101cf565b8063863843bc116100de578063863843bc1461074357806388f9e04f14610761578063893d20e8146107bd57806395d89b4114610807576101cf565b806370a082311461063757806371b766171461068f5780637851eca2146106eb576101cf565b80631b9e2fad11610171578063395093511161014b57806339509351146104fb57806347d8f55914610561578063664e43401461057f57806367cca592146105db576101cf565b80631b9e2fad146103f557806323b872dd14610451578063313ce567146104d7576101cf565b806306fdde03116101ad57806306fdde03146102aa578063095ea7b31461032d57806313af40351461039357806318160ddd146103d7576101cf565b806302640bdc146101d457806303d3d3ca1461023057806305ff91101461024e575b600080fd5b610216600480360360208110156101ea57600080fd5b81019080803573ffffffffffffffffffffffffffffffffffffffff169060200190929190505050610b92565b604051808215151515815260200191505060405180910390f35b610238610beb565b6040518082815260200191505060405180910390f35b6102906004803603602081101561026457600080fd5b81019080803573ffffffffffffffffffffffffffffffffffffffff169060200190929190505050610bf5565b604051808215151515815260200191505060405180910390f35b6102b2610d81565b6040518080602001828103825283818151815260200191508051906020019080838360005b838110156102f25780820151818401526020810190506102d7565b50505050905090810190601f16801561031f5780820380516001836020036101000a031916815260200191505b509250505060405180910390f35b6103796004803603604081101561034357600080fd5b81019080803573ffffffffffffffffffffffffffffffffffffffff16906020019092919080359060200190929190505050610e23565b604051808215151515815260200191505060405180910390f35b6103d5600480360360208110156103a957600080fd5b81019080803573ffffffffffffffffffffffffffffffffffffffff169060200190929190505050610e41565b005b6103df610f2b565b6040518082815260200191505060405180910390f35b6104376004803603602081101561040b57600080fd5b81019080803573ffffffffffffffffffffffffffffffffffffffff169060200190929190505050610f35565b604051808215151515815260200191505060405180910390f35b6104bd6004803603606081101561046757600080fd5b81019080803573ffffffffffffffffffffffffffffffffffffffff169060200190929190803573ffffffffffffffffffffffffffffffffffffffff16906020019092919080359060200190929190505050610fcb565b604051808215151515815260200191505060405180910390f35b6104df61117c565b604051808260ff1660ff16815260200191505060405180910390f35b6105476004803603604081101561051157600080fd5b81019080803573ffffffffffffffffffffffffffffffffffffffff16906020019092919080359060200190929190505050611193565b604051808215151515815260200191505060405180910390f35b610569611246565b6040518082815260200191505060405180910390f35b6105c16004803603602081101561059557600080fd5b81019080803573ffffffffffffffffffffffffffffffffffffffff16906020019092919050505061124f565b604051808215151515815260200191505060405180910390f35b61061d600480360360208110156105f157600080fd5b81019080803573ffffffffffffffffffffffffffffffffffffffff1690602001909291905050506113cd565b604051808215151515815260200191505060405180910390f35b6106796004803603602081101561064d57600080fd5b81019080803573ffffffffffffffffffffffffffffffffffffffff1690602001909291905050506115b4565b6040518082815260200191505060405180910390f35b6106d1600480360360208110156106a557600080fd5b81019080803573ffffffffffffffffffffffffffffffffffffffff169060200190929190505050611631565b604051808215151515815260200191505060405180910390f35b61072d6004803603602081101561070157600080fd5b81019080803573ffffffffffffffffffffffffffffffffffffffff169060200190929190505050611754565b6040518082815260200191505060405180910390f35b61074b61179d565b6040518082815260200191505060405180910390f35b6107a36004803603602081101561077757600080fd5b81019080803573ffffffffffffffffffffffffffffffffffffffff1690602001909291905050506117a7565b604051808215151515815260200191505060405180910390f35b6107c5611808565b604051808273ffffffffffffffffffffffffffffffffffffffff1673ffffffffffffffffffffffffffffffffffffffff16815260200191505060405180910390f35b61080f611832565b6040518080602001828103825283818151815260200191508051906020019080838360005b8381101561084f578082015181840152602081019050610834565b50505050905090810190601f16801561087c5780820380516001836020036101000a031916815260200191505b509250505060405180910390f35b6108cc600480360360208110156108a057600080fd5b81019080803573ffffffffffffffffffffffffffffffffffffffff1690602001909291905050506118d4565b6040518082815260200191505060405180910390f35b61092e600480360360408110156108f857600080fd5b81019080803573ffffffffffffffffffffffffffffffffffffffff16906020019092919080359060200190929190505050611937565b604051808215151515815260200191505060405180910390f35b6109946004803603604081101561095e57600080fd5b81019080803573ffffffffffffffffffffffffffffffffffffffff16906020019092919080359060200190929190505050611a04565b604051808215151515815260200191505060405180910390f35b6109f0600480360360208110156109c457600080fd5b81019080803573ffffffffffffffffffffffffffffffffffffffff169060200190929190505050611bb3565b604051808215151515815260200191505060405180910390f35b610a4c60048036036020811015610a2057600080fd5b81019080803573ffffffffffffffffffffffffffffffffffffffff169060200190929190505050611d9a565b6040518082815260200191505060405180910390f35b610ac460048036036040811015610a7857600080fd5b81019080803573ffffffffffffffffffffffffffffffffffffffff169060200190929190803573ffffffffffffffffffffffffffffffffffffffff169060200190929190505050611de3565b6040518082815260200191505060405180910390f35b610b1c60048036036020811015610af057600080fd5b81019080803573ffffffffffffffffffffffffffffffffffffffff169060200190929190505050611e6a565b604051808215151515815260200191505060405180910390f35b610b7860048036036020811015610b4c57600080fd5b81019080803573ffffffffffffffffffffffffffffffffffffffff169060200190929190505050611ff6565b604051808215151515815260200191505060405180910390f35b6000600d60008373ffffffffffffffffffffffffffffffffffffffff1673ffffffffffffffffffffffffffffffffffffffff16815260200190815260200160002060000160149054906101000a900460ff169050919050565b6000600354905090565b6000600a60019054906101000a900473ffffffffffffffffffffffffffffffffffffffff1673ffffffffffffffffffffffffffffffffffffffff163373ffffffffffffffffffffffffffffffffffffffff1614610c9d576040517f08c379a000000000000000000000000000000000000000000000000000000000815260040180806020018281038252602c815260200180613312602c913960400191505060405180910390fd5b610ca682611ff6565b610cfb576040517f08c379a00000000000000000000000000000000000000000000000000000000081526004018080602001828103825260418152602001806132a26041913960600191505060405180910390fd5b600e60008373ffffffffffffffffffffffffffffffffffffffff1673ffffffffffffffffffffffffffffffffffffffff168152602001908152602001600020600080820160006101000a81549073ffffffffffffffffffffffffffffffffffffffff02191690556000820160146101000a81549060ff0219169055505060019050919050565b606060088054600181600116156101000203166002900480601f016020809104026020016040519081016040528092919081815260200182805460018160011615610100020316600290048015610e195780601f10610dee57610100808354040283529160200191610e19565b820191906000526020600020905b815481529060010190602001808311610dfc57829003601f168201915b5050505050905090565b6000610e37610e3061204f565b8484612057565b6001905092915050565b600a60019054906101000a900473ffffffffffffffffffffffffffffffffffffffff1673ffffffffffffffffffffffffffffffffffffffff163373ffffffffffffffffffffffffffffffffffffffff1614610ee7576040517f08c379a000000000000000000000000000000000000000000000000000000000815260040180806020018281038252602c815260200180613312602c913960400191505060405180910390fd5b80600a60016101000a81548173ffffffffffffffffffffffffffffffffffffffff021916908373ffffffffffffffffffffffffffffffffffffffff16021790555050565b6000600754905090565b6000600f60003373ffffffffffffffffffffffffffffffffffffffff1673ffffffffffffffffffffffffffffffffffffffff16815260200190815260200160002060008373ffffffffffffffffffffffffffffffffffffffff1673ffffffffffffffffffffffffffffffffffffffff16815260200190815260200160002060000160149054906101000a900460ff169050919050565b600080610fd78561224e565b90506000610fe48561224e565b9050610ff086866122bb565b1561116e5760008090506000859050600061100a89611d9a565b9050600061101789611d9a565b905085801561102c575061102a8a6117a7565b155b1561107157611059606461104b600b548b61243190919063ffffffff16565b6124b790919063ffffffff16565b935061106e848961250190919063ffffffff16565b92505b61107c8a8a8561254b565b15611169576000841115611120576110dc84600560008d73ffffffffffffffffffffffffffffffffffffffff1673ffffffffffffffffffffffffffffffffffffffff1681526020019081526020016000205461250190919063ffffffff16565b600560008c73ffffffffffffffffffffffffffffffffffffffff1673ffffffffffffffffffffffffffffffffffffffff168152602001908152602001600020819055505b61112c8a8a8888612624565b6111388a8787846127de565b61114388858461286e565b61115086868587866128e1565b61115a8a8a612953565b60019650505050505050611175565b505050505b6000925050505b9392505050565b6000600a60009054906101000a900460ff16905090565b600061123c6111a061204f565b8461123785600660006111b161204f565b73ffffffffffffffffffffffffffffffffffffffff1673ffffffffffffffffffffffffffffffffffffffff16815260200190815260200160002060008973ffffffffffffffffffffffffffffffffffffffff1673ffffffffffffffffffffffffffffffffffffffff16815260200190815260200160002054612afd90919063ffffffff16565b612057565b6001905092915050565b60008054905090565b600061125a82610f35565b156112b0576040517f08c379a000000000000000000000000000000000000000000000000000000000815260040180806020018281038252603581526020018061333e6035913960400191505060405180910390fd5b60405180604001604052808373ffffffffffffffffffffffffffffffffffffffff16815260200160011515815250600f60003373ffffffffffffffffffffffffffffffffffffffff1673ffffffffffffffffffffffffffffffffffffffff16815260200190815260200160002060008473ffffffffffffffffffffffffffffffffffffffff1673ffffffffffffffffffffffffffffffffffffffff16815260200190815260200160002060008201518160000160006101000a81548173ffffffffffffffffffffffffffffffffffffffff021916908373ffffffffffffffffffffffffffffffffffffffff16021790555060208201518160000160146101000a81548160ff02191690831515021790555090505060019050919050565b6000600a60019054906101000a900473ffffffffffffffffffffffffffffffffffffffff1673ffffffffffffffffffffffffffffffffffffffff163373ffffffffffffffffffffffffffffffffffffffff1614611475576040517f08c379a000000000000000000000000000000000000000000000000000000000815260040180806020018281038252602c815260200180613312602c913960400191505060405180910390fd5b61147e82610b92565b156114d4576040517f08c379a00000000000000000000000000000000000000000000000000000000081526004018080602001828103825260428152602001806132606042913960600191505060405180910390fd5b60405180604001604052808373ffffffffffffffffffffffffffffffffffffffff16815260200160011515815250600d60008473ffffffffffffffffffffffffffffffffffffffff1673ffffffffffffffffffffffffffffffffffffffff16815260200190815260200160002060008201518160000160006101000a81548173ffffffffffffffffffffffffffffffffffffffff021916908373ffffffffffffffffffffffffffffffffffffffff16021790555060208201518160000160146101000a81548160ff02191690831515021790555090505060019050919050565b600080600560008473ffffffffffffffffffffffffffffffffffffffff1673ffffffffffffffffffffffffffffffffffffffff16815260200190815260200160002054905060008111801561160e575061160d836117a7565b5b156116275761161d8382612b85565b810191505061162c565b809150505b919050565b600061163c82610f35565b611691576040517f08c379a00000000000000000000000000000000000000000000000000000000081526004018080602001828103825260318152602001806133736031913960400191505060405180910390fd5b600f60003373ffffffffffffffffffffffffffffffffffffffff1673ffffffffffffffffffffffffffffffffffffffff16815260200190815260200160002060008373ffffffffffffffffffffffffffffffffffffffff1673ffffffffffffffffffffffffffffffffffffffff168152602001908152602001600020600080820160006101000a81549073ffffffffffffffffffffffffffffffffffffffff02191690556000820160146101000a81549060ff0219169055505060019050919050565b6000600460008373ffffffffffffffffffffffffffffffffffffffff1673ffffffffffffffffffffffffffffffffffffffff168152602001908152602001600020549050919050565b6000600254905090565b600080600460008473ffffffffffffffffffffffffffffffffffffffff1673ffffffffffffffffffffffffffffffffffffffff16815260200190815260200160002054905060008111801561180057508062093a804203115b915050919050565b6000600a60019054906101000a900473ffffffffffffffffffffffffffffffffffffffff16905090565b606060098054600181600116156101000203166002900480601f0160208091040260200160405190810160405280929190818152602001828054600181600116156101000203166002900480156118ca5780601f1061189f576101008083540402835291602001916118ca565b820191906000526020600020905b8154815290600101906020018083116118ad57829003601f168201915b5050505050905090565b6000611930600560008473ffffffffffffffffffffffffffffffffffffffff1673ffffffffffffffffffffffffffffffffffffffff16815260200190815260200160002054611922846115b4565b61250190919063ffffffff16565b9050919050565b60006119fa61194461204f565b846119f5856040518060600160405280602c81526020016133ef602c91396006600061196e61204f565b73ffffffffffffffffffffffffffffffffffffffff1673ffffffffffffffffffffffffffffffffffffffff16815260200190815260200160002060008a73ffffffffffffffffffffffffffffffffffffffff1673ffffffffffffffffffffffffffffffffffffffff16815260200190815260200160002054612c559092919063ffffffff16565b612057565b6001905092915050565b600080611a103361224e565b90506000611a1d8561224e565b9050611a2933866122bb565b15611ba657600080905060008590506000611a4333611d9a565b90506000611a5089611d9a565b9050858015611a655750611a63336117a7565b155b15611aaa57611a926064611a84600b548b61243190919063ffffffff16565b6124b790919063ffffffff16565b9350611aa7848961250190919063ffffffff16565b92505b611ab48984612d15565b15611ba1576000841115611b5857611b1484600560003373ffffffffffffffffffffffffffffffffffffffff1673ffffffffffffffffffffffffffffffffffffffff1681526020019081526020016000205461250190919063ffffffff16565b600560003373ffffffffffffffffffffffffffffffffffffffff1673ffffffffffffffffffffffffffffffffffffffff168152602001908152602001600020819055505b611b64338a8888612624565b611b70338787846127de565b611b7b88858461286e565b611b8886868587866128e1565b611b92338a612953565b60019650505050505050611bad565b505050505b6000925050505b92915050565b6000600a60019054906101000a900473ffffffffffffffffffffffffffffffffffffffff1673ffffffffffffffffffffffffffffffffffffffff163373ffffffffffffffffffffffffffffffffffffffff1614611c5b576040517f08c379a000000000000000000000000000000000000000000000000000000000815260040180806020018281038252602c815260200180613312602c913960400191505060405180910390fd5b611c6482611ff6565b15611cba576040517f08c379a00000000000000000000000000000000000000000000000000000000081526004018080602001828103825260458152602001806134836045913960600191505060405180910390fd5b60405180604001604052808373ffffffffffffffffffffffffffffffffffffffff16815260200160011515815250600e60008473ffffffffffffffffffffffffffffffffffffffff1673ffffffffffffffffffffffffffffffffffffffff16815260200190815260200160002060008201518160000160006101000a81548173ffffffffffffffffffffffffffffffffffffffff021916908373ffffffffffffffffffffffffffffffffffffffff16021790555060208201518160000160146101000a81548160ff02191690831515021790555090505060019050919050565b6000600560008373ffffffffffffffffffffffffffffffffffffffff1673ffffffffffffffffffffffffffffffffffffffff168152602001908152602001600020549050919050565b6000600660008473ffffffffffffffffffffffffffffffffffffffff1673ffffffffffffffffffffffffffffffffffffffff16815260200190815260200160002060008373ffffffffffffffffffffffffffffffffffffffff1673ffffffffffffffffffffffffffffffffffffffff16815260200190815260200160002054905092915050565b6000600a60019054906101000a900473ffffffffffffffffffffffffffffffffffffffff1673ffffffffffffffffffffffffffffffffffffffff163373ffffffffffffffffffffffffffffffffffffffff1614611f12576040517f08c379a000000000000000000000000000000000000000000000000000000000815260040180806020018281038252602c815260200180613312602c913960400191505060405180910390fd5b611f1b82610b92565b611f70576040517f08c379a000000000000000000000000000000000000000000000000000000000815260040180806020018281038252603e8152602001806131ca603e913960400191505060405180910390fd5b600d60008373ffffffffffffffffffffffffffffffffffffffff1673ffffffffffffffffffffffffffffffffffffffff168152602001908152602001600020600080820160006101000a81549073ffffffffffffffffffffffffffffffffffffffff02191690556000820160146101000a81549060ff0219169055505060019050919050565b6000600e60008373ffffffffffffffffffffffffffffffffffffffff1673ffffffffffffffffffffffffffffffffffffffff16815260200190815260200160002060000160149054906101000a900460ff169050919050565b600033905090565b600073ffffffffffffffffffffffffffffffffffffffff168373ffffffffffffffffffffffffffffffffffffffff1614156120dd576040517f08c379a000000000000000000000000000000000000000000000000000000000815260040180806020018281038252602b815260200180613235602b913960400191505060405180910390fd5b600073ffffffffffffffffffffffffffffffffffffffff168273ffffffffffffffffffffffffffffffffffffffff161415612163576040517f08c379a00000000000000000000000000000000000000000000000000000000081526004018080602001828103825260298152602001806131a16029913960400191505060405180910390fd5b80600660008573ffffffffffffffffffffffffffffffffffffffff1673ffffffffffffffffffffffffffffffffffffffff16815260200190815260200160002060008473ffffffffffffffffffffffffffffffffffffffff1673ffffffffffffffffffffffffffffffffffffffff168152602001908152602001600020819055508173ffffffffffffffffffffffffffffffffffffffff168373ffffffffffffffffffffffffffffffffffffffff167f8c5be1e5ebec7d5bd14f71427d1e84f3dd0314c0f7b2291e5b200ac8c7c3b925836040518082815260200191505060405180910390a3505050565b600061225982612d33565b1580156122b45750600a60019054906101000a900473ffffffffffffffffffffffffffffffffffffffff1673ffffffffffffffffffffffffffffffffffffffff168273ffffffffffffffffffffffffffffffffffffffff1614155b9050919050565b6000600a60019054906101000a900473ffffffffffffffffffffffffffffffffffffffff1673ffffffffffffffffffffffffffffffffffffffff168373ffffffffffffffffffffffffffffffffffffffff16148061231e575061231d82612d33565b5b8061232e575061232d83610b92565b5b8061233e575061233d82611ff6565b5b806123d25750600f60008373ffffffffffffffffffffffffffffffffffffffff1673ffffffffffffffffffffffffffffffffffffffff16815260200190815260200160002060008473ffffffffffffffffffffffffffffffffffffffff1673ffffffffffffffffffffffffffffffffffffffff16815260200190815260200160002060000160149054906101000a900460ff165b612427576040517f08c379a000000000000000000000000000000000000000000000000000000000815260040180806020018281038252603c815260200180613447603c913960400191505060405180910390fd5b6001905092915050565b60008083141561244457600090506124b1565b600082840290508284828161245557fe5b04146124ac576040517f08c379a00000000000000000000000000000000000000000000000000000000081526004018080602001828103825260218152602001806133a46021913960400191505060405180910390fd5b809150505b92915050565b60006124f983836040518060400160405280601a81526020017f536166654d6174683a206469766973696f6e206279207a65726f000000000000815250612d46565b905092915050565b600061254383836040518060400160405280601e81526020017f536166654d6174683a207375627472616374696f6e206f766572666c6f770000815250612c55565b905092915050565b6000612558848484612e0c565b6126198461256461204f565b612614856040518060600160405280602f81526020016132e3602f9139600660008b73ffffffffffffffffffffffffffffffffffffffff1673ffffffffffffffffffffffffffffffffffffffff16815260200190815260200160002060006125ca61204f565b73ffffffffffffffffffffffffffffffffffffffff1673ffffffffffffffffffffffffffffffffffffffff16815260200190815260200160002054612c559092919063ffffffff16565b612057565b600190509392505050565b81801561267057506000600560008673ffffffffffffffffffffffffffffffffffffffff1673ffffffffffffffffffffffffffffffffffffffff16815260200190815260200160002054145b15612715576126c9600460008673ffffffffffffffffffffffffffffffffffffffff1673ffffffffffffffffffffffffffffffffffffffff1681526020019081526020016000205460005461250190919063ffffffff16565b6000819055506000600460008673ffffffffffffffffffffffffffffffffffffffff1673ffffffffffffffffffffffffffffffffffffffff168152602001908152602001600020819055505b80156127d8576000600460008573ffffffffffffffffffffffffffffffffffffffff1673ffffffffffffffffffffffffffffffffffffffff168152602001908152602001600020549050600042905061278b8261277d83600054612afd90919063ffffffff16565b61250190919063ffffffff16565b60008190555080600460008773ffffffffffffffffffffffffffffffffffffffff1673ffffffffffffffffffffffffffffffffffffffff1681526020019081526020016000208190555050505b50505050565b82801561282a57506000600560008673ffffffffffffffffffffffffffffffffffffffff1673ffffffffffffffffffffffffffffffffffffffff16815260200190815260200160002054145b1561284357600160008154809291906001900391905055505b8180156128505750600081145b15612868576001600081548092919060010191905055505b50505050565b808311156128c057600061288b828561250190919063ffffffff16565b90506128b4836128a68360025461250190919063ffffffff16565b612afd90919063ffffffff16565b600281905550506128dc565b6128d582600254612afd90919063ffffffff16565b6002819055505b505050565b600060035490506000849050828511156128f9578290505b86156129275761292484612916838561250190919063ffffffff16565b61250190919063ffffffff16565b91505b8515612943576129408583612afd90919063ffffffff16565b91505b8160038190555050505050505050565b600f60008373ffffffffffffffffffffffffffffffffffffffff1673ffffffffffffffffffffffffffffffffffffffff16815260200190815260200160002060008273ffffffffffffffffffffffffffffffffffffffff1673ffffffffffffffffffffffffffffffffffffffff16815260200190815260200160002060000160149054906101000a900460ff16612af95760405180604001604052808273ffffffffffffffffffffffffffffffffffffffff16815260200160011515815250600f60008473ffffffffffffffffffffffffffffffffffffffff1673ffffffffffffffffffffffffffffffffffffffff16815260200190815260200160002060008373ffffffffffffffffffffffffffffffffffffffff1673ffffffffffffffffffffffffffffffffffffffff16815260200190815260200160002060008201518160000160006101000a81548173ffffffffffffffffffffffffffffffffffffffff021916908373ffffffffffffffffffffffffffffffffffffffff16021790555060208201518160000160146101000a81548160ff0219169083151502179055509050505b5050565b600080828401905083811015612b7b576040517f08c379a000000000000000000000000000000000000000000000000000000000815260040180806020018281038252601b8152602001807f536166654d6174683a206164646974696f6e206f766572666c6f77000000000081525060200191505060405180910390fd5b8091505092915050565b600080612b90613142565b90506000612b9e858361314f565b905060008054612bb96001548561243190919063ffffffff16565b039050612c4a670de0b6b3a7640000612c3c612c2b6002612c1d612bf087670de0b6b3a76400008a026124b790919063ffffffff16565b612c0f600354670de0b6b3a76400008e026124b790919063ffffffff16565b612afd90919063ffffffff16565b6124b790919063ffffffff16565b60025461243190919063ffffffff16565b6124b790919063ffffffff16565b935050505092915050565b6000838311158290612d02576040517f08c379a00000000000000000000000000000000000000000000000000000000081526004018080602001828103825283818151815260200191508051906020019080838360005b83811015612cc7578082015181840152602081019050612cac565b50505050905090810190601f168015612cf45780820380516001836020036101000a031916815260200191505b509250505060405180910390fd5b5060008385039050809150509392505050565b6000612d29612d2261204f565b8484612e0c565b6001905092915050565b600080823b905060008111915050919050565b60008083118290612df2576040517f08c379a00000000000000000000000000000000000000000000000000000000081526004018080602001828103825283818151815260200191508051906020019080838360005b83811015612db7578082015181840152602081019050612d9c565b50505050905090810190601f168015612de45780820380516001836020036101000a031916815260200191505b509250505060405180910390fd5b506000838581612dfe57fe5b049050809150509392505050565b600073ffffffffffffffffffffffffffffffffffffffff168373ffffffffffffffffffffffffffffffffffffffff161415612e92576040517f08c379a000000000000000000000000000000000000000000000000000000000815260040180806020018281038252602c81526020018061341b602c913960400191505060405180910390fd5b600073ffffffffffffffffffffffffffffffffffffffff168273ffffffffffffffffffffffffffffffffffffffff161415612f18576040517f08c379a000000000000000000000000000000000000000000000000000000000815260040180806020018281038252602a8152602001806133c5602a913960400191505060405180910390fd5b612f2383838361319b565b60008190506000600560008673ffffffffffffffffffffffffffffffffffffffff1673ffffffffffffffffffffffffffffffffffffffff1681526020019081526020016000205490506000612f77866115b4565b90508184118015612f885750808411155b15612f91578192505b612ffd836040518060600160405280602d8152602001613208602d9139600560008a73ffffffffffffffffffffffffffffffffffffffff1673ffffffffffffffffffffffffffffffffffffffff16815260200190815260200160002054612c559092919063ffffffff16565b600560008873ffffffffffffffffffffffffffffffffffffffff1673ffffffffffffffffffffffffffffffffffffffff1681526020019081526020016000208190555061309284600560008873ffffffffffffffffffffffffffffffffffffffff1673ffffffffffffffffffffffffffffffffffffffff16815260200190815260200160002054612afd90919063ffffffff16565b600560008773ffffffffffffffffffffffffffffffffffffffff1673ffffffffffffffffffffffffffffffffffffffff168152602001908152602001600020819055508473ffffffffffffffffffffffffffffffffffffffff168673ffffffffffffffffffffffffffffffffffffffff167fddf252ad1be2c89b69c2b068fc378daa952ba7f163c4a11628f55a4df523b3ef866040518082815260200191505060405180910390a3505050505050565b600062093a804203905090565b6000600460008473ffffffffffffffffffffffffffffffffffffffff1673ffffffffffffffffffffffffffffffffffffffff168152602001908152602001600020548203905092915050565b50505056fe4a757374486f646c426173653a20617070726f766520746f20746865207a65726f20616464726573734a757374486f646c3a2061646472657373206973206e6f742070726573656e7420696e207468652073656e64657220657863657074696f6e73206c6973744a757374486f646c426173653a207472616e7366657220616d6f756e7420657863656564732062616c616e63654a757374486f646c426173653a20617070726f76652066726f6d20746865207a65726f20616464726573734a757374486f646c3a206164647265737320697320616c72656164792070726573656e7420696e207468652073656e64657220657863657074696f6e73206c6973744a757374486f646c3a2061646472657373206973206e6f742070726573656e7420696e2074686520726563697069656e7420657863657074696f6e73206c6973744a757374486f646c426173653a207472616e7366657220616d6f756e74206578636565647320616c6c6f77616e63654a757374486f646c3a206f6e6c79206f776e65722063616e20706572666f726d207468697320616374696f6e4a757374486f646c3a206164647265737320697320616c72656164792070726573656e7420696e207468652077686974656c6973744a757374486f646c3a2061646472657373206973206e6f742070726573656e7420696e207468652077686974656c697374536166654d6174683a206d756c7469706c69636174696f6e206f766572666c6f774a757374486f646c426173653a207472616e7366657220746f20746865207a65726f20616464726573734a757374486f646c426173653a2064656372656173656420616c6c6f77616e63652062656c6f77207a65726f4a757374486f646c426173653a207472616e736665722066726f6d20746865207a65726f20616464726573734a757374486f646c3a20796f7520617265206e6f7420616c6c6f77656420746f2073656e6420746f6b656e7320746f207468617420616464726573734a757374486f646c3a206164647265737320697320616c72656164792070726573656e7420696e2074686520726563697069656e7420657863657074696f6e73206c697374a26469706673582212207a30ca3ffe5342532cbd16ec1a3bb372bb68962ff9f59da89deb721c66b26b6764736f6c634300060600334a757374486f646c426173653a206d696e7420746f20746865207a65726f2061646472657373",
  "immutableReferences": {},
  "source": "pragma solidity ^0.6.0;\n\nimport \"./JustHodlBase.sol\";\n\n/*   __    __\n    /  |  /  |\n    $$ |  $$ |\n    $$ |__$$ |\n    $$    $$ |     Just Hodl\n    $$$$$$$$ |     $JH\n    $$ |  $$ |\n    $$ |  $$ |\n    $$ /  $$ /\n\n    The Token For The Hodlers.\n\n    More informations at https://justhodl.finance\n*/\n\ncontract JustHodl is JustHodlBase {\n    address private owner;\n    uint256 private penaltyRatio = 10;\n    uint256 private maxSupply = 2000 * (10 ** 18);\n\n    struct Addr {\n        address _address;\n        bool exists;\n    }\n\n    mapping (address => Addr) private senderExceptions;\n    mapping (address => Addr) private recipientExceptions;\n    mapping (address => mapping (address => Addr)) private whitelistedSenders;\n\n    modifier _onlyOwner() {\n        require(msg.sender == owner, \"JustHodl: only owner can perform this action\");\n        _;\n    }\n\n    constructor() public payable JustHodlBase(\"JustHodl\", \"JH\") {\n        uint256 restTokens = maxSupply;\n        uint256 time = now;\n        owner = msg.sender;\n        _mint(0x04689288b3d01d37a8fe85688042238c1Cd9e5FA, 6.21171493927601 * (10**18));\n        _totalHodlersCount++;\n        _hodlerHodlTime[0x04689288b3d01d37a8fe85688042238c1Cd9e5FA] = time;\n        restTokens -= 6.21171493927601 * (10**18);\n        _mint(0x048AAEA5D07a21196e6Df02E13cCDB23218f65Ae, 1.96477428231032 * (10**18));\n        _totalHodlersCount++;\n        _hodlerHodlTime[0x048AAEA5D07a21196e6Df02E13cCDB23218f65Ae] = time;\n        restTokens -= 1.96477428231032 * (10**18);\n        _mint(0x074abaaff265fD872F438D37d22d31bF1D93fdC8, 0.000000000000015438 * (10**18));\n        _totalHodlersCount++;\n        _hodlerHodlTime[0x074abaaff265fD872F438D37d22d31bF1D93fdC8] = time;\n        restTokens -= 0.000000000000015438 * (10**18);\n        _mint(0x15151Ac99BBa4eE669199EfbDCD0d3af6d70fCb6, 2.45174491323611 * (10**18));\n        _totalHodlersCount++;\n        _hodlerHodlTime[0x15151Ac99BBa4eE669199EfbDCD0d3af6d70fCb6] = time;\n        restTokens -= 2.45174491323611 * (10**18);\n        _mint(0x151c67BeCfd20664a8bfE016569eBCA04F71342E, 2.73602590645353 * (10**18));\n        _totalHodlersCount++;\n        _hodlerHodlTime[0x151c67BeCfd20664a8bfE016569eBCA04F71342E] = time;\n        restTokens -= 2.73602590645353 * (10**18);\n        _mint(0x17e00383A843A9922bCA3B280C0ADE9f8BA48449, 3.94812 * (10**18));\n        _totalHodlersCount++;\n        _hodlerHodlTime[0x17e00383A843A9922bCA3B280C0ADE9f8BA48449] = time;\n        restTokens -= 3.94812 * (10**18);\n        _mint(0x1c8ad03a5DE826D4E4bCb842E3604e1e2F3e8359, 23.9179371378008 * (10**18));\n        _totalHodlersCount++;\n        _hodlerHodlTime[0x1c8ad03a5DE826D4E4bCb842E3604e1e2F3e8359] = time;\n        restTokens -= 23.9179371378008 * (10**18);\n        _mint(0x1DF63e28C9ede182D6dfb6Bbc8C48D6fa537cCeF, 1.10783440633302 * (10**18));\n        _totalHodlersCount++;\n        _hodlerHodlTime[0x1DF63e28C9ede182D6dfb6Bbc8C48D6fa537cCeF] = time;\n        restTokens -= 1.10783440633302 * (10**18);\n        _mint(0x1F2FACAfF2A95027398F946D6868a7dBA5a97667, 91.3750565166852 * (10**18));\n        _totalHodlersCount++;\n        _hodlerHodlTime[0x1F2FACAfF2A95027398F946D6868a7dBA5a97667] = time;\n        restTokens -= 91.3750565166852 * (10**18);\n        _mint(0x205B7B1DAee38C4744C6F0b782E27BcA286c23db, 0.227673758895894 * (10**18));\n        _totalHodlersCount++;\n        _hodlerHodlTime[0x205B7B1DAee38C4744C6F0b782E27BcA286c23db] = time;\n        restTokens -= 0.227673758895894 * (10**18);\n        _mint(0x206971261B391763458134212FeEab2360874676, 1.77998731135435 * (10**18));\n        _totalHodlersCount++;\n        _hodlerHodlTime[0x206971261B391763458134212FeEab2360874676] = time;\n        restTokens -= 1.77998731135435 * (10**18);\n        _mint(0x25F0020A60aE7a375C0970750F5F85C6680bF9Bf, 10.3323681270537 * (10**18));\n        _totalHodlersCount++;\n        _hodlerHodlTime[0x25F0020A60aE7a375C0970750F5F85C6680bF9Bf] = time;\n        restTokens -= 10.3323681270537 * (10**18);\n        _mint(0x2759321Df4C0f0475c41BBf9d17891bd42E32C3c, 26.62505749454025 * (10**18)); // 0.5x\n        _totalHodlersCount++;\n        _hodlerHodlTime[0x2759321Df4C0f0475c41BBf9d17891bd42E32C3c] = time;\n        restTokens -= 26.62505749454025 * (10**18);\n        _mint(0x2b6336412636616e9158252999432e1D6938F89F, 3.14908742648611 * (10**18));\n        _totalHodlersCount++;\n        _hodlerHodlTime[0x2b6336412636616e9158252999432e1D6938F89F] = time;\n        restTokens -= 3.14908742648611 * (10**18);\n        _mint(0x34F63cF9E5347D6B00403907ED65eF148177668B, 3.99 * (10**18));\n        _totalHodlersCount++;\n        _hodlerHodlTime[0x34F63cF9E5347D6B00403907ED65eF148177668B] = time;\n        restTokens -= 3.99 * (10**18);\n        _mint(0x3BAAaffbB4eDe1fFA7b512bCEA490cedA2dB0EE6, 1 * (10**18));\n        _totalHodlersCount++;\n        _hodlerHodlTime[0x3BAAaffbB4eDe1fFA7b512bCEA490cedA2dB0EE6] = time;\n        restTokens -= 1 * (10**18);\n        _mint(0x3C9b75bfa82DDbb4613A0EAe58d636260436273A, 0.937153789480753 * (10**18));\n        _totalHodlersCount++;\n        _hodlerHodlTime[0x3C9b75bfa82DDbb4613A0EAe58d636260436273A] = time;\n        restTokens -= 0.937153789480753 * (10**18);\n        _mint(0x3F3FD86382f4d69E1C4e4CF5296B82B3d90FD693, 25.08251279989605 * (10**18)); // 0.5x\n        _totalHodlersCount++;\n        _hodlerHodlTime[0x3F3FD86382f4d69E1C4e4CF5296B82B3d90FD693] = time;\n        restTokens -= 25.08251279989605 * (10**18);\n        _mint(0x424dddc996c1dF3D3e9D3D9D89aa32eA5FaDb51f, 2.69635513967925 * (10**18));\n        _totalHodlersCount++;\n        _hodlerHodlTime[0x424dddc996c1dF3D3e9D3D9D89aa32eA5FaDb51f] = time;\n        restTokens -= 2.69635513967925 * (10**18);\n        _mint(0x449A7E1C10D2a0F68243FE104f9330fE16FeFe1A, 85.4291707701004 * (10**18));\n        _totalHodlersCount++;\n        _hodlerHodlTime[0x449A7E1C10D2a0F68243FE104f9330fE16FeFe1A] = time;\n        restTokens -= 85.4291707701004 * (10**18);\n        _mint(0x5139E12886d06C57F20A345c583AD7f3B67D3A5C, 0.672097642975642 * (10**18));\n        _totalHodlersCount++;\n        _hodlerHodlTime[0x5139E12886d06C57F20A345c583AD7f3B67D3A5C] = time;\n        restTokens -= 0.672097642975642 * (10**18);\n        _mint(0x52217443E3fBed2DdF2364F8E174deC88a72b3a6, 10.1 * (10**18));\n        _totalHodlersCount++;\n        _hodlerHodlTime[0x52217443E3fBed2DdF2364F8E174deC88a72b3a6] = time;\n        restTokens -= 10.1 * (10**18);\n        _mint(0x553C0A82a14F2fb77437917e87643A76FbEd8cf4, 1.2475 * (10**18));\n        _totalHodlersCount++;\n        _hodlerHodlTime[0x553C0A82a14F2fb77437917e87643A76FbEd8cf4] = time;\n        restTokens -= 1.2475 * (10**18);\n        _mint(0x56E2356c0754Fae16ac4AEB96D3C843bEc6aff67, 3.67995243382485 * (10**18));\n        _totalHodlersCount++;\n        _hodlerHodlTime[0x56E2356c0754Fae16ac4AEB96D3C843bEc6aff67] = time;\n        restTokens -= 3.67995243382485 * (10**18);\n        _mint(0x59d7b684bced2a28FedebFc09ce3A795F49a4620, 55.7747548243736 * (10**18));\n        _totalHodlersCount++;\n        _hodlerHodlTime[0x59d7b684bced2a28FedebFc09ce3A795F49a4620] = time;\n        restTokens -= 55.7747548243736 * (10**18);\n        _mint(0x5d1EE9f2A17ACcf72532Dd17ad36F0B8909a38CA, 5.13429897024556 * (10**18));\n        _totalHodlersCount++;\n        _hodlerHodlTime[0x5d1EE9f2A17ACcf72532Dd17ad36F0B8909a38CA] = time;\n        restTokens -= 5.13429897024556 * (10**18);\n        _mint(0x7527f8E3a272699f91065b13EF51292034437C7d, 1 * (10**18));\n        _totalHodlersCount++;\n        _hodlerHodlTime[0x7527f8E3a272699f91065b13EF51292034437C7d] = time;\n        restTokens -= 1 * (10**18);\n        _mint(0x78024ea589A845Fb72f285371901614BAA04C168, 2.23804228559044 * (10**18));\n        _totalHodlersCount++;\n        _hodlerHodlTime[0x78024ea589A845Fb72f285371901614BAA04C168] = time;\n        restTokens -= 2.23804228559044 * (10**18);\n        _mint(0x7944449Ed57CE81A6cF7fF557f3E917B7A468086, 2.37310923079961 * (10**18));\n        _totalHodlersCount++;\n        _hodlerHodlTime[0x7944449Ed57CE81A6cF7fF557f3E917B7A468086] = time;\n        restTokens -= 2.37310923079961 * (10**18);\n        _mint(0x830B69752e151Da5d31fb355fc6f636c3bf5e5f8, 2.43915888656735 * (10**18));\n        _totalHodlersCount++;\n        _hodlerHodlTime[0x830B69752e151Da5d31fb355fc6f636c3bf5e5f8] = time;\n        restTokens -= 2.43915888656735 * (10**18);\n        _mint(0x8A449393Ce741a3CeaBd9373008be53dB12Bf246, 4.29474339884683 * (10**18));\n        _totalHodlersCount++;\n        _hodlerHodlTime[0x8A449393Ce741a3CeaBd9373008be53dB12Bf246] = time;\n        restTokens -= 4.29474339884683 * (10**18);\n        _mint(0x8E09fC3D36B0595086538A92BEfE13D09C072661, 2.27418125998612 * (10**18));\n        _totalHodlersCount++;\n        _hodlerHodlTime[0x8E09fC3D36B0595086538A92BEfE13D09C072661] = time;\n        restTokens -= 2.27418125998612 * (10**18);\n        _mint(0x9016563F047fde2a42bf68D9D3670A91E746F1Bc, 1.57237850180211 * (10**18));\n        _totalHodlersCount++;\n        _hodlerHodlTime[0x9016563F047fde2a42bf68D9D3670A91E746F1Bc] = time;\n        restTokens -= 1.57237850180211 * (10**18);\n        _mint(0x9317d29f94f9f399ED27048a14bBaE81D7fd73fB, 7.95 * (10**18));\n        _totalHodlersCount++;\n        _hodlerHodlTime[0x9317d29f94f9f399ED27048a14bBaE81D7fd73fB] = time;\n        restTokens -= 7.95 * (10**18);\n        _mint(0x9853c360CcCaf3968f8DD46d50c133e61Ddb67b1, 125.215644991617 * (10**18));\n        _totalHodlersCount++;\n        _hodlerHodlTime[0x9853c360CcCaf3968f8DD46d50c133e61Ddb67b1] = time;\n        restTokens -= 125.215644991617 * (10**18);\n        _mint(0x9bb354ddf9e43648A06FB69420425FF6C059D231, 68.9075461951348 * (10**18));\n        _totalHodlersCount++;\n        _hodlerHodlTime[0x9bb354ddf9e43648A06FB69420425FF6C059D231] = time;\n        restTokens -= 68.9075461951348 * (10**18);\n        _mint(0x9d2c491a573114d5fBb7aaD5AFC29637F33F31a4, 3.98 * (10**18));\n        _totalHodlersCount++;\n        _hodlerHodlTime[0x9d2c491a573114d5fBb7aaD5AFC29637F33F31a4] = time;\n        restTokens -= 3.98 * (10**18);\n        _mint(0x9df06e44585d1A5B9869a5E5630709e1C74B3b3A, 0.225499390566651 * (10**18));\n        _totalHodlersCount++;\n        _hodlerHodlTime[0x9df06e44585d1A5B9869a5E5630709e1C74B3b3A] = time;\n        restTokens -= 0.225499390566651 * (10**18);\n        _mint(0xA3544D5a648d8B4649455C836743b4aB49289bc1, 0.239580725432249 * (10**18));\n        _totalHodlersCount++;\n        _hodlerHodlTime[0xA3544D5a648d8B4649455C836743b4aB49289bc1] = time;\n        restTokens -= 0.239580725432249 * (10**18);\n        _mint(0xa574469c959803481f25f825b41f1137BAfcF095, 5.55941808192726 * (10**18));\n        _totalHodlersCount++;\n        _hodlerHodlTime[0xa574469c959803481f25f825b41f1137BAfcF095] = time;\n        restTokens -= 5.55941808192726 * (10**18);\n        _mint(0xa5AAd2CD204e43dC16e4F93c4A20F4A3036124CD, 16.6411113838537 * (10**18));\n        _totalHodlersCount++;\n        _hodlerHodlTime[0xa5AAd2CD204e43dC16e4F93c4A20F4A3036124CD] = time;\n        restTokens -= 16.6411113838537 * (10**18);\n        _mint(0xAA3d85aD9D128DFECb55424085754F6dFa643eb1, 1.01188 * (10**18));\n        _totalHodlersCount++;\n        _hodlerHodlTime[0xAA3d85aD9D128DFECb55424085754F6dFa643eb1] = time;\n        restTokens -= 1.01188 * (10**18);\n        _mint(0xB086755a5B0b10BD53956936588555f586f5f49d, 74.9589937983907 * (10**18));\n        _totalHodlersCount++;\n        _hodlerHodlTime[0xB086755a5B0b10BD53956936588555f586f5f49d] = time;\n        restTokens -= 74.9589937983907 * (10**18);\n        _mint(0xB1Fe569478506aeFEC2bcc84321e8d2053FE3fBB, 9.55813705750499 * (10**18));\n        _totalHodlersCount++;\n        _hodlerHodlTime[0xB1Fe569478506aeFEC2bcc84321e8d2053FE3fBB] = time;\n        restTokens -= 9.55813705750499 * (10**18);\n        _mint(0xc07378E46f4a9D7de862f3d8a51182B48e5166b4, 3.85129183608496 * (10**18));\n        _totalHodlersCount++;\n        _hodlerHodlTime[0xc07378E46f4a9D7de862f3d8a51182B48e5166b4] = time;\n        restTokens -= 3.85129183608496 * (10**18);\n        _mint(0xC56c068C41149fAb578e6e9321517a6c43BE5920, 0.024279185132858 * (10**18));\n        _totalHodlersCount++;\n        _hodlerHodlTime[0xC56c068C41149fAb578e6e9321517a6c43BE5920] = time;\n        restTokens -= 0.024279185132858 * (10**18);\n        _mint(0xC7789B84995E56ef8c1902279695b7b72F6844C1, 2 * (10**18));\n        _totalHodlersCount++;\n        _hodlerHodlTime[0xC7789B84995E56ef8c1902279695b7b72F6844C1] = time;\n        restTokens -= 2 * (10**18);\n        _mint(0xe18bb5aF1c31177898Fe8EBb42E7C1A8F5d092D7, 3.53029091679964 * (10**18));\n        _totalHodlersCount++;\n        _hodlerHodlTime[0xe18bb5aF1c31177898Fe8EBb42E7C1A8F5d092D7] = time;\n        restTokens -= 3.53029091679964 * (10**18);\n        _mint(0xE20F75642b97c11Af651A81AfCBBc6D7B4E32981, 0.695620537288762 * (10**18));\n        _totalHodlersCount++;\n        _hodlerHodlTime[0xE20F75642b97c11Af651A81AfCBBc6D7B4E32981] = time;\n        restTokens -= 0.695620537288762 * (10**18);\n        _mint(0xe7bA0Da73b9d15f5D628BC99A2C014d839691762, 25.6815017450919 * (10**18));\n        _totalHodlersCount++;\n        _hodlerHodlTime[0xe7bA0Da73b9d15f5D628BC99A2C014d839691762] = time;\n        restTokens -= 25.6815017450919 * (10**18);\n        _mint(0xE950C23891E41E5bb3fe4a45DdE62752a4BBf9Fb, 0.0351835809405609 * (10**18));\n        _totalHodlersCount++;\n        _hodlerHodlTime[0xE950C23891E41E5bb3fe4a45DdE62752a4BBf9Fb] = time;\n        restTokens -= 0.0351835809405609 * (10**18);\n        _mint(0xEc1625f0Be12B31d8edfdd165f7750eE4630a475, 3.66244411786722 * (10**18));\n        _totalHodlersCount++;\n        _hodlerHodlTime[0xEc1625f0Be12B31d8edfdd165f7750eE4630a475] = time;\n        restTokens -= 3.66244411786722 * (10**18);\n        _mint(0xEe9EAFDdCDfbFFAb6B9E989B71a13684090cdfaa, 21.0815596983417 * (10**18));\n        _totalHodlersCount++;\n        _hodlerHodlTime[0xEe9EAFDdCDfbFFAb6B9E989B71a13684090cdfaa] = time;\n        restTokens -= 21.0815596983417 * (10**18);\n        _mint(0xf82fFEE7eda1DD212Dd0d867E57aa174dc207D7e, 3.19554497407819 * (10**18));\n        _totalHodlersCount++;\n        _hodlerHodlTime[0xf82fFEE7eda1DD212Dd0d867E57aa174dc207D7e] = time;\n        restTokens -= 3.19554497407819 * (10**18);\n        _mint(0xF872Ea3e3BC2d9EFcb660dE497A6F1c50E4ad25D, 25.6350510199272 * (10**18));\n        _totalHodlersCount++;\n        _hodlerHodlTime[0xF872Ea3e3BC2d9EFcb660dE497A6F1c50E4ad25D] = time;\n        restTokens -= 25.6350510199272 * (10**18);\n        _mint(0xFB04D99d7024bef7047cF6a16c4e33F48e1C4981, 1.79070215317426 * (10**18));\n        _totalHodlersCount++;\n        _hodlerHodlTime[0xFB04D99d7024bef7047cF6a16c4e33F48e1C4981] = time;\n        restTokens -= 1.79070215317426 * (10**18);\n        _mint(0xFC04Ec649be75e2b9bFe15d49e385F65277103b4, 2.1958520537044 * (10**18));\n        _totalHodlersCount++;\n        _hodlerHodlTime[0xFC04Ec649be75e2b9bFe15d49e385F65277103b4] = time;\n        restTokens -= 2.1958520537044 * (10**18);\n        _mint(0xFfe10BE9b63A4005DD1e631eE6fca3f6D6024269, 3.52247792997366 * (10**18));\n        _totalHodlersCount++;\n        _hodlerHodlTime[0xFfe10BE9b63A4005DD1e631eE6fca3f6D6024269] = time;\n        restTokens -= 3.52247792997366 * (10**18);\n\n        _holdersSupply = maxSupply - restTokens;\n        _mint(msg.sender, restTokens);\n    }\n\n    function getOwner() public view returns (address) {\n        return owner;\n    }\n\n    function setOwner(address _address) public _onlyOwner {\n        owner = _address;\n    }\n\n    function isSenderException(address _address) public view returns (bool) {\n        return senderExceptions[_address].exists;\n    }\n\n    function addSenderException(address _address) public _onlyOwner returns (bool) {\n        require(!isSenderException(_address), \"JustHodl: address is already present in the sender exceptions list\");\n        senderExceptions[_address] = Addr(_address, true);\n        return true;\n    }\n\n    function removeSenderException(address _address) public _onlyOwner returns (bool) {\n        require(isSenderException(_address), \"JustHodl: address is not present in the sender exceptions list\");\n        delete senderExceptions[_address];\n        return true;\n    }\n\n    function isRecipientException(address _address) public view returns (bool) {\n        return recipientExceptions[_address].exists;\n    }\n\n    function addRecipientException(address _address) public _onlyOwner returns (bool) {\n        require(!isRecipientException(_address), \"JustHodl: address is already present in the recipient exceptions list\");\n        recipientExceptions[_address] = Addr(_address, true);\n        return true;\n    }\n\n    function removeRecipientException(address _address) public _onlyOwner returns (bool) {\n        require(isRecipientException(_address), \"JustHodl: address is not present in the recipient exceptions list\");\n        delete recipientExceptions[_address];\n        return true;\n    }\n\n    function isWhitelistedSender(address _address) public view returns (bool) {\n        return whitelistedSenders[msg.sender][_address].exists;\n    }\n\n    function addWhitelistedSender(address _address) public returns (bool) {\n        require(!isWhitelistedSender(_address), \"JustHodl: address is already present in the whitelist\");\n        whitelistedSenders[msg.sender][_address] = Addr(_address, true);\n        return true;\n    }\n\n    function removeWhitelistedSender(address _address) public returns (bool) {\n        require(isWhitelistedSender(_address), \"JustHodl: address is not present in the whitelist\");\n        delete whitelistedSenders[msg.sender][_address];\n        return true;\n    }\n\n    function transfer(address _to, uint256 _value) public override returns (bool) {\n        bool isFromHodler = _isValidHodler(msg.sender);\n        bool isToHodler = _isValidHodler(_to);\n        if (_allowedToSend(msg.sender, _to)) {\n            uint256 penalty = 0;\n            uint256 finalValue = _value;\n            uint256 pureFromBalanceBeforeThx = pureBalanceOf(msg.sender);\n            uint256 pureToBalanceBeforeThx = pureBalanceOf(_to);\n            if (isFromHodler && !hodlMinimumAchived(msg.sender)) {\n                penalty = _value.mul(penaltyRatio).div(100);\n                finalValue = _value.sub(penalty);\n            }\n            if (super.transfer(_to, finalValue)) {\n                if (penalty > 0) {\n                    _balances[msg.sender] = _balances[msg.sender].sub(penalty);\n                }\n                _updateTimer(msg.sender, _to, isFromHodler, isToHodler);\n                _updateHodlersCount(msg.sender, isFromHodler, isToHodler, pureToBalanceBeforeThx);\n                _updateBonusSupply(_value, penalty, pureFromBalanceBeforeThx);\n                _updateHoldersSupply(isFromHodler, isToHodler, finalValue, penalty, pureFromBalanceBeforeThx);\n                _updateAllowedSender(msg.sender, _to);\n                return true;\n            }\n        }\n        return false;\n    }\n\n    function transferFrom(address _from, address _to, uint256 _value) public override returns (bool) {\n        bool isFromHodler = _isValidHodler(_from);\n        bool isToHodler = _isValidHodler(_to);\n        if (_allowedToSend(_from, _to)) {\n            uint256 penalty = 0;\n            uint256 finalValue = _value;\n            uint256 pureFromBalanceBeforeThx = pureBalanceOf(_from);\n            uint256 pureToBalanceBeforeThx = pureBalanceOf(_to);\n            if (isFromHodler && !hodlMinimumAchived(_from)) {\n                penalty = _value.mul(penaltyRatio).div(100);\n                finalValue = _value.sub(penalty);\n            }\n            if (super.transferFrom(_from, _to, finalValue)) {\n                if (penalty > 0) {\n                    _balances[_from] = _balances[_from].sub(penalty);\n                }\n                _updateTimer(_from, _to, isFromHodler, isToHodler);\n                _updateHodlersCount(_from, isFromHodler, isToHodler, pureToBalanceBeforeThx);\n                _updateBonusSupply(_value, penalty, pureFromBalanceBeforeThx);\n                _updateHoldersSupply(isFromHodler, isToHodler, finalValue, penalty, pureFromBalanceBeforeThx);\n                _updateAllowedSender(_from, _to);\n                return true;\n            }\n        }\n        return false;\n    }\n\n    function _allowedToSend(address _from, address _to) private view returns (bool) {\n        require (\n            _from == owner ||\n            _isContract(_to) ||\n            isSenderException(_from) ||\n            isRecipientException(_to) ||\n            whitelistedSenders[_to][_from].exists,\n            \"JustHodl: you are not allowed to send tokens to that address\"\n        );\n        return true;\n    }\n\n    function _updateAllowedSender(address _from, address _to) private {\n        if (!whitelistedSenders[_from][_to].exists) {\n            whitelistedSenders[_from][_to] = Addr(_to, true);\n        }\n    }\n\n    function _updateTimer(address _from, address _to, bool _isFromHodler, bool _isToHodler) private {\n        if (_isFromHodler && _balances[_from] == 0) {\n            _totalHodlSinceLastBuy = _totalHodlSinceLastBuy.sub(_hodlerHodlTime[_from]);\n            _hodlerHodlTime[_from] = 0;\n        }\n        if (_isToHodler) {\n            uint256 oldLastBuy = _hodlerHodlTime[_to];\n            uint256 newLastBuy = now;\n            _totalHodlSinceLastBuy = _totalHodlSinceLastBuy.add(newLastBuy).sub(oldLastBuy);\n            _hodlerHodlTime[_to] = newLastBuy;\n        }\n    }\n\n    function _updateHodlersCount(address _from, bool _isFromHodler, bool _isToHodler, uint256 _pureToBalanceBeforeThx) private {\n        if (_isFromHodler && _balances[_from] == 0) {\n            _totalHodlersCount--;\n        }\n        if (_isToHodler && _pureToBalanceBeforeThx == 0) {\n            _totalHodlersCount++;\n        }\n    }\n\n    function _updateBonusSupply(uint256 _value, uint256 _penalty, uint256 _pureFromBalanceBeforeThx) private {\n        if (_value > _pureFromBalanceBeforeThx) {\n            uint256 spentBonus = _value.sub(_pureFromBalanceBeforeThx);\n            _bonusSupply = _bonusSupply.sub(spentBonus).add(_penalty);\n        } else {\n            _bonusSupply = _bonusSupply.add(_penalty);\n        }\n    }\n\n    function _updateHoldersSupply(bool _isFromHodler, bool _isToHodler, uint256 _value, uint256 _penalty, uint256 _pureFromBalanceBeforeThx) private {\n        uint256 finalValue = _holdersSupply;\n        uint256 subValue = _value;\n        if (_value > _pureFromBalanceBeforeThx) {\n            subValue = _pureFromBalanceBeforeThx;\n        }\n        if (_isFromHodler) {\n            finalValue = finalValue.sub(subValue).sub(_penalty);\n        }\n        if (_isToHodler) {\n            finalValue = finalValue.add(_value);\n        }\n        _holdersSupply = finalValue;\n    }\n\n    function _isValidHodler(address _address) private view returns (bool) {\n        return !_isContract(_address) && _address != owner;\n    }\n\n    function _isContract(address _address) private view returns (bool) {\n        uint256 size;\n        assembly { size := extcodesize(_address) }\n        return size > 0;\n    }\n}\n",
  "sourcePath": "/home/minato/projects/crypto/project-hodler/contracts/JustHodl.sol",
  "compiler": {
    "name": "solc",
    "version": "0.6.6+commit.6c089d02.Emscripten.clang"
  },
  "schemaVersion": "3.3.1",
  "updatedAt": "2020-11-08T14:05:37.845Z",
  "networkType": "ethereum",
  "devdoc": {
    "methods": {}
  },
  "userdoc": {
    "methods": {}
  }
}