{
  "contractName": "JustHodl",
  "abi": [
    {
      "inputs": [],
      "stateMutability": "payable",
      "type": "constructor",
      "payable": true
    },
    {
      "anonymous": false,
      "inputs": [
        {
          "indexed": true,
          "internalType": "address",
          "name": "owner",
          "type": "address"
        },
        {
          "indexed": true,
          "internalType": "address",
          "name": "spender",
          "type": "address"
        },
        {
          "indexed": false,
          "internalType": "uint256",
          "name": "value",
          "type": "uint256"
        }
      ],
      "name": "Approval",
      "type": "event"
    },
    {
      "anonymous": false,
      "inputs": [
        {
          "indexed": true,
          "internalType": "address",
          "name": "from",
          "type": "address"
        },
        {
          "indexed": true,
          "internalType": "address",
          "name": "to",
          "type": "address"
        },
        {
          "indexed": false,
          "internalType": "uint256",
          "name": "value",
          "type": "uint256"
        }
      ],
      "name": "Transfer",
      "type": "event"
    },
    {
      "inputs": [
        {
          "internalType": "address",
          "name": "owner",
          "type": "address"
        },
        {
          "internalType": "address",
          "name": "spender",
          "type": "address"
        }
      ],
      "name": "allowance",
      "outputs": [
        {
          "internalType": "uint256",
          "name": "",
          "type": "uint256"
        }
      ],
      "stateMutability": "view",
      "type": "function",
      "constant": true
    },
    {
      "inputs": [
        {
          "internalType": "address",
          "name": "spender",
          "type": "address"
        },
        {
          "internalType": "uint256",
          "name": "amount",
          "type": "uint256"
        }
      ],
      "name": "approve",
      "outputs": [
        {
          "internalType": "bool",
          "name": "",
          "type": "bool"
        }
      ],
      "stateMutability": "nonpayable",
      "type": "function"
    },
    {
      "inputs": [
        {
          "internalType": "address",
          "name": "account",
          "type": "address"
        }
      ],
      "name": "balanceOf",
      "outputs": [
        {
          "internalType": "uint256",
          "name": "",
          "type": "uint256"
        }
      ],
      "stateMutability": "view",
      "type": "function",
      "constant": true
    },
    {
      "inputs": [],
      "name": "decimals",
      "outputs": [
        {
          "internalType": "uint8",
          "name": "",
          "type": "uint8"
        }
      ],
      "stateMutability": "view",
      "type": "function",
      "constant": true
    },
    {
      "inputs": [
        {
          "internalType": "address",
          "name": "spender",
          "type": "address"
        },
        {
          "internalType": "uint256",
          "name": "subtractedValue",
          "type": "uint256"
        }
      ],
      "name": "decreaseAllowance",
      "outputs": [
        {
          "internalType": "bool",
          "name": "",
          "type": "bool"
        }
      ],
      "stateMutability": "nonpayable",
      "type": "function"
    },
    {
      "inputs": [
        {
          "internalType": "address",
          "name": "spender",
          "type": "address"
        },
        {
          "internalType": "uint256",
          "name": "addedValue",
          "type": "uint256"
        }
      ],
      "name": "increaseAllowance",
      "outputs": [
        {
          "internalType": "bool",
          "name": "",
          "type": "bool"
        }
      ],
      "stateMutability": "nonpayable",
      "type": "function"
    },
    {
      "inputs": [],
      "name": "name",
      "outputs": [
        {
          "internalType": "string",
          "name": "",
          "type": "string"
        }
      ],
      "stateMutability": "view",
      "type": "function",
      "constant": true
    },
    {
      "inputs": [],
      "name": "symbol",
      "outputs": [
        {
          "internalType": "string",
          "name": "",
          "type": "string"
        }
      ],
      "stateMutability": "view",
      "type": "function",
      "constant": true
    },
    {
      "inputs": [],
      "name": "totalSupply",
      "outputs": [
        {
          "internalType": "uint256",
          "name": "",
          "type": "uint256"
        }
      ],
      "stateMutability": "view",
      "type": "function",
      "constant": true
    },
    {
      "inputs": [],
      "name": "getOwner",
      "outputs": [
        {
          "internalType": "address",
          "name": "",
          "type": "address"
        }
      ],
      "stateMutability": "view",
      "type": "function",
      "constant": true
    },
    {
      "inputs": [
        {
          "internalType": "address",
          "name": "_address",
          "type": "address"
        }
      ],
      "name": "setOwner",
      "outputs": [],
      "stateMutability": "nonpayable",
      "type": "function"
    },
    {
      "inputs": [
        {
          "internalType": "address",
          "name": "_address",
          "type": "address"
        }
      ],
      "name": "isPenaltyException",
      "outputs": [
        {
          "internalType": "bool",
          "name": "",
          "type": "bool"
        }
      ],
      "stateMutability": "view",
      "type": "function",
      "constant": true
    },
    {
      "inputs": [
        {
          "internalType": "address",
          "name": "_address",
          "type": "address"
        }
      ],
      "name": "addPenaltyException",
      "outputs": [
        {
          "internalType": "bool",
          "name": "",
          "type": "bool"
        }
      ],
      "stateMutability": "nonpayable",
      "type": "function"
    },
    {
      "inputs": [
        {
          "internalType": "address",
          "name": "_address",
          "type": "address"
        }
      ],
      "name": "removePenaltyException",
      "outputs": [
        {
          "internalType": "bool",
          "name": "",
          "type": "bool"
        }
      ],
      "stateMutability": "nonpayable",
      "type": "function"
    },
    {
      "inputs": [
        {
          "internalType": "address",
          "name": "_to",
          "type": "address"
        },
        {
          "internalType": "uint256",
          "name": "_value",
          "type": "uint256"
        }
      ],
      "name": "transfer",
      "outputs": [
        {
          "internalType": "bool",
          "name": "",
          "type": "bool"
        }
      ],
      "stateMutability": "nonpayable",
      "type": "function"
    },
    {
      "inputs": [
        {
          "internalType": "address",
          "name": "_from",
          "type": "address"
        },
        {
          "internalType": "address",
          "name": "_to",
          "type": "address"
        },
        {
          "internalType": "uint256",
          "name": "_value",
          "type": "uint256"
        }
      ],
      "name": "transferFrom",
      "outputs": [
        {
          "internalType": "bool",
          "name": "",
          "type": "bool"
        }
      ],
      "stateMutability": "nonpayable",
      "type": "function"
    }
  ],
  "bytecode": "0x608060405260016006556000600755683635c9adc5dea000006008556040518060400160405280600881526020017f4a757374486f646c0000000000000000000000000000000000000000000000008152506040518060400160405280600581526020017f6a484f444c00000000000000000000000000000000000000000000000000000081525081600390805190602001906200009f92919062000426565b508060049080519060200190620000b892919062000426565b506012600560006101000a81548160ff021916908360ff160217905550505033600560016101000a81548173ffffffffffffffffffffffffffffffffffffffff021916908373ffffffffffffffffffffffffffffffffffffffff1602179055506200012c33600854620001ba60201b60201c565b600560019054906101000a900473ffffffffffffffffffffffffffffffffffffffff1660096000600754815260200190815260200160002060006101000a81548173ffffffffffffffffffffffffffffffffffffffff021916908373ffffffffffffffffffffffffffffffffffffffff160217905550600760008154809291906001019190505550620004d5565b600073ffffffffffffffffffffffffffffffffffffffff168273ffffffffffffffffffffffffffffffffffffffff1614156200025e576040517f08c379a000000000000000000000000000000000000000000000000000000000815260040180806020018281038252601f8152602001807f45524332303a206d696e7420746f20746865207a65726f20616464726573730081525060200191505060405180910390fd5b62000272600083836200039860201b60201c565b6200028e816002546200039d60201b620017741790919060201c565b600281905550620002ec816000808573ffffffffffffffffffffffffffffffffffffffff1673ffffffffffffffffffffffffffffffffffffffff168152602001908152602001600020546200039d60201b620017741790919060201c565b6000808473ffffffffffffffffffffffffffffffffffffffff1673ffffffffffffffffffffffffffffffffffffffff168152602001908152602001600020819055508173ffffffffffffffffffffffffffffffffffffffff16600073ffffffffffffffffffffffffffffffffffffffff167fddf252ad1be2c89b69c2b068fc378daa952ba7f163c4a11628f55a4df523b3ef836040518082815260200191505060405180910390a35050565b505050565b6000808284019050838110156200041c576040517f08c379a000000000000000000000000000000000000000000000000000000000815260040180806020018281038252601b8152602001807f536166654d6174683a206164646974696f6e206f766572666c6f77000000000081525060200191505060405180910390fd5b8091505092915050565b828054600181600116156101000203166002900490600052602060002090601f016020900481019282601f106200046957805160ff19168380011785556200049a565b828001600101855582156200049a579182015b82811115620004995782518255916020019190600101906200047c565b5b509050620004a99190620004ad565b5090565b620004d291905b80821115620004ce576000816000905550600101620004b4565b5090565b90565b61234780620004e56000396000f3fe608060405234801561001057600080fd5b50600436106101005760003560e01c806370a082311161009757806395d89b411161006657806395d89b4114610516578063a457c2d714610599578063a9059cbb146105ff578063dd62ed3e1461066557610100565b806370a08231146103bc578063885ec8ee14610414578063893d20e81461047057806394604e66146104ba57610100565b806318160ddd116100d357806318160ddd1461028e57806323b872dd146102ac578063313ce56714610332578063395093511461035657610100565b806306fdde0314610105578063095ea7b31461018857806313af4035146101ee57806313bc94ca14610232575b600080fd5b61010d6106dd565b6040518080602001828103825283818151815260200191508051906020019080838360005b8381101561014d578082015181840152602081019050610132565b50505050905090810190601f16801561017a5780820380516001836020036101000a031916815260200191505b509250505060405180910390f35b6101d46004803603604081101561019e57600080fd5b81019080803573ffffffffffffffffffffffffffffffffffffffff1690602001909291908035906020019092919050505061077f565b604051808215151515815260200191505060405180910390f35b6102306004803603602081101561020457600080fd5b81019080803573ffffffffffffffffffffffffffffffffffffffff16906020019092919050505061079d565b005b6102746004803603602081101561024857600080fd5b81019080803573ffffffffffffffffffffffffffffffffffffffff16906020019092919050505061083b565b604051808215151515815260200191505060405180910390f35b61029661097b565b6040518082815260200191505060405180910390f35b610318600480360360608110156102c257600080fd5b81019080803573ffffffffffffffffffffffffffffffffffffffff169060200190929190803573ffffffffffffffffffffffffffffffffffffffff16906020019092919080359060200190929190505050610985565b604051808215151515815260200191505060405180910390f35b61033a610a41565b604051808260ff1660ff16815260200191505060405180910390f35b6103a26004803603604081101561036c57600080fd5b81019080803573ffffffffffffffffffffffffffffffffffffffff16906020019092919080359060200190929190505050610a58565b604051808215151515815260200191505060405180910390f35b6103fe600480360360208110156103d257600080fd5b81019080803573ffffffffffffffffffffffffffffffffffffffff169060200190929190505050610b0b565b6040518082815260200191505060405180910390f35b6104566004803603602081101561042a57600080fd5b81019080803573ffffffffffffffffffffffffffffffffffffffff169060200190929190505050610b53565b604051808215151515815260200191505060405180910390f35b610478610cee565b604051808273ffffffffffffffffffffffffffffffffffffffff1673ffffffffffffffffffffffffffffffffffffffff16815260200191505060405180910390f35b6104fc600480360360208110156104d057600080fd5b81019080803573ffffffffffffffffffffffffffffffffffffffff169060200190929190505050610d18565b604051808215151515815260200191505060405180910390f35b61051e610d71565b6040518080602001828103825283818151815260200191508051906020019080838360005b8381101561055e578082015181840152602081019050610543565b50505050905090810190601f16801561058b5780820380516001836020036101000a031916815260200191505b509250505060405180910390f35b6105e5600480360360408110156105af57600080fd5b81019080803573ffffffffffffffffffffffffffffffffffffffff16906020019092919080359060200190929190505050610e13565b604051808215151515815260200191505060405180910390f35b61064b6004803603604081101561061557600080fd5b81019080803573ffffffffffffffffffffffffffffffffffffffff16906020019092919080359060200190929190505050610ee0565b604051808215151515815260200191505060405180910390f35b6106c76004803603604081101561067b57600080fd5b81019080803573ffffffffffffffffffffffffffffffffffffffff169060200190929190803573ffffffffffffffffffffffffffffffffffffffff169060200190929190505050610f99565b6040518082815260200191505060405180910390f35b606060038054600181600116156101000203166002900480601f0160208091040260200160405190810160405280929190818152602001828054600181600116156101000203166002900480156107755780601f1061074a57610100808354040283529160200191610775565b820191906000526020600020905b81548152906001019060200180831161075857829003601f168201915b5050505050905090565b600061079361078c611020565b8484611028565b6001905092915050565b600560019054906101000a900473ffffffffffffffffffffffffffffffffffffffff1673ffffffffffffffffffffffffffffffffffffffff163373ffffffffffffffffffffffffffffffffffffffff16146107f757600080fd5b80600560016101000a81548173ffffffffffffffffffffffffffffffffffffffff021916908373ffffffffffffffffffffffffffffffffffffffff16021790555050565b6000600560019054906101000a900473ffffffffffffffffffffffffffffffffffffffff1673ffffffffffffffffffffffffffffffffffffffff163373ffffffffffffffffffffffffffffffffffffffff161461089757600080fd5b6108a082610d18565b6108f5576040517f08c379a000000000000000000000000000000000000000000000000000000000815260040180806020018281038252603f815260200180612169603f913960400191505060405180910390fd5b600b60008373ffffffffffffffffffffffffffffffffffffffff1673ffffffffffffffffffffffffffffffffffffffff168152602001908152602001600020600080820160006101000a81549073ffffffffffffffffffffffffffffffffffffffff02191690556000820160146101000a81549060ff0219169055505060019050919050565b6000600254905090565b600061099084610d18565b806109a0575061099f83610d18565b5b156109b7576109b084848461121f565b9050610a3a565b60006109e160646109d3600654866112f890919063ffffffff16565b61137e90919063ffffffff16565b905060006109f882856113c890919063ffffffff16565b9050610a0586868361121f565b15610a3357610a148683611412565b610a1d85611474565b610a28868684611613565b600192505050610a3a565b6000925050505b9392505050565b6000600560009054906101000a900460ff16905090565b6000610b01610a65611020565b84610afc8560016000610a76611020565b73ffffffffffffffffffffffffffffffffffffffff1673ffffffffffffffffffffffffffffffffffffffff16815260200190815260200160002060008973ffffffffffffffffffffffffffffffffffffffff1673ffffffffffffffffffffffffffffffffffffffff1681526020019081526020016000205461177490919063ffffffff16565b611028565b6001905092915050565b60008060008373ffffffffffffffffffffffffffffffffffffffff1673ffffffffffffffffffffffffffffffffffffffff168152602001908152602001600020549050919050565b6000600560019054906101000a900473ffffffffffffffffffffffffffffffffffffffff1673ffffffffffffffffffffffffffffffffffffffff163373ffffffffffffffffffffffffffffffffffffffff1614610baf57600080fd5b610bb882610d18565b15610c0e576040517f08c379a00000000000000000000000000000000000000000000000000000000081526004018080602001828103825260438152602001806121cc6043913960600191505060405180910390fd5b60405180604001604052808373ffffffffffffffffffffffffffffffffffffffff16815260200160011515815250600b60008473ffffffffffffffffffffffffffffffffffffffff1673ffffffffffffffffffffffffffffffffffffffff16815260200190815260200160002060008201518160000160006101000a81548173ffffffffffffffffffffffffffffffffffffffff021916908373ffffffffffffffffffffffffffffffffffffffff16021790555060208201518160000160146101000a81548160ff02191690831515021790555090505060019050919050565b6000600560019054906101000a900473ffffffffffffffffffffffffffffffffffffffff16905090565b6000600b60008373ffffffffffffffffffffffffffffffffffffffff1673ffffffffffffffffffffffffffffffffffffffff16815260200190815260200160002060000160149054906101000a900460ff169050919050565b606060048054600181600116156101000203166002900480601f016020809104026020016040519081016040528092919081815260200182805460018160011615610100020316600290048015610e095780601f10610dde57610100808354040283529160200191610e09565b820191906000526020600020905b815481529060010190602001808311610dec57829003601f168201915b5050505050905090565b6000610ed6610e20611020565b84610ed1856040518060600160405280602581526020016122ed6025913960016000610e4a611020565b73ffffffffffffffffffffffffffffffffffffffff1673ffffffffffffffffffffffffffffffffffffffff16815260200190815260200160002060008a73ffffffffffffffffffffffffffffffffffffffff1673ffffffffffffffffffffffffffffffffffffffff168152602001908152602001600020546117fc9092919063ffffffff16565b611028565b6001905092915050565b6000610eeb33610d18565b80610efb5750610efa83610d18565b5b15610f1157610f0a83836118bc565b9050610f93565b6000610f3b6064610f2d600654866112f890919063ffffffff16565b61137e90919063ffffffff16565b90506000610f5282856113c890919063ffffffff16565b9050610f5e85826118bc565b15610f8c57610f6d33836118da565b610f7685611474565b610f81338684611613565b600192505050610f93565b6000925050505b92915050565b6000600160008473ffffffffffffffffffffffffffffffffffffffff1673ffffffffffffffffffffffffffffffffffffffff16815260200190815260200160002060008373ffffffffffffffffffffffffffffffffffffffff1673ffffffffffffffffffffffffffffffffffffffff16815260200190815260200160002054905092915050565b600033905090565b600073ffffffffffffffffffffffffffffffffffffffff168373ffffffffffffffffffffffffffffffffffffffff1614156110ae576040517f08c379a00000000000000000000000000000000000000000000000000000000081526004018080602001828103825260248152602001806122a46024913960400191505060405180910390fd5b600073ffffffffffffffffffffffffffffffffffffffff168273ffffffffffffffffffffffffffffffffffffffff161415611134576040517f08c379a00000000000000000000000000000000000000000000000000000000081526004018080602001828103825260228152602001806121216022913960400191505060405180910390fd5b80600160008573ffffffffffffffffffffffffffffffffffffffff1673ffffffffffffffffffffffffffffffffffffffff16815260200190815260200160002060008473ffffffffffffffffffffffffffffffffffffffff1673ffffffffffffffffffffffffffffffffffffffff168152602001908152602001600020819055508173ffffffffffffffffffffffffffffffffffffffff168373ffffffffffffffffffffffffffffffffffffffff167f8c5be1e5ebec7d5bd14f71427d1e84f3dd0314c0f7b2291e5b200ac8c7c3b925836040518082815260200191505060405180910390a3505050565b600061122c848484611a1d565b6112ed84611238611020565b6112e88560405180606001604052806028815260200161225760289139600160008b73ffffffffffffffffffffffffffffffffffffffff1673ffffffffffffffffffffffffffffffffffffffff168152602001908152602001600020600061129e611020565b73ffffffffffffffffffffffffffffffffffffffff1673ffffffffffffffffffffffffffffffffffffffff168152602001908152602001600020546117fc9092919063ffffffff16565b611028565b600190509392505050565b60008083141561130b5760009050611378565b600082840290508284828161131c57fe5b0414611373576040517f08c379a00000000000000000000000000000000000000000000000000000000081526004018080602001828103825260218152602001806122366021913960400191505060405180910390fd5b809150505b92915050565b60006113c083836040518060400160405280601a81526020017f536166654d6174683a206469766973696f6e206279207a65726f000000000000815250611cde565b905092915050565b600061140a83836040518060400160405280601e81526020017f536166654d6174683a207375627472616374696f6e206f766572666c6f7700008152506117fc565b905092915050565b60006114518260405180606001604052806027815260200161220f602791396114428661143d611020565b610f99565b6117fc9092919063ffffffff16565b90506114658361145f611020565b83611028565b61146f83836118da565b505050565b600a60008273ffffffffffffffffffffffffffffffffffffffff1673ffffffffffffffffffffffffffffffffffffffff16815260200190815260200160002060000160149054906101000a900460ff16611610578060096000600754815260200190815260200160002060006101000a81548173ffffffffffffffffffffffffffffffffffffffff021916908373ffffffffffffffffffffffffffffffffffffffff16021790555060405180604001604052808273ffffffffffffffffffffffffffffffffffffffff16815260200160011515815250600a60008373ffffffffffffffffffffffffffffffffffffffff1673ffffffffffffffffffffffffffffffffffffffff16815260200190815260200160002060008201518160000160006101000a81548173ffffffffffffffffffffffffffffffffffffffff021916908373ffffffffffffffffffffffffffffffffffffffff16021790555060208201518160000160146101000a81548160ff021916908315150217905550905050611609600160075461177490919063ffffffff16565b6007819055505b50565b600080905060008090505b60075481101561169c5760006009600083815260200190815260200160002060009054906101000a900473ffffffffffffffffffffffffffffffffffffffff16905061166b818787611da4565b1561168e5761168b61167c82610b0b565b8461177490919063ffffffff16565b92505b50808060010191505061161e565b5060008090505b60075481101561176d5760006009600083815260200190815260200160002060009054906101000a900473ffffffffffffffffffffffffffffffffffffffff1690506116f0818787611da4565b1561175f57600061170082610b0b565b9050600081111561175d5761175c600560019054906101000a900473ffffffffffffffffffffffffffffffffffffffff168361175787611749868b6112f890919063ffffffff16565b61137e90919063ffffffff16565b611e83565b5b505b5080806001019150506116a3565b5050505050565b6000808284019050838110156117f2576040517f08c379a000000000000000000000000000000000000000000000000000000000815260040180806020018281038252601b8152602001807f536166654d6174683a206164646974696f6e206f766572666c6f77000000000081525060200191505060405180910390fd5b8091505092915050565b60008383111582906118a9576040517f08c379a00000000000000000000000000000000000000000000000000000000081526004018080602001828103825283818151815260200191508051906020019080838360005b8381101561186e578082015181840152602081019050611853565b50505050905090810190601f16801561189b5780820380516001836020036101000a031916815260200191505b509250505060405180910390fd5b5060008385039050809150509392505050565b60006118d06118c9611020565b8484611a1d565b6001905092915050565b600073ffffffffffffffffffffffffffffffffffffffff168273ffffffffffffffffffffffffffffffffffffffff161415611960576040517f08c379a00000000000000000000000000000000000000000000000000000000081526004018080602001828103825260248152602001806121a86024913960400191505060405180910390fd5b61196c826000836120df565b6119d7816040518060600160405280602581526020016122c8602591396000808673ffffffffffffffffffffffffffffffffffffffff1673ffffffffffffffffffffffffffffffffffffffff168152602001908152602001600020546117fc9092919063ffffffff16565b6000808473ffffffffffffffffffffffffffffffffffffffff1673ffffffffffffffffffffffffffffffffffffffff168152602001908152602001600020819055505050565b600073ffffffffffffffffffffffffffffffffffffffff168373ffffffffffffffffffffffffffffffffffffffff161415611aa3576040517f08c379a000000000000000000000000000000000000000000000000000000000815260040180806020018281038252602581526020018061227f6025913960400191505060405180910390fd5b600073ffffffffffffffffffffffffffffffffffffffff168273ffffffffffffffffffffffffffffffffffffffff161415611b29576040517f08c379a00000000000000000000000000000000000000000000000000000000081526004018080602001828103825260238152602001806120fe6023913960400191505060405180910390fd5b611b348383836120df565b611b9f81604051806060016040528060268152602001612143602691396000808773ffffffffffffffffffffffffffffffffffffffff1673ffffffffffffffffffffffffffffffffffffffff168152602001908152602001600020546117fc9092919063ffffffff16565b6000808573ffffffffffffffffffffffffffffffffffffffff1673ffffffffffffffffffffffffffffffffffffffff16815260200190815260200160002081905550611c32816000808573ffffffffffffffffffffffffffffffffffffffff1673ffffffffffffffffffffffffffffffffffffffff1681526020019081526020016000205461177490919063ffffffff16565b6000808473ffffffffffffffffffffffffffffffffffffffff1673ffffffffffffffffffffffffffffffffffffffff168152602001908152602001600020819055508173ffffffffffffffffffffffffffffffffffffffff168373ffffffffffffffffffffffffffffffffffffffff167fddf252ad1be2c89b69c2b068fc378daa952ba7f163c4a11628f55a4df523b3ef836040518082815260200191505060405180910390a3505050565b60008083118290611d8a576040517f08c379a00000000000000000000000000000000000000000000000000000000081526004018080602001828103825283818151815260200191508051906020019080838360005b83811015611d4f578082015181840152602081019050611d34565b50505050905090810190601f168015611d7c5780820380516001836020036101000a031916815260200191505b509250505060405180910390fd5b506000838581611d9657fe5b049050809150509392505050565b6000611daf846120e4565b158015611e0a5750600560019054906101000a900473ffffffffffffffffffffffffffffffffffffffff1673ffffffffffffffffffffffffffffffffffffffff168473ffffffffffffffffffffffffffffffffffffffff1614155b8015611e4257508273ffffffffffffffffffffffffffffffffffffffff168473ffffffffffffffffffffffffffffffffffffffff1614155b8015611e7a57508173ffffffffffffffffffffffffffffffffffffffff168473ffffffffffffffffffffffffffffffffffffffff1614155b90509392505050565b600073ffffffffffffffffffffffffffffffffffffffff168373ffffffffffffffffffffffffffffffffffffffff161415611f09576040517f08c379a000000000000000000000000000000000000000000000000000000000815260040180806020018281038252602581526020018061227f6025913960400191505060405180910390fd5b600073ffffffffffffffffffffffffffffffffffffffff168273ffffffffffffffffffffffffffffffffffffffff161415611f8f576040517f08c379a00000000000000000000000000000000000000000000000000000000081526004018080602001828103825260238152602001806120fe6023913960400191505060405180910390fd5b611f9a8383836120df565b61200581604051806060016040528060268152602001612143602691396000808773ffffffffffffffffffffffffffffffffffffffff1673ffffffffffffffffffffffffffffffffffffffff168152602001908152602001600020546117fc9092919063ffffffff16565b6000808573ffffffffffffffffffffffffffffffffffffffff1673ffffffffffffffffffffffffffffffffffffffff16815260200190815260200160002081905550612098816000808573ffffffffffffffffffffffffffffffffffffffff1673ffffffffffffffffffffffffffffffffffffffff1681526020019081526020016000205461177490919063ffffffff16565b6000808473ffffffffffffffffffffffffffffffffffffffff1673ffffffffffffffffffffffffffffffffffffffff16815260200190815260200160002081905550505050565b505050565b600080823b905060008163ffffffff161191505091905056fe45524332303a207472616e7366657220746f20746865207a65726f206164647265737345524332303a20617070726f766520746f20746865207a65726f206164647265737345524332303a207472616e7366657220616d6f756e7420657863656564732062616c616e63654a757374486f646c3a2061646472657373206973206e6f742070726573656e7420696e207468652070656e616c747920657863657074696f6e73206c69737445524332303a2070656e616c74792066726f6d20746865207a65726f20616464726573734a757374486f646c3a206164647265737320697320616c72656164792070726573656e7420696e207468652070656e616c747920657863657074696f6e73206c69737445524332303a2070656e616c747920616d6f756e74206578636565647320616c6c6f77616e6365536166654d6174683a206d756c7469706c69636174696f6e206f766572666c6f7745524332303a207472616e7366657220616d6f756e74206578636565647320616c6c6f77616e636545524332303a207472616e736665722066726f6d20746865207a65726f206164647265737345524332303a20617070726f76652066726f6d20746865207a65726f206164647265737345524332303a2070656e616c747920616d6f756e7420657863656564732062616c616e636545524332303a2064656372656173656420616c6c6f77616e63652062656c6f77207a65726fa2646970667358221220bfb9feb2ff856bd1dc9f6c9ae404463afa7bb29fac8f4f874c05b0acf1f951b664736f6c63430006060033",
  "immutableReferences": {},
  "source": "pragma solidity ^0.6.0;\n\nimport \"@openzeppelin/contracts/token/ERC20/ERC20.sol\";\nimport \"./JustHodlBase.sol\";\n\ncontract JustHodl is JustHodlBase {\n    address private owner;\n    uint256 private penaltyRatio = 1;\n    uint256 private totalHodlers = 0;\n    uint256 private maxSupply = 1000 * (10 ** 18);\n\n    struct Hodler {\n        address _address;\n        bool exists;\n    }\n\n    mapping(uint256 => address) private hodlers;\n    mapping(address => Hodler) private addressToHodler;\n    mapping(address => Hodler) private penaltyExceptions;\n\n    modifier _onlyOwner() {\n        require(msg.sender == owner);\n        _;\n    }\n\n    constructor() public payable JustHodlBase(\"JustHodl\", \"jHODL\") {\n        owner = msg.sender;\n        _mint(msg.sender, maxSupply);\n        hodlers[totalHodlers] = owner;\n        totalHodlers++;\n    }\n\n    function getOwner() public view returns (address) {\n        return owner;\n    }\n\n    function setOwner(address _address) public _onlyOwner {\n        owner = _address;\n    }\n\n    function isPenaltyException(address _address) public view returns (bool) {\n        return penaltyExceptions[_address].exists;\n    }\n\n    function addPenaltyException(address _address) public _onlyOwner returns (bool) {\n        require(!isPenaltyException(_address), \"JustHodl: address is already present in the penalty exceptions list\");\n        penaltyExceptions[_address] = Hodler(_address, true);\n        return true;\n    }\n\n    function removePenaltyException(address _address) public _onlyOwner returns (bool) {\n        require(isPenaltyException(_address), \"JustHodl: address is not present in the penalty exceptions list\");\n        delete penaltyExceptions[_address];\n        return true;\n    }\n\n    function transfer(address _to, uint256 _value) public override returns (bool) {\n        if (isPenaltyException(msg.sender) || isPenaltyException(_to)) {\n            return super.transfer(_to, _value);\n        } else {\n            uint256 penalty = _value.mul(penaltyRatio).div(100);\n            uint256 finalValue = _value.sub(penalty);\n            if (super.transfer(_to, finalValue)) {\n                super._penalty(msg.sender, penalty);\n                _updateHodlers(_to);\n                _rewardHodlers(msg.sender, _to, penalty);\n                return true;\n            }\n            return false;\n        }\n    }\n\n    function transferFrom(address _from, address _to, uint256 _value) public override returns (bool) {\n        if (isPenaltyException(_from) || isPenaltyException(_to)) {\n            return super.transferFrom(_from, _to, _value);\n        } else {\n            uint256 penalty = _value.mul(penaltyRatio).div(100);\n            uint256 finalValue = _value.sub(penalty);\n            if (super.transferFrom(_from, _to, finalValue)) {\n                super._penaltyFrom(_from, penalty);\n                _updateHodlers(_to);\n                _rewardHodlers(_from, _to, penalty);\n                return true;\n            }\n            return false;\n        }\n    }\n\n    function _updateHodlers(address _to) private {\n        if (!addressToHodler[_to].exists) {\n            hodlers[totalHodlers] = _to;\n            addressToHodler[_to] = Hodler(_to, true);\n            totalHodlers = totalHodlers.add(1);\n        }\n    }\n\n    function _rewardHodlers(address _from, address _to, uint256 reward) private {\n        uint256 totalBalance = 0;\n        for(uint i = 0 ; i < totalHodlers; i++) {\n            address hodler = hodlers[i];\n            if (_isValidHodler(hodler, _from, _to)) {\n                totalBalance = totalBalance.add(balanceOf(hodler));\n            }\n        }\n\n        for(uint i = 0 ; i < totalHodlers; i++) {\n            address hodler = hodlers[i];\n            if (_isValidHodler(hodler, _from, _to)) {\n                uint256 balance = balanceOf(hodler);\n                if (balance > 0) {\n                    _softTransfer(owner, hodler, reward.mul(balance).div(totalBalance));\n                }\n            }\n        }\n    }\n\n    function _isValidHodler(address _hodler, address _from, address _to) private view returns (bool) {\n        return !_isContract(_hodler) && _hodler != owner && _hodler != _from && _hodler != _to;  \n    }\n\n    function _isContract(address _address) private view returns (bool) {\n        uint32 size;\n        assembly {\n            size := extcodesize(_address)\n        }\n        return (size > 0);\n    }\n}\n",
  "sourcePath": "/home/minato/projects/crypto/project-hodler/contracts/JustHodl.sol",
  "compiler": {
    "name": "solc",
    "version": "0.6.6+commit.6c089d02.Emscripten.clang"
  },
  "schemaVersion": "3.2.5",
  "updatedAt": "2020-10-11T13:12:10.690Z",
  "networkType": "ethereum",
  "devdoc": {
    "methods": {}
  },
  "userdoc": {
    "methods": {}
  }
}