{
  "contractName": "JustHodl",
  "abi": [
    {
      "inputs": [],
      "stateMutability": "payable",
      "type": "constructor"
    },
    {
      "anonymous": false,
      "inputs": [
        {
          "indexed": true,
          "internalType": "address",
          "name": "owner",
          "type": "address"
        },
        {
          "indexed": true,
          "internalType": "address",
          "name": "spender",
          "type": "address"
        },
        {
          "indexed": false,
          "internalType": "uint256",
          "name": "value",
          "type": "uint256"
        }
      ],
      "name": "Approval",
      "type": "event"
    },
    {
      "anonymous": false,
      "inputs": [
        {
          "indexed": true,
          "internalType": "address",
          "name": "from",
          "type": "address"
        },
        {
          "indexed": true,
          "internalType": "address",
          "name": "to",
          "type": "address"
        },
        {
          "indexed": false,
          "internalType": "uint256",
          "name": "value",
          "type": "uint256"
        }
      ],
      "name": "Transfer",
      "type": "event"
    },
    {
      "inputs": [
        {
          "internalType": "address",
          "name": "owner",
          "type": "address"
        },
        {
          "internalType": "address",
          "name": "spender",
          "type": "address"
        }
      ],
      "name": "allowance",
      "outputs": [
        {
          "internalType": "uint256",
          "name": "",
          "type": "uint256"
        }
      ],
      "stateMutability": "view",
      "type": "function"
    },
    {
      "inputs": [
        {
          "internalType": "address",
          "name": "spender",
          "type": "address"
        },
        {
          "internalType": "uint256",
          "name": "amount",
          "type": "uint256"
        }
      ],
      "name": "approve",
      "outputs": [
        {
          "internalType": "bool",
          "name": "",
          "type": "bool"
        }
      ],
      "stateMutability": "nonpayable",
      "type": "function"
    },
    {
      "inputs": [
        {
          "internalType": "address",
          "name": "account",
          "type": "address"
        }
      ],
      "name": "balanceOf",
      "outputs": [
        {
          "internalType": "uint256",
          "name": "",
          "type": "uint256"
        }
      ],
      "stateMutability": "view",
      "type": "function"
    },
    {
      "inputs": [],
      "name": "decimals",
      "outputs": [
        {
          "internalType": "uint8",
          "name": "",
          "type": "uint8"
        }
      ],
      "stateMutability": "view",
      "type": "function"
    },
    {
      "inputs": [
        {
          "internalType": "address",
          "name": "spender",
          "type": "address"
        },
        {
          "internalType": "uint256",
          "name": "subtractedValue",
          "type": "uint256"
        }
      ],
      "name": "decreaseAllowance",
      "outputs": [
        {
          "internalType": "bool",
          "name": "",
          "type": "bool"
        }
      ],
      "stateMutability": "nonpayable",
      "type": "function"
    },
    {
      "inputs": [
        {
          "internalType": "address",
          "name": "spender",
          "type": "address"
        },
        {
          "internalType": "uint256",
          "name": "addedValue",
          "type": "uint256"
        }
      ],
      "name": "increaseAllowance",
      "outputs": [
        {
          "internalType": "bool",
          "name": "",
          "type": "bool"
        }
      ],
      "stateMutability": "nonpayable",
      "type": "function"
    },
    {
      "inputs": [],
      "name": "name",
      "outputs": [
        {
          "internalType": "string",
          "name": "",
          "type": "string"
        }
      ],
      "stateMutability": "view",
      "type": "function"
    },
    {
      "inputs": [],
      "name": "symbol",
      "outputs": [
        {
          "internalType": "string",
          "name": "",
          "type": "string"
        }
      ],
      "stateMutability": "view",
      "type": "function"
    },
    {
      "inputs": [],
      "name": "totalSupply",
      "outputs": [
        {
          "internalType": "uint256",
          "name": "",
          "type": "uint256"
        }
      ],
      "stateMutability": "view",
      "type": "function"
    },
    {
      "inputs": [
        {
          "internalType": "address",
          "name": "_address",
          "type": "address"
        }
      ],
      "name": "setOwner",
      "outputs": [],
      "stateMutability": "nonpayable",
      "type": "function"
    },
    {
      "inputs": [
        {
          "internalType": "address",
          "name": "_to",
          "type": "address"
        },
        {
          "internalType": "uint256",
          "name": "_value",
          "type": "uint256"
        }
      ],
      "name": "transfer",
      "outputs": [
        {
          "internalType": "bool",
          "name": "",
          "type": "bool"
        }
      ],
      "stateMutability": "nonpayable",
      "type": "function"
    },
    {
      "inputs": [
        {
          "internalType": "address",
          "name": "_from",
          "type": "address"
        },
        {
          "internalType": "address",
          "name": "_to",
          "type": "address"
        },
        {
          "internalType": "uint256",
          "name": "_value",
          "type": "uint256"
        }
      ],
      "name": "transferFrom",
      "outputs": [
        {
          "internalType": "bool",
          "name": "",
          "type": "bool"
        }
      ],
      "stateMutability": "nonpayable",
      "type": "function"
    },
    {
      "inputs": [
        {
          "internalType": "address",
          "name": "_address",
          "type": "address"
        }
      ],
      "name": "isContract",
      "outputs": [
        {
          "internalType": "bool",
          "name": "",
          "type": "bool"
        }
      ],
      "stateMutability": "view",
      "type": "function"
    }
  ],
  "bytecode": "0x608060405260016006556000600755683635c9adc5dea000006008556040518060400160405280600881526020017f4a757374486f646c0000000000000000000000000000000000000000000000008152506040518060400160405280600581526020017f6a484f444c00000000000000000000000000000000000000000000000000000081525081600390805190602001906200009f92919062000426565b508060049080519060200190620000b892919062000426565b506012600560006101000a81548160ff021916908360ff160217905550505033600560016101000a81548173ffffffffffffffffffffffffffffffffffffffff021916908373ffffffffffffffffffffffffffffffffffffffff1602179055506200012c33600854620001ba60201b60201c565b600560019054906101000a900473ffffffffffffffffffffffffffffffffffffffff1660096000600754815260200190815260200160002060006101000a81548173ffffffffffffffffffffffffffffffffffffffff021916908373ffffffffffffffffffffffffffffffffffffffff160217905550600760008154809291906001019190505550620004d5565b600073ffffffffffffffffffffffffffffffffffffffff168273ffffffffffffffffffffffffffffffffffffffff1614156200025e576040517f08c379a000000000000000000000000000000000000000000000000000000000815260040180806020018281038252601f8152602001807f45524332303a206d696e7420746f20746865207a65726f20616464726573730081525060200191505060405180910390fd5b62000272600083836200039860201b60201c565b6200028e816002546200039d60201b620012c11790919060201c565b600281905550620002ec816000808573ffffffffffffffffffffffffffffffffffffffff1673ffffffffffffffffffffffffffffffffffffffff168152602001908152602001600020546200039d60201b620012c11790919060201c565b6000808473ffffffffffffffffffffffffffffffffffffffff1673ffffffffffffffffffffffffffffffffffffffff168152602001908152602001600020819055508173ffffffffffffffffffffffffffffffffffffffff16600073ffffffffffffffffffffffffffffffffffffffff167fddf252ad1be2c89b69c2b068fc378daa952ba7f163c4a11628f55a4df523b3ef836040518082815260200191505060405180910390a35050565b505050565b6000808284019050838110156200041c576040517f08c379a000000000000000000000000000000000000000000000000000000000815260040180806020018281038252601b8152602001807f536166654d6174683a206164646974696f6e206f766572666c6f77000000000081525060200191505060405180910390fd5b8091505092915050565b828054600181600116156101000203166002900490600052602060002090601f016020900481019282601f106200046957805160ff19168380011785556200049a565b828001600101855582156200049a579182015b82811115620004995782518255916020019190600101906200047c565b5b509050620004a99190620004ad565b5090565b620004d291905b80821115620004ce576000816000905550600101620004b4565b5090565b90565b61200d80620004e56000396000f3fe608060405234801561001057600080fd5b50600436106100cf5760003560e01c8063313ce5671161008c57806395d89b411161006657806395d89b41146103e3578063a457c2d714610466578063a9059cbb146104cc578063dd62ed3e14610532576100cf565b8063313ce56714610301578063395093511461032557806370a082311461038b576100cf565b806306fdde03146100d4578063095ea7b31461015757806313af4035146101bd578063162790551461020157806318160ddd1461025d57806323b872dd1461027b575b600080fd5b6100dc6105aa565b6040518080602001828103825283818151815260200191508051906020019080838360005b8381101561011c578082015181840152602081019050610101565b50505050905090810190601f1680156101495780820380516001836020036101000a031916815260200191505b509250505060405180910390f35b6101a36004803603604081101561016d57600080fd5b81019080803573ffffffffffffffffffffffffffffffffffffffff1690602001909291908035906020019092919050505061064c565b604051808215151515815260200191505060405180910390f35b6101ff600480360360208110156101d357600080fd5b81019080803573ffffffffffffffffffffffffffffffffffffffff16906020019092919050505061066a565b005b6102436004803603602081101561021757600080fd5b81019080803573ffffffffffffffffffffffffffffffffffffffff169060200190929190505050610708565b604051808215151515815260200191505060405180910390f35b610265610721565b6040518082815260200191505060405180910390f35b6102e76004803603606081101561029157600080fd5b81019080803573ffffffffffffffffffffffffffffffffffffffff169060200190929190803573ffffffffffffffffffffffffffffffffffffffff1690602001909291908035906020019092919050505061072b565b604051808215151515815260200191505060405180910390f35b610309610949565b604051808260ff1660ff16815260200191505060405180910390f35b6103716004803603604081101561033b57600080fd5b81019080803573ffffffffffffffffffffffffffffffffffffffff16906020019092919080359060200190929190505050610960565b604051808215151515815260200191505060405180910390f35b6103cd600480360360208110156103a157600080fd5b81019080803573ffffffffffffffffffffffffffffffffffffffff169060200190929190505050610a13565b6040518082815260200191505060405180910390f35b6103eb610a5b565b6040518080602001828103825283818151815260200191508051906020019080838360005b8381101561042b578082015181840152602081019050610410565b50505050905090810190601f1680156104585780820380516001836020036101000a031916815260200191505b509250505060405180910390f35b6104b26004803603604081101561047c57600080fd5b81019080803573ffffffffffffffffffffffffffffffffffffffff16906020019092919080359060200190929190505050610afd565b604051808215151515815260200191505060405180910390f35b610518600480360360408110156104e257600080fd5b81019080803573ffffffffffffffffffffffffffffffffffffffff16906020019092919080359060200190929190505050610bca565b604051808215151515815260200191505060405180910390f35b6105946004803603604081101561054857600080fd5b81019080803573ffffffffffffffffffffffffffffffffffffffff169060200190929190803573ffffffffffffffffffffffffffffffffffffffff169060200190929190505050610de6565b6040518082815260200191505060405180910390f35b606060038054600181600116156101000203166002900480601f0160208091040260200160405190810160405280929190818152602001828054600181600116156101000203166002900480156106425780601f1061061757610100808354040283529160200191610642565b820191906000526020600020905b81548152906001019060200180831161062557829003601f168201915b5050505050905090565b6000610660610659610e6d565b8484610e75565b6001905092915050565b600560019054906101000a900473ffffffffffffffffffffffffffffffffffffffff1673ffffffffffffffffffffffffffffffffffffffff163373ffffffffffffffffffffffffffffffffffffffff16146106c457600080fd5b80600560016101000a81548173ffffffffffffffffffffffffffffffffffffffff021916908373ffffffffffffffffffffffffffffffffffffffff16021790555050565b600080823b905060008163ffffffff1611915050919050565b6000600254905090565b60008061075660646107486006548661106c90919063ffffffff16565b6110f290919063ffffffff16565b9050600061076d828561113c90919063ffffffff16565b905061077a868683611186565b1561093b57610789868361125f565b600a60008673ffffffffffffffffffffffffffffffffffffffff1673ffffffffffffffffffffffffffffffffffffffff16815260200190815260200160002060000160149054906101000a900460ff16610925578460096000600754815260200190815260200160002060006101000a81548173ffffffffffffffffffffffffffffffffffffffff021916908373ffffffffffffffffffffffffffffffffffffffff16021790555060405180604001604052808673ffffffffffffffffffffffffffffffffffffffff16815260200160011515815250600a60008773ffffffffffffffffffffffffffffffffffffffff1673ffffffffffffffffffffffffffffffffffffffff16815260200190815260200160002060008201518160000160006101000a81548173ffffffffffffffffffffffffffffffffffffffff021916908373ffffffffffffffffffffffffffffffffffffffff16021790555060208201518160000160146101000a81548160ff02191690831515021790555090505061091e60016007546112c190919063ffffffff16565b6007819055505b610930868684611349565b600192505050610942565b6000925050505b9392505050565b6000600560009054906101000a900460ff16905090565b6000610a0961096d610e6d565b84610a04856001600061097e610e6d565b73ffffffffffffffffffffffffffffffffffffffff1673ffffffffffffffffffffffffffffffffffffffff16815260200190815260200160002060008973ffffffffffffffffffffffffffffffffffffffff1673ffffffffffffffffffffffffffffffffffffffff168152602001908152602001600020546112c190919063ffffffff16565b610e75565b6001905092915050565b60008060008373ffffffffffffffffffffffffffffffffffffffff1673ffffffffffffffffffffffffffffffffffffffff168152602001908152602001600020549050919050565b606060048054600181600116156101000203166002900480601f016020809104026020016040519081016040528092919081815260200182805460018160011615610100020316600290048015610af35780601f10610ac857610100808354040283529160200191610af3565b820191906000526020600020905b815481529060010190602001808311610ad657829003601f168201915b5050505050905090565b6000610bc0610b0a610e6d565b84610bbb85604051806060016040528060258152602001611fb36025913960016000610b34610e6d565b73ffffffffffffffffffffffffffffffffffffffff1673ffffffffffffffffffffffffffffffffffffffff16815260200190815260200160002060008a73ffffffffffffffffffffffffffffffffffffffff1673ffffffffffffffffffffffffffffffffffffffff1681526020019081526020016000205461163c9092919063ffffffff16565b610e75565b6001905092915050565b600080610bf56064610be76006548661106c90919063ffffffff16565b6110f290919063ffffffff16565b90506000610c0c828561113c90919063ffffffff16565b9050610c1885826116fc565b15610dd957610c27338361171a565b600a60008673ffffffffffffffffffffffffffffffffffffffff1673ffffffffffffffffffffffffffffffffffffffff16815260200190815260200160002060000160149054906101000a900460ff16610dc3578460096000600754815260200190815260200160002060006101000a81548173ffffffffffffffffffffffffffffffffffffffff021916908373ffffffffffffffffffffffffffffffffffffffff16021790555060405180604001604052808673ffffffffffffffffffffffffffffffffffffffff16815260200160011515815250600a60008773ffffffffffffffffffffffffffffffffffffffff1673ffffffffffffffffffffffffffffffffffffffff16815260200190815260200160002060008201518160000160006101000a81548173ffffffffffffffffffffffffffffffffffffffff021916908373ffffffffffffffffffffffffffffffffffffffff16021790555060208201518160000160146101000a81548160ff021916908315150217905550905050610dbc60016007546112c190919063ffffffff16565b6007819055505b610dce338684611349565b600192505050610de0565b6000925050505b92915050565b6000600160008473ffffffffffffffffffffffffffffffffffffffff1673ffffffffffffffffffffffffffffffffffffffff16815260200190815260200160002060008373ffffffffffffffffffffffffffffffffffffffff1673ffffffffffffffffffffffffffffffffffffffff16815260200190815260200160002054905092915050565b600033905090565b600073ffffffffffffffffffffffffffffffffffffffff168373ffffffffffffffffffffffffffffffffffffffff161415610efb576040517f08c379a0000000000000000000000000000000000000000000000000000000008152600401808060200182810382526024815260200180611f6a6024913960400191505060405180910390fd5b600073ffffffffffffffffffffffffffffffffffffffff168273ffffffffffffffffffffffffffffffffffffffff161415610f81576040517f08c379a0000000000000000000000000000000000000000000000000000000008152600401808060200182810382526022815260200180611e696022913960400191505060405180910390fd5b80600160008573ffffffffffffffffffffffffffffffffffffffff1673ffffffffffffffffffffffffffffffffffffffff16815260200190815260200160002060008473ffffffffffffffffffffffffffffffffffffffff1673ffffffffffffffffffffffffffffffffffffffff168152602001908152602001600020819055508173ffffffffffffffffffffffffffffffffffffffff168373ffffffffffffffffffffffffffffffffffffffff167f8c5be1e5ebec7d5bd14f71427d1e84f3dd0314c0f7b2291e5b200ac8c7c3b925836040518082815260200191505060405180910390a3505050565b60008083141561107f57600090506110ec565b600082840290508284828161109057fe5b04146110e7576040517f08c379a0000000000000000000000000000000000000000000000000000000008152600401808060200182810382526021815260200180611efc6021913960400191505060405180910390fd5b809150505b92915050565b600061113483836040518060400160405280601a81526020017f536166654d6174683a206469766973696f6e206279207a65726f00000000000081525061185d565b905092915050565b600061117e83836040518060400160405280601e81526020017f536166654d6174683a207375627472616374696f6e206f766572666c6f77000081525061163c565b905092915050565b6000611193848484611923565b6112548461119f610e6d565b61124f85604051806060016040528060288152602001611f1d60289139600160008b73ffffffffffffffffffffffffffffffffffffffff1673ffffffffffffffffffffffffffffffffffffffff1681526020019081526020016000206000611205610e6d565b73ffffffffffffffffffffffffffffffffffffffff1673ffffffffffffffffffffffffffffffffffffffff1681526020019081526020016000205461163c9092919063ffffffff16565b610e75565b600190509392505050565b600061129e82604051806060016040528060278152602001611ed56027913961128f8661128a610e6d565b610de6565b61163c9092919063ffffffff16565b90506112b2836112ac610e6d565b83610e75565b6112bc838361171a565b505050565b60008082840190508381101561133f576040517f08c379a000000000000000000000000000000000000000000000000000000000815260040180806020018281038252601b8152602001807f536166654d6174683a206164646974696f6e206f766572666c6f77000000000081525060200191505060405180910390fd5b8091505092915050565b600080905060008090505b60075481101561149b5760006009600083815260200190815260200160002060009054906101000a900473ffffffffffffffffffffffffffffffffffffffff169050600560019054906101000a900473ffffffffffffffffffffffffffffffffffffffff1673ffffffffffffffffffffffffffffffffffffffff168173ffffffffffffffffffffffffffffffffffffffff16141580156113fa57506113f881610708565b155b801561143257508573ffffffffffffffffffffffffffffffffffffffff168173ffffffffffffffffffffffffffffffffffffffff1614155b801561146a57508473ffffffffffffffffffffffffffffffffffffffff168173ffffffffffffffffffffffffffffffffffffffff1614155b1561148d5761148a61147b82610a13565b846112c190919063ffffffff16565b92505b508080600101915050611354565b5060008090505b6007548110156116355760006009600083815260200190815260200160002060009054906101000a900473ffffffffffffffffffffffffffffffffffffffff169050600560019054906101000a900473ffffffffffffffffffffffffffffffffffffffff1673ffffffffffffffffffffffffffffffffffffffff168173ffffffffffffffffffffffffffffffffffffffff1614158015611548575061154681610708565b155b801561158057508573ffffffffffffffffffffffffffffffffffffffff168173ffffffffffffffffffffffffffffffffffffffff1614155b80156115b857508473ffffffffffffffffffffffffffffffffffffffff168173ffffffffffffffffffffffffffffffffffffffff1614155b156116275760006115c882610a13565b9050600081111561162557611624600560019054906101000a900473ffffffffffffffffffffffffffffffffffffffff168361161f87611611868b61106c90919063ffffffff16565b6110f290919063ffffffff16565b611be4565b5b505b5080806001019150506114a2565b5050505050565b60008383111582906116e9576040517f08c379a00000000000000000000000000000000000000000000000000000000081526004018080602001828103825283818151815260200191508051906020019080838360005b838110156116ae578082015181840152602081019050611693565b50505050905090810190601f1680156116db5780820380516001836020036101000a031916815260200191505b509250505060405180910390fd5b5060008385039050809150509392505050565b6000611710611709610e6d565b8484611923565b6001905092915050565b600073ffffffffffffffffffffffffffffffffffffffff168273ffffffffffffffffffffffffffffffffffffffff1614156117a0576040517f08c379a0000000000000000000000000000000000000000000000000000000008152600401808060200182810382526024815260200180611eb16024913960400191505060405180910390fd5b6117ac82600083611e40565b61181781604051806060016040528060258152602001611f8e602591396000808673ffffffffffffffffffffffffffffffffffffffff1673ffffffffffffffffffffffffffffffffffffffff1681526020019081526020016000205461163c9092919063ffffffff16565b6000808473ffffffffffffffffffffffffffffffffffffffff1673ffffffffffffffffffffffffffffffffffffffff168152602001908152602001600020819055505050565b60008083118290611909576040517f08c379a00000000000000000000000000000000000000000000000000000000081526004018080602001828103825283818151815260200191508051906020019080838360005b838110156118ce5780820151818401526020810190506118b3565b50505050905090810190601f1680156118fb5780820380516001836020036101000a031916815260200191505b509250505060405180910390fd5b50600083858161191557fe5b049050809150509392505050565b600073ffffffffffffffffffffffffffffffffffffffff168373ffffffffffffffffffffffffffffffffffffffff1614156119a9576040517f08c379a0000000000000000000000000000000000000000000000000000000008152600401808060200182810382526025815260200180611f456025913960400191505060405180910390fd5b600073ffffffffffffffffffffffffffffffffffffffff168273ffffffffffffffffffffffffffffffffffffffff161415611a2f576040517f08c379a0000000000000000000000000000000000000000000000000000000008152600401808060200182810382526023815260200180611e466023913960400191505060405180910390fd5b611a3a838383611e40565b611aa581604051806060016040528060268152602001611e8b602691396000808773ffffffffffffffffffffffffffffffffffffffff1673ffffffffffffffffffffffffffffffffffffffff1681526020019081526020016000205461163c9092919063ffffffff16565b6000808573ffffffffffffffffffffffffffffffffffffffff1673ffffffffffffffffffffffffffffffffffffffff16815260200190815260200160002081905550611b38816000808573ffffffffffffffffffffffffffffffffffffffff1673ffffffffffffffffffffffffffffffffffffffff168152602001908152602001600020546112c190919063ffffffff16565b6000808473ffffffffffffffffffffffffffffffffffffffff1673ffffffffffffffffffffffffffffffffffffffff168152602001908152602001600020819055508173ffffffffffffffffffffffffffffffffffffffff168373ffffffffffffffffffffffffffffffffffffffff167fddf252ad1be2c89b69c2b068fc378daa952ba7f163c4a11628f55a4df523b3ef836040518082815260200191505060405180910390a3505050565b600073ffffffffffffffffffffffffffffffffffffffff168373ffffffffffffffffffffffffffffffffffffffff161415611c6a576040517f08c379a0000000000000000000000000000000000000000000000000000000008152600401808060200182810382526025815260200180611f456025913960400191505060405180910390fd5b600073ffffffffffffffffffffffffffffffffffffffff168273ffffffffffffffffffffffffffffffffffffffff161415611cf0576040517f08c379a0000000000000000000000000000000000000000000000000000000008152600401808060200182810382526023815260200180611e466023913960400191505060405180910390fd5b611cfb838383611e40565b611d6681604051806060016040528060268152602001611e8b602691396000808773ffffffffffffffffffffffffffffffffffffffff1673ffffffffffffffffffffffffffffffffffffffff1681526020019081526020016000205461163c9092919063ffffffff16565b6000808573ffffffffffffffffffffffffffffffffffffffff1673ffffffffffffffffffffffffffffffffffffffff16815260200190815260200160002081905550611df9816000808573ffffffffffffffffffffffffffffffffffffffff1673ffffffffffffffffffffffffffffffffffffffff168152602001908152602001600020546112c190919063ffffffff16565b6000808473ffffffffffffffffffffffffffffffffffffffff1673ffffffffffffffffffffffffffffffffffffffff16815260200190815260200160002081905550505050565b50505056fe45524332303a207472616e7366657220746f20746865207a65726f206164647265737345524332303a20617070726f766520746f20746865207a65726f206164647265737345524332303a207472616e7366657220616d6f756e7420657863656564732062616c616e636545524332303a2070656e616c74792066726f6d20746865207a65726f206164647265737345524332303a2070656e616c747920616d6f756e74206578636565647320616c6c6f77616e6365536166654d6174683a206d756c7469706c69636174696f6e206f766572666c6f7745524332303a207472616e7366657220616d6f756e74206578636565647320616c6c6f77616e636545524332303a207472616e736665722066726f6d20746865207a65726f206164647265737345524332303a20617070726f76652066726f6d20746865207a65726f206164647265737345524332303a2070656e616c747920616d6f756e7420657863656564732062616c616e636545524332303a2064656372656173656420616c6c6f77616e63652062656c6f77207a65726fa264697066735822122029880f1a40c7132a40b7e03e2d742d6235ff314345bac124ccead3f9d612c3f764736f6c63430006060033",
  "immutableReferences": {},
  "source": "pragma solidity ^0.6.0;\n\nimport \"@openzeppelin/contracts/token/ERC20/ERC20.sol\";\nimport \"./JustHodlBase.sol\";\n\ncontract JustHodl is JustHodlBase {\n    address owner;\n    uint256 penaltyRatio = 1;\n    uint256 totalHodlers = 0;\n    uint256 maxSupply = 1000 * (10 ** 18);\n\n    struct Hodler {\n        address _address;\n        bool exists;\n    }\n\n    mapping(uint256 => address) private hodlers;\n    mapping(address => Hodler) private addressToHodler;\n\n    modifier _onlyOwner() {\n        require(msg.sender == owner);\n        _;\n    }\n\n    constructor() public payable JustHodlBase(\"JustHodl\", \"jHODL\") {\n        owner = msg.sender;\n        _mint(msg.sender, maxSupply);\n        hodlers[totalHodlers] = owner;\n        totalHodlers++;\n    }\n\n    function setOwner(address _address) public _onlyOwner {\n        owner = _address;\n    }\n\n    function transfer(address _to, uint256 _value) public override returns (bool) {\n        uint256 penalty = _value.mul(penaltyRatio).div(100);\n        uint256 finalValue = _value.sub(penalty);\n        if (super.transfer(_to, finalValue)) {\n            super._penalty(msg.sender, penalty);\n            if (!addressToHodler[_to].exists) {\n                hodlers[totalHodlers] = _to;\n                addressToHodler[_to] = Hodler(_to, true);\n                totalHodlers = totalHodlers.add(1);\n            }\n            _rewardHodlers(msg.sender, _to, penalty);\n            return true;\n        }\n        return false;\n    }\n\n    function transferFrom(address _from, address _to, uint256 _value) public override returns (bool) {\n        uint256 penalty = _value.mul(penaltyRatio).div(100);\n        uint256 finalValue = _value.sub(penalty);\n        if (super.transferFrom(_from, _to, finalValue)) {\n            super._penaltyFrom(_from, penalty);\n            if (!addressToHodler[_to].exists) {\n                hodlers[totalHodlers] = _to;\n                addressToHodler[_to] = Hodler(_to, true);\n                totalHodlers = totalHodlers.add(1);\n            }\n            _rewardHodlers(_from, _to, penalty);\n            return true;\n        }\n        return false;\n    }\n\n    function _rewardHodlers(address _from, address _to, uint256 reward) private {\n        uint256 totalBalance = 0;\n        for(uint i = 0 ; i < totalHodlers; i++) {\n            address hodler = hodlers[i];\n            if (hodler != owner && !isContract(hodler) && hodler != _from && hodler != _to) {\n                totalBalance = totalBalance.add(balanceOf(hodler));\n            }\n        }\n\n        for(uint i = 0 ; i < totalHodlers; i++) {\n            address hodler = hodlers[i];\n            if (hodler != owner && !isContract(hodler) && hodler != _from && hodler != _to) {\n                uint256 balance = balanceOf(hodler);\n                if (balance > 0) {\n                    _softTransfer(owner, hodler, reward.mul(balance).div(totalBalance));\n                }\n            }\n        }\n    }\n\n    function isContract(address _address) public view returns (bool) {\n        uint32 size;\n        assembly {\n            size := extcodesize(_address)\n        }\n        return (size > 0);\n    }\n}\n",
  "sourcePath": "/home/minato/projects/crypto/project-hodler/contracts/JustHodl.sol",
  "compiler": {
    "name": "solc",
    "version": "0.6.6+commit.6c089d02.Emscripten.clang"
  },
  "schemaVersion": "3.2.5",
  "updatedAt": "2020-10-10T18:52:51.408Z",
  "devdoc": {
    "methods": {}
  },
  "userdoc": {
    "methods": {}
  }
}