{
  "contractName": "JustHodl",
  "abi": [
    {
      "inputs": [],
      "stateMutability": "payable",
      "type": "constructor"
    },
    {
      "anonymous": false,
      "inputs": [
        {
          "indexed": true,
          "internalType": "address",
          "name": "owner",
          "type": "address"
        },
        {
          "indexed": true,
          "internalType": "address",
          "name": "spender",
          "type": "address"
        },
        {
          "indexed": false,
          "internalType": "uint256",
          "name": "value",
          "type": "uint256"
        }
      ],
      "name": "Approval",
      "type": "event"
    },
    {
      "anonymous": false,
      "inputs": [
        {
          "indexed": true,
          "internalType": "address",
          "name": "from",
          "type": "address"
        },
        {
          "indexed": true,
          "internalType": "address",
          "name": "to",
          "type": "address"
        },
        {
          "indexed": false,
          "internalType": "uint256",
          "name": "value",
          "type": "uint256"
        }
      ],
      "name": "Transfer",
      "type": "event"
    },
    {
      "inputs": [
        {
          "internalType": "address",
          "name": "owner",
          "type": "address"
        },
        {
          "internalType": "address",
          "name": "spender",
          "type": "address"
        }
      ],
      "name": "allowance",
      "outputs": [
        {
          "internalType": "uint256",
          "name": "",
          "type": "uint256"
        }
      ],
      "stateMutability": "view",
      "type": "function"
    },
    {
      "inputs": [
        {
          "internalType": "address",
          "name": "spender",
          "type": "address"
        },
        {
          "internalType": "uint256",
          "name": "amount",
          "type": "uint256"
        }
      ],
      "name": "approve",
      "outputs": [
        {
          "internalType": "bool",
          "name": "",
          "type": "bool"
        }
      ],
      "stateMutability": "nonpayable",
      "type": "function"
    },
    {
      "inputs": [
        {
          "internalType": "address",
          "name": "account",
          "type": "address"
        }
      ],
      "name": "balanceOf",
      "outputs": [
        {
          "internalType": "uint256",
          "name": "",
          "type": "uint256"
        }
      ],
      "stateMutability": "view",
      "type": "function"
    },
    {
      "inputs": [],
      "name": "bonusSupply",
      "outputs": [
        {
          "internalType": "uint256",
          "name": "",
          "type": "uint256"
        }
      ],
      "stateMutability": "view",
      "type": "function"
    },
    {
      "inputs": [],
      "name": "decimals",
      "outputs": [
        {
          "internalType": "uint8",
          "name": "",
          "type": "uint8"
        }
      ],
      "stateMutability": "view",
      "type": "function"
    },
    {
      "inputs": [
        {
          "internalType": "address",
          "name": "spender",
          "type": "address"
        },
        {
          "internalType": "uint256",
          "name": "subtractedValue",
          "type": "uint256"
        }
      ],
      "name": "decreaseAllowance",
      "outputs": [
        {
          "internalType": "bool",
          "name": "",
          "type": "bool"
        }
      ],
      "stateMutability": "nonpayable",
      "type": "function"
    },
    {
      "inputs": [
        {
          "internalType": "address",
          "name": "_address",
          "type": "address"
        }
      ],
      "name": "hodlTimeOf",
      "outputs": [
        {
          "internalType": "uint256",
          "name": "",
          "type": "uint256"
        }
      ],
      "stateMutability": "view",
      "type": "function"
    },
    {
      "inputs": [
        {
          "internalType": "address",
          "name": "spender",
          "type": "address"
        },
        {
          "internalType": "uint256",
          "name": "addedValue",
          "type": "uint256"
        }
      ],
      "name": "increaseAllowance",
      "outputs": [
        {
          "internalType": "bool",
          "name": "",
          "type": "bool"
        }
      ],
      "stateMutability": "nonpayable",
      "type": "function"
    },
    {
      "inputs": [],
      "name": "name",
      "outputs": [
        {
          "internalType": "string",
          "name": "",
          "type": "string"
        }
      ],
      "stateMutability": "view",
      "type": "function"
    },
    {
      "inputs": [
        {
          "internalType": "address",
          "name": "_address",
          "type": "address"
        }
      ],
      "name": "pureBalanceOf",
      "outputs": [
        {
          "internalType": "uint256",
          "name": "",
          "type": "uint256"
        }
      ],
      "stateMutability": "view",
      "type": "function"
    },
    {
      "inputs": [
        {
          "internalType": "address",
          "name": "_address",
          "type": "address"
        }
      ],
      "name": "pureBonusOf",
      "outputs": [
        {
          "internalType": "uint256",
          "name": "",
          "type": "uint256"
        }
      ],
      "stateMutability": "view",
      "type": "function"
    },
    {
      "inputs": [],
      "name": "symbol",
      "outputs": [
        {
          "internalType": "string",
          "name": "",
          "type": "string"
        }
      ],
      "stateMutability": "view",
      "type": "function"
    },
    {
      "inputs": [],
      "name": "totalSupply",
      "outputs": [
        {
          "internalType": "uint256",
          "name": "",
          "type": "uint256"
        }
      ],
      "stateMutability": "view",
      "type": "function"
    },
    {
      "inputs": [],
      "name": "getOwner",
      "outputs": [
        {
          "internalType": "address",
          "name": "",
          "type": "address"
        }
      ],
      "stateMutability": "view",
      "type": "function"
    },
    {
      "inputs": [
        {
          "internalType": "address",
          "name": "_address",
          "type": "address"
        }
      ],
      "name": "setOwner",
      "outputs": [],
      "stateMutability": "nonpayable",
      "type": "function"
    },
    {
      "inputs": [
        {
          "internalType": "address",
          "name": "_address",
          "type": "address"
        }
      ],
      "name": "isPenaltyException",
      "outputs": [
        {
          "internalType": "bool",
          "name": "",
          "type": "bool"
        }
      ],
      "stateMutability": "view",
      "type": "function"
    },
    {
      "inputs": [
        {
          "internalType": "address",
          "name": "_address",
          "type": "address"
        }
      ],
      "name": "addPenaltyException",
      "outputs": [
        {
          "internalType": "bool",
          "name": "",
          "type": "bool"
        }
      ],
      "stateMutability": "nonpayable",
      "type": "function"
    },
    {
      "inputs": [
        {
          "internalType": "address",
          "name": "_address",
          "type": "address"
        }
      ],
      "name": "removePenaltyException",
      "outputs": [
        {
          "internalType": "bool",
          "name": "",
          "type": "bool"
        }
      ],
      "stateMutability": "nonpayable",
      "type": "function"
    },
    {
      "inputs": [
        {
          "internalType": "address",
          "name": "_address",
          "type": "address"
        }
      ],
      "name": "isRecipientException",
      "outputs": [
        {
          "internalType": "bool",
          "name": "",
          "type": "bool"
        }
      ],
      "stateMutability": "view",
      "type": "function"
    },
    {
      "inputs": [
        {
          "internalType": "address",
          "name": "_address",
          "type": "address"
        }
      ],
      "name": "addRecipientException",
      "outputs": [
        {
          "internalType": "bool",
          "name": "",
          "type": "bool"
        }
      ],
      "stateMutability": "nonpayable",
      "type": "function"
    },
    {
      "inputs": [
        {
          "internalType": "address",
          "name": "_address",
          "type": "address"
        }
      ],
      "name": "removeRecipientException",
      "outputs": [
        {
          "internalType": "bool",
          "name": "",
          "type": "bool"
        }
      ],
      "stateMutability": "nonpayable",
      "type": "function"
    },
    {
      "inputs": [
        {
          "internalType": "address",
          "name": "_address",
          "type": "address"
        }
      ],
      "name": "isWhitelistedSender",
      "outputs": [
        {
          "internalType": "bool",
          "name": "",
          "type": "bool"
        }
      ],
      "stateMutability": "view",
      "type": "function"
    },
    {
      "inputs": [
        {
          "internalType": "address",
          "name": "_address",
          "type": "address"
        }
      ],
      "name": "addWhitelistedSender",
      "outputs": [
        {
          "internalType": "bool",
          "name": "",
          "type": "bool"
        }
      ],
      "stateMutability": "nonpayable",
      "type": "function"
    },
    {
      "inputs": [
        {
          "internalType": "address",
          "name": "_address",
          "type": "address"
        }
      ],
      "name": "removeWhitelistedSender",
      "outputs": [
        {
          "internalType": "bool",
          "name": "",
          "type": "bool"
        }
      ],
      "stateMutability": "nonpayable",
      "type": "function"
    },
    {
      "inputs": [
        {
          "internalType": "address",
          "name": "_to",
          "type": "address"
        },
        {
          "internalType": "uint256",
          "name": "_value",
          "type": "uint256"
        }
      ],
      "name": "transfer",
      "outputs": [
        {
          "internalType": "bool",
          "name": "",
          "type": "bool"
        }
      ],
      "stateMutability": "nonpayable",
      "type": "function"
    },
    {
      "inputs": [
        {
          "internalType": "address",
          "name": "_from",
          "type": "address"
        },
        {
          "internalType": "address",
          "name": "_to",
          "type": "address"
        },
        {
          "internalType": "uint256",
          "name": "_value",
          "type": "uint256"
        }
      ],
      "name": "transferFrom",
      "outputs": [
        {
          "internalType": "bool",
          "name": "",
          "type": "bool"
        }
      ],
      "stateMutability": "nonpayable",
      "type": "function"
    }
  ],
  "bytecode": "0x6080604052600080556000600155600a600955683635c9adc5dea00000600a556040518060400160405280600881526020017f4a757374486f646c0000000000000000000000000000000000000000000000008152506040518060400160405280600581526020017f4a484f444c0000000000000000000000000000000000000000000000000000008152508160069080519060200190620000a392919062000388565b508060079080519060200190620000bc92919062000388565b506012600860006101000a81548160ff021916908360ff160217905550505033600860016101000a81548173ffffffffffffffffffffffffffffffffffffffff021916908373ffffffffffffffffffffffffffffffffffffffff1602179055506200013033600a546200013660201b60201c565b62000437565b600073ffffffffffffffffffffffffffffffffffffffff168273ffffffffffffffffffffffffffffffffffffffff161415620001be576040517f08c379a0000000000000000000000000000000000000000000000000000000008152600401808060200182810382526026815260200180620031a26026913960400191505060405180910390fd5b620001d260008383620002fa60201b60201c565b620001ee81600554620002ff60201b6200241e1790919060201c565b6005819055506200024d81600360008573ffffffffffffffffffffffffffffffffffffffff1673ffffffffffffffffffffffffffffffffffffffff16815260200190815260200160002054620002ff60201b6200241e1790919060201c565b600360008473ffffffffffffffffffffffffffffffffffffffff1673ffffffffffffffffffffffffffffffffffffffff168152602001908152602001600020819055508173ffffffffffffffffffffffffffffffffffffffff16600073ffffffffffffffffffffffffffffffffffffffff167fddf252ad1be2c89b69c2b068fc378daa952ba7f163c4a11628f55a4df523b3ef836040518082815260200191505060405180910390a35050565b505050565b6000808284019050838110156200037e576040517f08c379a000000000000000000000000000000000000000000000000000000000815260040180806020018281038252601b8152602001807f536166654d6174683a206164646974696f6e206f766572666c6f77000000000081525060200191505060405180910390fd5b8091505092915050565b828054600181600116156101000203166002900490600052602060002090601f016020900481019282601f10620003cb57805160ff1916838001178555620003fc565b82800160010185558215620003fc579182015b82811115620003fb578251825591602001919060010190620003de565b5b5090506200040b91906200040f565b5090565b6200043491905b808211156200043057600081600090555060010162000416565b5090565b90565b612d5b80620004476000396000f3fe608060405234801561001057600080fd5b506004361061018e5760003560e01c80637851eca2116100de57806397c540a811610097578063baedc44511610071578063baedc44514610931578063be4945731461098d578063dd62ed3e146109e5578063f19211db14610a5d5761018e565b806397c540a81461080d578063a457c2d714610865578063a9059cbb146108cb5761018e565b80637851eca214610612578063863843bc1461066a578063885ec8ee14610688578063893d20e8146106e457806394604e661461072e57806395d89b411461078a5761018e565b80631b9e2fad1161014b5780633950935111610125578063395093511461049c578063664e43401461050257806370a082311461055e57806371b76617146105b65761018e565b80631b9e2fad1461039657806323b872dd146103f2578063313ce567146104785761018e565b806305ff91101461019357806306fdde03146101ef578063095ea7b31461027257806313af4035146102d857806313bc94ca1461031c57806318160ddd14610378575b600080fd5b6101d5600480360360208110156101a957600080fd5b81019080803573ffffffffffffffffffffffffffffffffffffffff169060200190929190505050610ab9565b604051808215151515815260200191505060405180910390f35b6101f7610c45565b6040518080602001828103825283818151815260200191508051906020019080838360005b8381101561023757808201518184015260208101905061021c565b50505050905090810190601f1680156102645780820380516001836020036101000a031916815260200191505b509250505060405180910390f35b6102be6004803603604081101561028857600080fd5b81019080803573ffffffffffffffffffffffffffffffffffffffff16906020019092919080359060200190929190505050610ce7565b604051808215151515815260200191505060405180910390f35b61031a600480360360208110156102ee57600080fd5b81019080803573ffffffffffffffffffffffffffffffffffffffff169060200190929190505050610d05565b005b61035e6004803603602081101561033257600080fd5b81019080803573ffffffffffffffffffffffffffffffffffffffff169060200190929190505050610def565b604051808215151515815260200191505060405180910390f35b610380610f7b565b6040518082815260200191505060405180910390f35b6103d8600480360360208110156103ac57600080fd5b81019080803573ffffffffffffffffffffffffffffffffffffffff169060200190929190505050610f85565b604051808215151515815260200191505060405180910390f35b61045e6004803603606081101561040857600080fd5b81019080803573ffffffffffffffffffffffffffffffffffffffff169060200190929190803573ffffffffffffffffffffffffffffffffffffffff1690602001909291908035906020019092919050505061101b565b604051808215151515815260200191505060405180910390f35b610480611114565b604051808260ff1660ff16815260200191505060405180910390f35b6104e8600480360360408110156104b257600080fd5b81019080803573ffffffffffffffffffffffffffffffffffffffff1690602001909291908035906020019092919050505061112b565b604051808215151515815260200191505060405180910390f35b6105446004803603602081101561051857600080fd5b81019080803573ffffffffffffffffffffffffffffffffffffffff1690602001909291905050506111de565b604051808215151515815260200191505060405180910390f35b6105a06004803603602081101561057457600080fd5b81019080803573ffffffffffffffffffffffffffffffffffffffff16906020019092919050505061135c565b6040518082815260200191505060405180910390f35b6105f8600480360360208110156105cc57600080fd5b81019080803573ffffffffffffffffffffffffffffffffffffffff1690602001909291905050506113cd565b604051808215151515815260200191505060405180910390f35b6106546004803603602081101561062857600080fd5b81019080803573ffffffffffffffffffffffffffffffffffffffff1690602001909291905050506114f0565b6040518082815260200191505060405180910390f35b610672611539565b6040518082815260200191505060405180910390f35b6106ca6004803603602081101561069e57600080fd5b81019080803573ffffffffffffffffffffffffffffffffffffffff169060200190929190505050611543565b604051808215151515815260200191505060405180910390f35b6106ec61172a565b604051808273ffffffffffffffffffffffffffffffffffffffff1673ffffffffffffffffffffffffffffffffffffffff16815260200191505060405180910390f35b6107706004803603602081101561074457600080fd5b81019080803573ffffffffffffffffffffffffffffffffffffffff169060200190929190505050611754565b604051808215151515815260200191505060405180910390f35b6107926117ad565b6040518080602001828103825283818151815260200191508051906020019080838360005b838110156107d25780820151818401526020810190506107b7565b50505050905090810190601f1680156107ff5780820380516001836020036101000a031916815260200191505b509250505060405180910390f35b61084f6004803603602081101561082357600080fd5b81019080803573ffffffffffffffffffffffffffffffffffffffff16906020019092919050505061184f565b6040518082815260200191505060405180910390f35b6108b16004803603604081101561087b57600080fd5b81019080803573ffffffffffffffffffffffffffffffffffffffff169060200190929190803590602001909291905050506118b2565b604051808215151515815260200191505060405180910390f35b610917600480360360408110156108e157600080fd5b81019080803573ffffffffffffffffffffffffffffffffffffffff1690602001909291908035906020019092919050505061197f565b604051808215151515815260200191505060405180910390f35b6109736004803603602081101561094757600080fd5b81019080803573ffffffffffffffffffffffffffffffffffffffff169060200190929190505050611a75565b604051808215151515815260200191505060405180910390f35b6109cf600480360360208110156109a357600080fd5b81019080803573ffffffffffffffffffffffffffffffffffffffff169060200190929190505050611c5c565b6040518082815260200191505060405180910390f35b610a47600480360360408110156109fb57600080fd5b81019080803573ffffffffffffffffffffffffffffffffffffffff169060200190929190803573ffffffffffffffffffffffffffffffffffffffff169060200190929190505050611ca5565b6040518082815260200191505060405180910390f35b610a9f60048036036020811015610a7357600080fd5b81019080803573ffffffffffffffffffffffffffffffffffffffff169060200190929190505050611d2c565b604051808215151515815260200191505060405180910390f35b6000600860019054906101000a900473ffffffffffffffffffffffffffffffffffffffff1673ffffffffffffffffffffffffffffffffffffffff163373ffffffffffffffffffffffffffffffffffffffff1614610b61576040517f08c379a000000000000000000000000000000000000000000000000000000000815260040180806020018281038252602c815260200180612aee602c913960400191505060405180910390fd5b610b6a82611d2c565b610bbf576040517f08c379a0000000000000000000000000000000000000000000000000000000008152600401808060200182810382526041815260200180612a7e6041913960600191505060405180910390fd5b600c60008373ffffffffffffffffffffffffffffffffffffffff1673ffffffffffffffffffffffffffffffffffffffff168152602001908152602001600020600080820160006101000a81549073ffffffffffffffffffffffffffffffffffffffff02191690556000820160146101000a81549060ff0219169055505060019050919050565b606060068054600181600116156101000203166002900480601f016020809104026020016040519081016040528092919081815260200182805460018160011615610100020316600290048015610cdd5780601f10610cb257610100808354040283529160200191610cdd565b820191906000526020600020905b815481529060010190602001808311610cc057829003601f168201915b5050505050905090565b6000610cfb610cf4611d85565b8484611d8d565b6001905092915050565b600860019054906101000a900473ffffffffffffffffffffffffffffffffffffffff1673ffffffffffffffffffffffffffffffffffffffff163373ffffffffffffffffffffffffffffffffffffffff1614610dab576040517f08c379a000000000000000000000000000000000000000000000000000000000815260040180806020018281038252602c815260200180612aee602c913960400191505060405180910390fd5b80600860016101000a81548173ffffffffffffffffffffffffffffffffffffffff021916908373ffffffffffffffffffffffffffffffffffffffff16021790555050565b6000600860019054906101000a900473ffffffffffffffffffffffffffffffffffffffff1673ffffffffffffffffffffffffffffffffffffffff163373ffffffffffffffffffffffffffffffffffffffff1614610e97576040517f08c379a000000000000000000000000000000000000000000000000000000000815260040180806020018281038252602c815260200180612aee602c913960400191505060405180910390fd5b610ea082611754565b610ef5576040517f08c379a000000000000000000000000000000000000000000000000000000000815260040180806020018281038252603f815260200180612b1a603f913960400191505060405180910390fd5b600b60008373ffffffffffffffffffffffffffffffffffffffff1673ffffffffffffffffffffffffffffffffffffffff168152602001908152602001600020600080820160006101000a81549073ffffffffffffffffffffffffffffffffffffffff02191690556000820160146101000a81549060ff0219169055505060019050919050565b6000600554905090565b6000600d60003373ffffffffffffffffffffffffffffffffffffffff1673ffffffffffffffffffffffffffffffffffffffff16815260200190815260200160002060008373ffffffffffffffffffffffffffffffffffffffff1673ffffffffffffffffffffffffffffffffffffffff16815260200190815260200160002060000160149054906101000a900460ff169050919050565b600061102684611754565b80611036575061103583611754565b5b1561104d57611046848484611f84565b905061110d565b611057848461205d565b156111085760008090506000839050600061107187611c5c565b905061107c8761215b565b15801561108f575061108d87612174565b155b156110d4576110bc60646110ae600954886121c490919063ffffffff16565b61224a90919063ffffffff16565b92506110d1838661229490919063ffffffff16565b91505b6110df878784611f84565b15611104576110ed866122de565b6110f88584836123ab565b6001935050505061110d565b5050505b600090505b9392505050565b6000600860009054906101000a900460ff16905090565b60006111d4611138611d85565b846111cf8560046000611149611d85565b73ffffffffffffffffffffffffffffffffffffffff1673ffffffffffffffffffffffffffffffffffffffff16815260200190815260200160002060008973ffffffffffffffffffffffffffffffffffffffff1673ffffffffffffffffffffffffffffffffffffffff1681526020019081526020016000205461241e90919063ffffffff16565b611d8d565b6001905092915050565b60006111e982610f85565b1561123f576040517f08c379a0000000000000000000000000000000000000000000000000000000008152600401808060200182810382526035815260200180612b596035913960400191505060405180910390fd5b60405180604001604052808373ffffffffffffffffffffffffffffffffffffffff16815260200160011515815250600d60003373ffffffffffffffffffffffffffffffffffffffff1673ffffffffffffffffffffffffffffffffffffffff16815260200190815260200160002060008473ffffffffffffffffffffffffffffffffffffffff1673ffffffffffffffffffffffffffffffffffffffff16815260200190815260200160002060008201518160000160006101000a81548173ffffffffffffffffffffffffffffffffffffffff021916908373ffffffffffffffffffffffffffffffffffffffff16021790555060208201518160000160146101000a81548160ff02191690831515021790555090505060019050919050565b600080600360008473ffffffffffffffffffffffffffffffffffffffff1673ffffffffffffffffffffffffffffffffffffffff1681526020019081526020016000205490506113aa83612174565b156113c3576113b983826124a6565b81019150506113c8565b809150505b919050565b60006113d882610f85565b61142d576040517f08c379a0000000000000000000000000000000000000000000000000000000008152600401808060200182810382526031815260200180612bd16031913960400191505060405180910390fd5b600d60003373ffffffffffffffffffffffffffffffffffffffff1673ffffffffffffffffffffffffffffffffffffffff16815260200190815260200160002060008373ffffffffffffffffffffffffffffffffffffffff1673ffffffffffffffffffffffffffffffffffffffff168152602001908152602001600020600080820160006101000a81549073ffffffffffffffffffffffffffffffffffffffff02191690556000820160146101000a81549060ff0219169055505060019050919050565b6000600260008373ffffffffffffffffffffffffffffffffffffffff1673ffffffffffffffffffffffffffffffffffffffff168152602001908152602001600020549050919050565b6000600154905090565b6000600860019054906101000a900473ffffffffffffffffffffffffffffffffffffffff1673ffffffffffffffffffffffffffffffffffffffff163373ffffffffffffffffffffffffffffffffffffffff16146115eb576040517f08c379a000000000000000000000000000000000000000000000000000000000815260040180806020018281038252602c815260200180612aee602c913960400191505060405180910390fd5b6115f482611754565b1561164a576040517f08c379a0000000000000000000000000000000000000000000000000000000008152600401808060200182810382526043815260200180612b8e6043913960600191505060405180910390fd5b60405180604001604052808373ffffffffffffffffffffffffffffffffffffffff16815260200160011515815250600b60008473ffffffffffffffffffffffffffffffffffffffff1673ffffffffffffffffffffffffffffffffffffffff16815260200190815260200160002060008201518160000160006101000a81548173ffffffffffffffffffffffffffffffffffffffff021916908373ffffffffffffffffffffffffffffffffffffffff16021790555060208201518160000160146101000a81548160ff02191690831515021790555090505060019050919050565b6000600860019054906101000a900473ffffffffffffffffffffffffffffffffffffffff16905090565b6000600b60008373ffffffffffffffffffffffffffffffffffffffff1673ffffffffffffffffffffffffffffffffffffffff16815260200190815260200160002060000160149054906101000a900460ff169050919050565b606060078054600181600116156101000203166002900480601f0160208091040260200160405190810160405280929190818152602001828054600181600116156101000203166002900480156118455780601f1061181a57610100808354040283529160200191611845565b820191906000526020600020905b81548152906001019060200180831161182857829003601f168201915b5050505050905090565b60006118ab600360008473ffffffffffffffffffffffffffffffffffffffff1673ffffffffffffffffffffffffffffffffffffffff1681526020019081526020016000205461189d8461135c565b61229490919063ffffffff16565b9050919050565b60006119756118bf611d85565b84611970856040518060600160405280602c8152602001612c4d602c9139600460006118e9611d85565b73ffffffffffffffffffffffffffffffffffffffff1673ffffffffffffffffffffffffffffffffffffffff16815260200190815260200160002060008a73ffffffffffffffffffffffffffffffffffffffff1673ffffffffffffffffffffffffffffffffffffffff1681526020019081526020016000205461253e9092919063ffffffff16565b611d8d565b6001905092915050565b600061198a33611754565b8061199a575061199983611754565b5b156119b0576119a983836125fe565b9050611a6f565b6119ba338461205d565b15611a6a576000809050600083905060006119d433611c5c565b90506119df3361215b565b1580156119f257506119f033612174565b155b15611a3757611a1f6064611a11600954886121c490919063ffffffff16565b61224a90919063ffffffff16565b9250611a34838661229490919063ffffffff16565b91505b611a4186836125fe565b15611a6657611a4f866122de565b611a5a8584836123ab565b60019350505050611a6f565b5050505b600090505b92915050565b6000600860019054906101000a900473ffffffffffffffffffffffffffffffffffffffff1673ffffffffffffffffffffffffffffffffffffffff163373ffffffffffffffffffffffffffffffffffffffff1614611b1d576040517f08c379a000000000000000000000000000000000000000000000000000000000815260040180806020018281038252602c815260200180612aee602c913960400191505060405180910390fd5b611b2682611d2c565b15611b7c576040517f08c379a0000000000000000000000000000000000000000000000000000000008152600401808060200182810382526045815260200180612ce16045913960600191505060405180910390fd5b60405180604001604052808373ffffffffffffffffffffffffffffffffffffffff16815260200160011515815250600c60008473ffffffffffffffffffffffffffffffffffffffff1673ffffffffffffffffffffffffffffffffffffffff16815260200190815260200160002060008201518160000160006101000a81548173ffffffffffffffffffffffffffffffffffffffff021916908373ffffffffffffffffffffffffffffffffffffffff16021790555060208201518160000160146101000a81548160ff02191690831515021790555090505060019050919050565b6000600360008373ffffffffffffffffffffffffffffffffffffffff1673ffffffffffffffffffffffffffffffffffffffff168152602001908152602001600020549050919050565b6000600460008473ffffffffffffffffffffffffffffffffffffffff1673ffffffffffffffffffffffffffffffffffffffff16815260200190815260200160002060008373ffffffffffffffffffffffffffffffffffffffff1673ffffffffffffffffffffffffffffffffffffffff16815260200190815260200160002054905092915050565b6000600c60008373ffffffffffffffffffffffffffffffffffffffff1673ffffffffffffffffffffffffffffffffffffffff16815260200190815260200160002060000160149054906101000a900460ff169050919050565b600033905090565b600073ffffffffffffffffffffffffffffffffffffffff168373ffffffffffffffffffffffffffffffffffffffff161415611e13576040517f08c379a000000000000000000000000000000000000000000000000000000000815260040180806020018281038252602b815260200180612a53602b913960400191505060405180910390fd5b600073ffffffffffffffffffffffffffffffffffffffff168273ffffffffffffffffffffffffffffffffffffffff161415611e99576040517f08c379a00000000000000000000000000000000000000000000000000000000081526004018080602001828103825260298152602001806129fd6029913960400191505060405180910390fd5b80600460008573ffffffffffffffffffffffffffffffffffffffff1673ffffffffffffffffffffffffffffffffffffffff16815260200190815260200160002060008473ffffffffffffffffffffffffffffffffffffffff1673ffffffffffffffffffffffffffffffffffffffff168152602001908152602001600020819055508173ffffffffffffffffffffffffffffffffffffffff168373ffffffffffffffffffffffffffffffffffffffff167f8c5be1e5ebec7d5bd14f71427d1e84f3dd0314c0f7b2291e5b200ac8c7c3b925836040518082815260200191505060405180910390a3505050565b6000611f9184848461261c565b61205284611f9d611d85565b61204d856040518060600160405280602f8152602001612abf602f9139600460008b73ffffffffffffffffffffffffffffffffffffffff1673ffffffffffffffffffffffffffffffffffffffff1681526020019081526020016000206000612003611d85565b73ffffffffffffffffffffffffffffffffffffffff1673ffffffffffffffffffffffffffffffffffffffff1681526020019081526020016000205461253e9092919063ffffffff16565b611d8d565b600190509392505050565b600061206882611d2c565b806120fc5750600d60008373ffffffffffffffffffffffffffffffffffffffff1673ffffffffffffffffffffffffffffffffffffffff16815260200190815260200160002060008473ffffffffffffffffffffffffffffffffffffffff1673ffffffffffffffffffffffffffffffffffffffff16815260200190815260200160002060000160149054906101000a900460ff165b612151576040517f08c379a000000000000000000000000000000000000000000000000000000000815260040180806020018281038252603c815260200180612ca5603c913960400191505060405180910390fd5b6001905092915050565b600080823b905060008163ffffffff1611915050919050565b6000600260008373ffffffffffffffffffffffffffffffffffffffff1673ffffffffffffffffffffffffffffffffffffffff1681526020019081526020016000205462093a804203119050919050565b6000808314156121d75760009050612244565b60008284029050828482816121e857fe5b041461223f576040517f08c379a0000000000000000000000000000000000000000000000000000000008152600401808060200182810382526021815260200180612c026021913960400191505060405180910390fd5b809150505b92915050565b600061228c83836040518060400160405280601a81526020017f536166654d6174683a206469766973696f6e206279207a65726f0000000000008152506128e1565b905092915050565b60006122d683836040518060400160405280601e81526020017f536166654d6174683a207375627472616374696f6e206f766572666c6f77000081525061253e565b905092915050565b6122e78161215b565b6123a8576000600260008373ffffffffffffffffffffffffffffffffffffffff1673ffffffffffffffffffffffffffffffffffffffff168152602001908152602001600020549050600042905061235b8161234d8460005461229490919063ffffffff16565b61241e90919063ffffffff16565b60008190555080600260008573ffffffffffffffffffffffffffffffffffffffff1673ffffffffffffffffffffffffffffffffffffffff1681526020019081526020016000208190555050505b50565b808311156123fd5760006123c8828561229490919063ffffffff16565b90506123f1836123e38360015461229490919063ffffffff16565b61241e90919063ffffffff16565b60018190555050612419565b6124128260015461241e90919063ffffffff16565b6001819055505b505050565b60008082840190508381101561249c576040517f08c379a000000000000000000000000000000000000000000000000000000000815260040180806020018281038252601b8152602001807f536166654d6174683a206164646974696f6e206f766572666c6f77000000000081525060200191505060405180910390fd5b8091505092915050565b6000806124b2846129a7565b905060006124de60026124d06005548761224a90919063ffffffff16565b61224a90919063ffffffff16565b9050600061250a60026124fc6000548661224a90919063ffffffff16565b6121c490919063ffffffff16565b905061253360015461252583856121c490919063ffffffff16565b6121c490919063ffffffff16565b935050505092915050565b60008383111582906125eb576040517f08c379a00000000000000000000000000000000000000000000000000000000081526004018080602001828103825283818151815260200191508051906020019080838360005b838110156125b0578082015181840152602081019050612595565b50505050905090810190601f1680156125dd5780820380516001836020036101000a031916815260200191505b509250505060405180910390fd5b5060008385039050809150509392505050565b600061261261260b611d85565b848461261c565b6001905092915050565b600073ffffffffffffffffffffffffffffffffffffffff168373ffffffffffffffffffffffffffffffffffffffff1614156126a2576040517f08c379a000000000000000000000000000000000000000000000000000000000815260040180806020018281038252602c815260200180612c79602c913960400191505060405180910390fd5b600073ffffffffffffffffffffffffffffffffffffffff168273ffffffffffffffffffffffffffffffffffffffff161415612728576040517f08c379a000000000000000000000000000000000000000000000000000000000815260040180806020018281038252602a815260200180612c23602a913960400191505060405180910390fd5b6127338383836129f7565b61279f816040518060600160405280602d8152602001612a26602d9139600360008773ffffffffffffffffffffffffffffffffffffffff1673ffffffffffffffffffffffffffffffffffffffff1681526020019081526020016000205461253e9092919063ffffffff16565b600360008573ffffffffffffffffffffffffffffffffffffffff1673ffffffffffffffffffffffffffffffffffffffff1681526020019081526020016000208190555061283481600360008573ffffffffffffffffffffffffffffffffffffffff1673ffffffffffffffffffffffffffffffffffffffff1681526020019081526020016000205461241e90919063ffffffff16565b600360008473ffffffffffffffffffffffffffffffffffffffff1673ffffffffffffffffffffffffffffffffffffffff168152602001908152602001600020819055508173ffffffffffffffffffffffffffffffffffffffff168373ffffffffffffffffffffffffffffffffffffffff167fddf252ad1be2c89b69c2b068fc378daa952ba7f163c4a11628f55a4df523b3ef836040518082815260200191505060405180910390a3505050565b6000808311829061298d576040517f08c379a00000000000000000000000000000000000000000000000000000000081526004018080602001828103825283818151815260200191508051906020019080838360005b83811015612952578082015181840152602081019050612937565b50505050905090810190601f16801561297f5780820380516001836020036101000a031916815260200191505b509250505060405180910390fd5b50600083858161299957fe5b049050809150509392505050565b6000600260008373ffffffffffffffffffffffffffffffffffffffff1673ffffffffffffffffffffffffffffffffffffffff1681526020019081526020016000205462093a804203039050919050565b50505056fe4a757374486f646c426173653a20617070726f766520746f20746865207a65726f20616464726573734a757374486f646c426173653a207472616e7366657220616d6f756e7420657863656564732062616c616e63654a757374486f646c426173653a20617070726f76652066726f6d20746865207a65726f20616464726573734a757374486f646c3a2061646472657373206973206e6f742070726573656e7420696e2074686520726563697069656e7420657863657074696f6e73206c6973744a757374486f646c426173653a207472616e7366657220616d6f756e74206578636565647320616c6c6f77616e63654a757374486f646c3a206f6e6c79206f776e65722063616e20706572666f726d207468697320616374696f6e4a757374486f646c3a2061646472657373206973206e6f742070726573656e7420696e207468652070656e616c747920657863657074696f6e73206c6973744a757374486f646c3a206164647265737320697320616c72656164792070726573656e7420696e207468652077686974656c6973744a757374486f646c3a206164647265737320697320616c72656164792070726573656e7420696e207468652070656e616c747920657863657074696f6e73206c6973744a757374486f646c3a2061646472657373206973206e6f742070726573656e7420696e207468652077686974656c697374536166654d6174683a206d756c7469706c69636174696f6e206f766572666c6f774a757374486f646c426173653a207472616e7366657220746f20746865207a65726f20616464726573734a757374486f646c426173653a2064656372656173656420616c6c6f77616e63652062656c6f77207a65726f4a757374486f646c426173653a207472616e736665722066726f6d20746865207a65726f20616464726573734a757374486f646c3a20796f7520617265206e6f7420616c6c6f77656420746f2073656e6420746f6b656e7320746f207468617420616464726573734a757374486f646c3a206164647265737320697320616c72656164792070726573656e7420696e2074686520726563697069656e7420657863657074696f6e73206c697374a264697066735822122010ec6ffc539ad998067c98a5e8e0d903d587345b91d3b493acb3468fc8ed6ba464736f6c634300060600334a757374486f646c426173653a206d696e7420746f20746865207a65726f2061646472657373",
  "immutableReferences": {},
  "source": "pragma solidity ^0.6.0;\n\nimport \"./JustHodlBase.sol\";\n\n/*   __    __\n    /  |  /  |\n    $$ |  $$ |\n    $$ |__$$ |\n    $$    $$ |     Just Hodl\n    $$$$$$$$ |     $JHODL\n    $$ |  $$ |\n    $$ |  $$ |\n    $$ /  $$ /\n\n    The Token For The Hodlers.\n\n    More informations at https://justhodl.finance\n*/\n\ncontract JustHodl is JustHodlBase {\n    address private owner;\n    uint256 private penaltyRatio = 10;\n    uint256 private maxSupply = 1000 * (10 ** 18);\n\n    struct Addr {\n        address _address;\n        bool exists;\n    }\n\n    mapping (address => Addr) private penaltyExceptions;\n    mapping (address => Addr) private recipientExceptions;\n    mapping (address => mapping (address => Addr)) private whitelistedSenders;\n\n    modifier _onlyOwner() {\n        require(msg.sender == owner, \"JustHodl: only owner can perform this action\");\n        _;\n    }\n\n    constructor() public payable JustHodlBase(\"JustHodl\", \"JHODL\") {\n        owner = msg.sender;\n        _mint(msg.sender, maxSupply);\n    }\n\n    function getOwner() public view returns (address) {\n        return owner;\n    }\n\n    function setOwner(address _address) public _onlyOwner {\n        owner = _address;\n    }\n\n    function isPenaltyException(address _address) public view returns (bool) {\n        return penaltyExceptions[_address].exists;\n    }\n\n    function addPenaltyException(address _address) public _onlyOwner returns (bool) {\n        require(!isPenaltyException(_address), \"JustHodl: address is already present in the penalty exceptions list\");\n        penaltyExceptions[_address] = Addr(_address, true);\n        return true;\n    }\n\n    function removePenaltyException(address _address) public _onlyOwner returns (bool) {\n        require(isPenaltyException(_address), \"JustHodl: address is not present in the penalty exceptions list\");\n        delete penaltyExceptions[_address];\n        return true;\n    }\n\n    function isRecipientException(address _address) public view returns (bool) {\n        return recipientExceptions[_address].exists;\n    }\n\n    function addRecipientException(address _address) public _onlyOwner returns (bool) {\n        require(!isRecipientException(_address), \"JustHodl: address is already present in the recipient exceptions list\");\n        recipientExceptions[_address] = Addr(_address, true);\n        return true;\n    }\n\n    function removeRecipientException(address _address) public _onlyOwner returns (bool) {\n        require(isRecipientException(_address), \"JustHodl: address is not present in the recipient exceptions list\");\n        delete recipientExceptions[_address];\n        return true;\n    }\n\n    function isWhitelistedSender(address _address) public view returns (bool) {\n        return whitelistedSenders[msg.sender][_address].exists;\n    }\n\n    function addWhitelistedSender(address _address) public returns (bool) {\n        require(!isWhitelistedSender(_address), \"JustHodl: address is already present in the whitelist\");\n        whitelistedSenders[msg.sender][_address] = Addr(_address, true);\n        return true;\n    }\n\n    function removeWhitelistedSender(address _address) public returns (bool) {\n        require(isWhitelistedSender(_address), \"JustHodl: address is not present in the whitelist\");\n        delete whitelistedSenders[msg.sender][_address];\n        return true;\n    }\n\n    function transfer(address _to, uint256 _value) public override returns (bool) {\n        if (isPenaltyException(msg.sender) || isPenaltyException(_to)) {\n            return super.transfer(_to, _value);\n        } else {\n            if (_allowedToSend(msg.sender, _to)) {\n                uint256 penalty = 0;\n                uint256 finalValue = _value;\n                uint256 pureBalanceBeforeThx = pureBalanceOf(msg.sender);\n                if (!_isContract(msg.sender) && !_hodlMinimumAchived(msg.sender)) {\n                    penalty = _value.mul(penaltyRatio).div(100);\n                    finalValue = _value.sub(penalty);\n                }\n                if (super.transfer(_to, finalValue)) {\n                    _updateTimer(_to);\n                    _updateBonusSupply(_value, penalty, pureBalanceBeforeThx);\n                    return true;\n                }\n            }\n            return false;\n        }\n    }\n\n    function transferFrom(address _from, address _to, uint256 _value) public override returns (bool) {\n        if (isPenaltyException(_from) || isPenaltyException(_to)) {\n            return super.transferFrom(_from, _to, _value);\n        } else {\n            if (_allowedToSend(_from, _to)) {\n                uint256 penalty = 0;\n                uint256 finalValue = _value;\n                uint256 pureBalanceBeforeThx = pureBalanceOf(_from);\n                if (!_isContract(_from) && !_hodlMinimumAchived(_from)) {\n                    penalty = _value.mul(penaltyRatio).div(100);\n                    finalValue = _value.sub(penalty);\n                }\n                if (super.transferFrom(_from, _to, finalValue)) {\n                    _updateTimer(_to);\n                    _updateBonusSupply(_value, penalty, pureBalanceBeforeThx);\n                    return true;\n                }\n            }\n            return false;\n        }\n    }\n\n    function _allowedToSend(address _from, address _to) private view returns (bool) {\n        require (\n            isRecipientException(_to) || whitelistedSenders[_to][_from].exists,\n            \"JustHodl: you are not allowed to send tokens to that address\"\n        );\n        return true;\n    }\n\n    function _updateTimer(address _to) private {\n        if (!_isContract(_to)) {\n            uint256 oldLastBuy = _hodlerHodlTime[_to];\n            uint256 newLastBuy = now;\n            _totalHodlSinceLastBuy = _totalHodlSinceLastBuy.sub(oldLastBuy).add(newLastBuy);\n            _hodlerHodlTime[_to] = newLastBuy;\n        }\n    }\n\n    function _updateBonusSupply(uint256 _value, uint256 _penalty, uint256 _pureBalanceBeforeThx) private {\n        if (_value > _pureBalanceBeforeThx) {\n            uint256 spentBonus = _value.sub(_pureBalanceBeforeThx);\n            _bonusSupply = _bonusSupply.sub(spentBonus).add(_penalty);\n        } else {\n            _bonusSupply = _bonusSupply.add(_penalty);\n        }\n    }\n\n    function _isContract(address _address) private view returns (bool) {\n        uint32 size;\n        assembly {\n            size := extcodesize(_address)\n        }\n        return (size > 0);\n    }\n}\n",
  "sourcePath": "/home/minato/projects/crypto/project-hodler/contracts/JustHodl.sol",
  "compiler": {
    "name": "solc",
    "version": "0.6.6+commit.6c089d02.Emscripten.clang"
  },
  "schemaVersion": "3.3.1",
  "updatedAt": "2020-10-19T08:41:08.461Z",
  "devdoc": {
    "methods": {}
  },
  "userdoc": {
    "methods": {}
  }
}