{
  "contractName": "JustHodl",
  "abi": [
    {
      "inputs": [],
      "stateMutability": "payable",
      "type": "constructor"
    },
    {
      "anonymous": false,
      "inputs": [
        {
          "indexed": true,
          "internalType": "address",
          "name": "owner",
          "type": "address"
        },
        {
          "indexed": true,
          "internalType": "address",
          "name": "spender",
          "type": "address"
        },
        {
          "indexed": false,
          "internalType": "uint256",
          "name": "value",
          "type": "uint256"
        }
      ],
      "name": "Approval",
      "type": "event"
    },
    {
      "anonymous": false,
      "inputs": [
        {
          "indexed": true,
          "internalType": "address",
          "name": "from",
          "type": "address"
        },
        {
          "indexed": true,
          "internalType": "address",
          "name": "to",
          "type": "address"
        },
        {
          "indexed": false,
          "internalType": "uint256",
          "name": "value",
          "type": "uint256"
        }
      ],
      "name": "Transfer",
      "type": "event"
    },
    {
      "inputs": [
        {
          "internalType": "address",
          "name": "owner",
          "type": "address"
        },
        {
          "internalType": "address",
          "name": "spender",
          "type": "address"
        }
      ],
      "name": "allowance",
      "outputs": [
        {
          "internalType": "uint256",
          "name": "",
          "type": "uint256"
        }
      ],
      "stateMutability": "view",
      "type": "function"
    },
    {
      "inputs": [
        {
          "internalType": "address",
          "name": "spender",
          "type": "address"
        },
        {
          "internalType": "uint256",
          "name": "amount",
          "type": "uint256"
        }
      ],
      "name": "approve",
      "outputs": [
        {
          "internalType": "bool",
          "name": "",
          "type": "bool"
        }
      ],
      "stateMutability": "nonpayable",
      "type": "function"
    },
    {
      "inputs": [
        {
          "internalType": "address",
          "name": "account",
          "type": "address"
        }
      ],
      "name": "balanceOf",
      "outputs": [
        {
          "internalType": "uint256",
          "name": "",
          "type": "uint256"
        }
      ],
      "stateMutability": "view",
      "type": "function"
    },
    {
      "inputs": [],
      "name": "bonusSupply",
      "outputs": [
        {
          "internalType": "uint256",
          "name": "",
          "type": "uint256"
        }
      ],
      "stateMutability": "view",
      "type": "function"
    },
    {
      "inputs": [],
      "name": "decimals",
      "outputs": [
        {
          "internalType": "uint8",
          "name": "",
          "type": "uint8"
        }
      ],
      "stateMutability": "view",
      "type": "function"
    },
    {
      "inputs": [
        {
          "internalType": "address",
          "name": "spender",
          "type": "address"
        },
        {
          "internalType": "uint256",
          "name": "subtractedValue",
          "type": "uint256"
        }
      ],
      "name": "decreaseAllowance",
      "outputs": [
        {
          "internalType": "bool",
          "name": "",
          "type": "bool"
        }
      ],
      "stateMutability": "nonpayable",
      "type": "function"
    },
    {
      "inputs": [
        {
          "internalType": "address",
          "name": "_address",
          "type": "address"
        }
      ],
      "name": "hodlMinimumAchived",
      "outputs": [
        {
          "internalType": "bool",
          "name": "",
          "type": "bool"
        }
      ],
      "stateMutability": "view",
      "type": "function"
    },
    {
      "inputs": [
        {
          "internalType": "address",
          "name": "_address",
          "type": "address"
        }
      ],
      "name": "hodlTimeOf",
      "outputs": [
        {
          "internalType": "uint256",
          "name": "",
          "type": "uint256"
        }
      ],
      "stateMutability": "view",
      "type": "function"
    },
    {
      "inputs": [],
      "name": "holdersSupply",
      "outputs": [
        {
          "internalType": "uint256",
          "name": "",
          "type": "uint256"
        }
      ],
      "stateMutability": "view",
      "type": "function"
    },
    {
      "inputs": [
        {
          "internalType": "address",
          "name": "spender",
          "type": "address"
        },
        {
          "internalType": "uint256",
          "name": "addedValue",
          "type": "uint256"
        }
      ],
      "name": "increaseAllowance",
      "outputs": [
        {
          "internalType": "bool",
          "name": "",
          "type": "bool"
        }
      ],
      "stateMutability": "nonpayable",
      "type": "function"
    },
    {
      "inputs": [],
      "name": "name",
      "outputs": [
        {
          "internalType": "string",
          "name": "",
          "type": "string"
        }
      ],
      "stateMutability": "view",
      "type": "function"
    },
    {
      "inputs": [
        {
          "internalType": "address",
          "name": "_address",
          "type": "address"
        }
      ],
      "name": "pureBalanceOf",
      "outputs": [
        {
          "internalType": "uint256",
          "name": "",
          "type": "uint256"
        }
      ],
      "stateMutability": "view",
      "type": "function"
    },
    {
      "inputs": [
        {
          "internalType": "address",
          "name": "_address",
          "type": "address"
        }
      ],
      "name": "pureBonusOf",
      "outputs": [
        {
          "internalType": "uint256",
          "name": "",
          "type": "uint256"
        }
      ],
      "stateMutability": "view",
      "type": "function"
    },
    {
      "inputs": [],
      "name": "symbol",
      "outputs": [
        {
          "internalType": "string",
          "name": "",
          "type": "string"
        }
      ],
      "stateMutability": "view",
      "type": "function"
    },
    {
      "inputs": [],
      "name": "totalHodlSinceLastBuy",
      "outputs": [
        {
          "internalType": "uint256",
          "name": "",
          "type": "uint256"
        }
      ],
      "stateMutability": "view",
      "type": "function"
    },
    {
      "inputs": [],
      "name": "totalSupply",
      "outputs": [
        {
          "internalType": "uint256",
          "name": "",
          "type": "uint256"
        }
      ],
      "stateMutability": "view",
      "type": "function"
    },
    {
      "inputs": [],
      "name": "getOwner",
      "outputs": [
        {
          "internalType": "address",
          "name": "",
          "type": "address"
        }
      ],
      "stateMutability": "view",
      "type": "function"
    },
    {
      "inputs": [
        {
          "internalType": "address",
          "name": "_address",
          "type": "address"
        }
      ],
      "name": "setOwner",
      "outputs": [],
      "stateMutability": "nonpayable",
      "type": "function"
    },
    {
      "inputs": [
        {
          "internalType": "address",
          "name": "_address",
          "type": "address"
        }
      ],
      "name": "isSenderException",
      "outputs": [
        {
          "internalType": "bool",
          "name": "",
          "type": "bool"
        }
      ],
      "stateMutability": "view",
      "type": "function"
    },
    {
      "inputs": [
        {
          "internalType": "address",
          "name": "_address",
          "type": "address"
        }
      ],
      "name": "addSenderException",
      "outputs": [
        {
          "internalType": "bool",
          "name": "",
          "type": "bool"
        }
      ],
      "stateMutability": "nonpayable",
      "type": "function"
    },
    {
      "inputs": [
        {
          "internalType": "address",
          "name": "_address",
          "type": "address"
        }
      ],
      "name": "removeSenderException",
      "outputs": [
        {
          "internalType": "bool",
          "name": "",
          "type": "bool"
        }
      ],
      "stateMutability": "nonpayable",
      "type": "function"
    },
    {
      "inputs": [
        {
          "internalType": "address",
          "name": "_address",
          "type": "address"
        }
      ],
      "name": "isRecipientException",
      "outputs": [
        {
          "internalType": "bool",
          "name": "",
          "type": "bool"
        }
      ],
      "stateMutability": "view",
      "type": "function"
    },
    {
      "inputs": [
        {
          "internalType": "address",
          "name": "_address",
          "type": "address"
        }
      ],
      "name": "addRecipientException",
      "outputs": [
        {
          "internalType": "bool",
          "name": "",
          "type": "bool"
        }
      ],
      "stateMutability": "nonpayable",
      "type": "function"
    },
    {
      "inputs": [
        {
          "internalType": "address",
          "name": "_address",
          "type": "address"
        }
      ],
      "name": "removeRecipientException",
      "outputs": [
        {
          "internalType": "bool",
          "name": "",
          "type": "bool"
        }
      ],
      "stateMutability": "nonpayable",
      "type": "function"
    },
    {
      "inputs": [
        {
          "internalType": "address",
          "name": "_address",
          "type": "address"
        }
      ],
      "name": "isWhitelistedSender",
      "outputs": [
        {
          "internalType": "bool",
          "name": "",
          "type": "bool"
        }
      ],
      "stateMutability": "view",
      "type": "function"
    },
    {
      "inputs": [
        {
          "internalType": "address",
          "name": "_address",
          "type": "address"
        }
      ],
      "name": "addWhitelistedSender",
      "outputs": [
        {
          "internalType": "bool",
          "name": "",
          "type": "bool"
        }
      ],
      "stateMutability": "nonpayable",
      "type": "function"
    },
    {
      "inputs": [
        {
          "internalType": "address",
          "name": "_address",
          "type": "address"
        }
      ],
      "name": "removeWhitelistedSender",
      "outputs": [
        {
          "internalType": "bool",
          "name": "",
          "type": "bool"
        }
      ],
      "stateMutability": "nonpayable",
      "type": "function"
    },
    {
      "inputs": [
        {
          "internalType": "address",
          "name": "_to",
          "type": "address"
        },
        {
          "internalType": "uint256",
          "name": "_value",
          "type": "uint256"
        }
      ],
      "name": "transfer",
      "outputs": [
        {
          "internalType": "bool",
          "name": "",
          "type": "bool"
        }
      ],
      "stateMutability": "nonpayable",
      "type": "function"
    },
    {
      "inputs": [
        {
          "internalType": "address",
          "name": "_from",
          "type": "address"
        },
        {
          "internalType": "address",
          "name": "_to",
          "type": "address"
        },
        {
          "internalType": "uint256",
          "name": "_value",
          "type": "uint256"
        }
      ],
      "name": "transferFrom",
      "outputs": [
        {
          "internalType": "bool",
          "name": "",
          "type": "bool"
        }
      ],
      "stateMutability": "nonpayable",
      "type": "function"
    }
  ],
  "bytecode": "0x608060405260008055600060015560006002556000600355600a600b55683635c9adc5dea00000600c556040518060400160405280600881526020017f4a757374486f646c0000000000000000000000000000000000000000000000008152506040518060400160405280600281526020017f4a480000000000000000000000000000000000000000000000000000000000008152508160089080519060200190620000ad92919062000392565b508060099080519060200190620000c692919062000392565b506012600a60006101000a81548160ff021916908360ff160217905550505033600a60016101000a81548173ffffffffffffffffffffffffffffffffffffffff021916908373ffffffffffffffffffffffffffffffffffffffff1602179055506200013a33600c546200014060201b60201c565b62000441565b600073ffffffffffffffffffffffffffffffffffffffff168273ffffffffffffffffffffffffffffffffffffffff161415620001c8576040517f08c379a00000000000000000000000000000000000000000000000000000000081526004018080602001828103825260268152602001806200394e6026913960400191505060405180910390fd5b620001dc600083836200030460201b60201c565b620001f8816007546200030960201b62002afd1790919060201c565b6007819055506200025781600560008573ffffffffffffffffffffffffffffffffffffffff1673ffffffffffffffffffffffffffffffffffffffff168152602001908152602001600020546200030960201b62002afd1790919060201c565b600560008473ffffffffffffffffffffffffffffffffffffffff1673ffffffffffffffffffffffffffffffffffffffff168152602001908152602001600020819055508173ffffffffffffffffffffffffffffffffffffffff16600073ffffffffffffffffffffffffffffffffffffffff167fddf252ad1be2c89b69c2b068fc378daa952ba7f163c4a11628f55a4df523b3ef836040518082815260200191505060405180910390a35050565b505050565b60008082840190508381101562000388576040517f08c379a000000000000000000000000000000000000000000000000000000000815260040180806020018281038252601b8152602001807f536166654d6174683a206164646974696f6e206f766572666c6f77000000000081525060200191505060405180910390fd5b8091505092915050565b828054600181600116156101000203166002900490600052602060002090601f016020900481019282601f10620003d557805160ff191683800117855562000406565b8280016001018555821562000406579182015b8281111562000405578251825591602001919060010190620003e8565b5b50905062000415919062000419565b5090565b6200043e91905b808211156200043a57600081600090555060010162000420565b5090565b90565b6134fd80620004516000396000f3fe608060405234801561001057600080fd5b50600436106101cf5760003560e01c806370a082311161010457806397c540a8116100a2578063be49457311610071578063be49457314610a0a578063dd62ed3e14610a62578063f07ae52f14610ada578063f19211db14610b36576101cf565b806397c540a81461088a578063a457c2d7146108e2578063a9059cbb14610948578063baedc445146109ae576101cf565b8063863843bc116100de578063863843bc1461074357806388f9e04f14610761578063893d20e8146107bd57806395d89b4114610807576101cf565b806370a082311461063757806371b766171461068f5780637851eca2146106eb576101cf565b80631b9e2fad11610171578063395093511161014b57806339509351146104fb57806347d8f55914610561578063664e43401461057f57806367cca592146105db576101cf565b80631b9e2fad146103f557806323b872dd14610451578063313ce567146104d7576101cf565b806306fdde03116101ad57806306fdde03146102aa578063095ea7b31461032d57806313af40351461039357806318160ddd146103d7576101cf565b806302640bdc146101d457806303d3d3ca1461023057806305ff91101461024e575b600080fd5b610216600480360360208110156101ea57600080fd5b81019080803573ffffffffffffffffffffffffffffffffffffffff169060200190929190505050610b92565b604051808215151515815260200191505060405180910390f35b610238610beb565b6040518082815260200191505060405180910390f35b6102906004803603602081101561026457600080fd5b81019080803573ffffffffffffffffffffffffffffffffffffffff169060200190929190505050610bf5565b604051808215151515815260200191505060405180910390f35b6102b2610d81565b6040518080602001828103825283818151815260200191508051906020019080838360005b838110156102f25780820151818401526020810190506102d7565b50505050905090810190601f16801561031f5780820380516001836020036101000a031916815260200191505b509250505060405180910390f35b6103796004803603604081101561034357600080fd5b81019080803573ffffffffffffffffffffffffffffffffffffffff16906020019092919080359060200190929190505050610e23565b604051808215151515815260200191505060405180910390f35b6103d5600480360360208110156103a957600080fd5b81019080803573ffffffffffffffffffffffffffffffffffffffff169060200190929190505050610e41565b005b6103df610f2b565b6040518082815260200191505060405180910390f35b6104376004803603602081101561040b57600080fd5b81019080803573ffffffffffffffffffffffffffffffffffffffff169060200190929190505050610f35565b604051808215151515815260200191505060405180910390f35b6104bd6004803603606081101561046757600080fd5b81019080803573ffffffffffffffffffffffffffffffffffffffff169060200190929190803573ffffffffffffffffffffffffffffffffffffffff16906020019092919080359060200190929190505050610fcb565b604051808215151515815260200191505060405180910390f35b6104df61117c565b604051808260ff1660ff16815260200191505060405180910390f35b6105476004803603604081101561051157600080fd5b81019080803573ffffffffffffffffffffffffffffffffffffffff16906020019092919080359060200190929190505050611193565b604051808215151515815260200191505060405180910390f35b610569611246565b6040518082815260200191505060405180910390f35b6105c16004803603602081101561059557600080fd5b81019080803573ffffffffffffffffffffffffffffffffffffffff16906020019092919050505061124f565b604051808215151515815260200191505060405180910390f35b61061d600480360360208110156105f157600080fd5b81019080803573ffffffffffffffffffffffffffffffffffffffff1690602001909291905050506113cd565b604051808215151515815260200191505060405180910390f35b6106796004803603602081101561064d57600080fd5b81019080803573ffffffffffffffffffffffffffffffffffffffff1690602001909291905050506115b4565b6040518082815260200191505060405180910390f35b6106d1600480360360208110156106a557600080fd5b81019080803573ffffffffffffffffffffffffffffffffffffffff169060200190929190505050611631565b604051808215151515815260200191505060405180910390f35b61072d6004803603602081101561070157600080fd5b81019080803573ffffffffffffffffffffffffffffffffffffffff169060200190929190505050611754565b6040518082815260200191505060405180910390f35b61074b61179d565b6040518082815260200191505060405180910390f35b6107a36004803603602081101561077757600080fd5b81019080803573ffffffffffffffffffffffffffffffffffffffff1690602001909291905050506117a7565b604051808215151515815260200191505060405180910390f35b6107c5611808565b604051808273ffffffffffffffffffffffffffffffffffffffff1673ffffffffffffffffffffffffffffffffffffffff16815260200191505060405180910390f35b61080f611832565b6040518080602001828103825283818151815260200191508051906020019080838360005b8381101561084f578082015181840152602081019050610834565b50505050905090810190601f16801561087c5780820380516001836020036101000a031916815260200191505b509250505060405180910390f35b6108cc600480360360208110156108a057600080fd5b81019080803573ffffffffffffffffffffffffffffffffffffffff1690602001909291905050506118d4565b6040518082815260200191505060405180910390f35b61092e600480360360408110156108f857600080fd5b81019080803573ffffffffffffffffffffffffffffffffffffffff16906020019092919080359060200190929190505050611937565b604051808215151515815260200191505060405180910390f35b6109946004803603604081101561095e57600080fd5b81019080803573ffffffffffffffffffffffffffffffffffffffff16906020019092919080359060200190929190505050611a04565b604051808215151515815260200191505060405180910390f35b6109f0600480360360208110156109c457600080fd5b81019080803573ffffffffffffffffffffffffffffffffffffffff169060200190929190505050611bb3565b604051808215151515815260200191505060405180910390f35b610a4c60048036036020811015610a2057600080fd5b81019080803573ffffffffffffffffffffffffffffffffffffffff169060200190929190505050611d9a565b6040518082815260200191505060405180910390f35b610ac460048036036040811015610a7857600080fd5b81019080803573ffffffffffffffffffffffffffffffffffffffff169060200190929190803573ffffffffffffffffffffffffffffffffffffffff169060200190929190505050611de3565b6040518082815260200191505060405180910390f35b610b1c60048036036020811015610af057600080fd5b81019080803573ffffffffffffffffffffffffffffffffffffffff169060200190929190505050611e6a565b604051808215151515815260200191505060405180910390f35b610b7860048036036020811015610b4c57600080fd5b81019080803573ffffffffffffffffffffffffffffffffffffffff169060200190929190505050611ff6565b604051808215151515815260200191505060405180910390f35b6000600d60008373ffffffffffffffffffffffffffffffffffffffff1673ffffffffffffffffffffffffffffffffffffffff16815260200190815260200160002060000160149054906101000a900460ff169050919050565b6000600354905090565b6000600a60019054906101000a900473ffffffffffffffffffffffffffffffffffffffff1673ffffffffffffffffffffffffffffffffffffffff163373ffffffffffffffffffffffffffffffffffffffff1614610c9d576040517f08c379a000000000000000000000000000000000000000000000000000000000815260040180806020018281038252602c815260200180613312602c913960400191505060405180910390fd5b610ca682611ff6565b610cfb576040517f08c379a00000000000000000000000000000000000000000000000000000000081526004018080602001828103825260418152602001806132a26041913960600191505060405180910390fd5b600e60008373ffffffffffffffffffffffffffffffffffffffff1673ffffffffffffffffffffffffffffffffffffffff168152602001908152602001600020600080820160006101000a81549073ffffffffffffffffffffffffffffffffffffffff02191690556000820160146101000a81549060ff0219169055505060019050919050565b606060088054600181600116156101000203166002900480601f016020809104026020016040519081016040528092919081815260200182805460018160011615610100020316600290048015610e195780601f10610dee57610100808354040283529160200191610e19565b820191906000526020600020905b815481529060010190602001808311610dfc57829003601f168201915b5050505050905090565b6000610e37610e3061204f565b8484612057565b6001905092915050565b600a60019054906101000a900473ffffffffffffffffffffffffffffffffffffffff1673ffffffffffffffffffffffffffffffffffffffff163373ffffffffffffffffffffffffffffffffffffffff1614610ee7576040517f08c379a000000000000000000000000000000000000000000000000000000000815260040180806020018281038252602c815260200180613312602c913960400191505060405180910390fd5b80600a60016101000a81548173ffffffffffffffffffffffffffffffffffffffff021916908373ffffffffffffffffffffffffffffffffffffffff16021790555050565b6000600754905090565b6000600f60003373ffffffffffffffffffffffffffffffffffffffff1673ffffffffffffffffffffffffffffffffffffffff16815260200190815260200160002060008373ffffffffffffffffffffffffffffffffffffffff1673ffffffffffffffffffffffffffffffffffffffff16815260200190815260200160002060000160149054906101000a900460ff169050919050565b600080610fd78561224e565b90506000610fe48561224e565b9050610ff086866122bb565b1561116e5760008090506000859050600061100a89611d9a565b9050600061101789611d9a565b905085801561102c575061102a8a6117a7565b155b1561107157611059606461104b600b548b61243190919063ffffffff16565b6124b790919063ffffffff16565b935061106e848961250190919063ffffffff16565b92505b61107c8a8a8561254b565b15611169576000841115611120576110dc84600560008d73ffffffffffffffffffffffffffffffffffffffff1673ffffffffffffffffffffffffffffffffffffffff1681526020019081526020016000205461250190919063ffffffff16565b600560008c73ffffffffffffffffffffffffffffffffffffffff1673ffffffffffffffffffffffffffffffffffffffff168152602001908152602001600020819055505b61112c8a8a8888612624565b6111388a8787846127de565b61114388858461286e565b61115086868587866128e1565b61115a8a8a612953565b60019650505050505050611175565b505050505b6000925050505b9392505050565b6000600a60009054906101000a900460ff16905090565b600061123c6111a061204f565b8461123785600660006111b161204f565b73ffffffffffffffffffffffffffffffffffffffff1673ffffffffffffffffffffffffffffffffffffffff16815260200190815260200160002060008973ffffffffffffffffffffffffffffffffffffffff1673ffffffffffffffffffffffffffffffffffffffff16815260200190815260200160002054612afd90919063ffffffff16565b612057565b6001905092915050565b60008054905090565b600061125a82610f35565b156112b0576040517f08c379a000000000000000000000000000000000000000000000000000000000815260040180806020018281038252603581526020018061333e6035913960400191505060405180910390fd5b60405180604001604052808373ffffffffffffffffffffffffffffffffffffffff16815260200160011515815250600f60003373ffffffffffffffffffffffffffffffffffffffff1673ffffffffffffffffffffffffffffffffffffffff16815260200190815260200160002060008473ffffffffffffffffffffffffffffffffffffffff1673ffffffffffffffffffffffffffffffffffffffff16815260200190815260200160002060008201518160000160006101000a81548173ffffffffffffffffffffffffffffffffffffffff021916908373ffffffffffffffffffffffffffffffffffffffff16021790555060208201518160000160146101000a81548160ff02191690831515021790555090505060019050919050565b6000600a60019054906101000a900473ffffffffffffffffffffffffffffffffffffffff1673ffffffffffffffffffffffffffffffffffffffff163373ffffffffffffffffffffffffffffffffffffffff1614611475576040517f08c379a000000000000000000000000000000000000000000000000000000000815260040180806020018281038252602c815260200180613312602c913960400191505060405180910390fd5b61147e82610b92565b156114d4576040517f08c379a00000000000000000000000000000000000000000000000000000000081526004018080602001828103825260428152602001806132606042913960600191505060405180910390fd5b60405180604001604052808373ffffffffffffffffffffffffffffffffffffffff16815260200160011515815250600d60008473ffffffffffffffffffffffffffffffffffffffff1673ffffffffffffffffffffffffffffffffffffffff16815260200190815260200160002060008201518160000160006101000a81548173ffffffffffffffffffffffffffffffffffffffff021916908373ffffffffffffffffffffffffffffffffffffffff16021790555060208201518160000160146101000a81548160ff02191690831515021790555090505060019050919050565b600080600560008473ffffffffffffffffffffffffffffffffffffffff1673ffffffffffffffffffffffffffffffffffffffff16815260200190815260200160002054905060008111801561160e575061160d836117a7565b5b156116275761161d8382612b85565b810191505061162c565b809150505b919050565b600061163c82610f35565b611691576040517f08c379a00000000000000000000000000000000000000000000000000000000081526004018080602001828103825260318152602001806133736031913960400191505060405180910390fd5b600f60003373ffffffffffffffffffffffffffffffffffffffff1673ffffffffffffffffffffffffffffffffffffffff16815260200190815260200160002060008373ffffffffffffffffffffffffffffffffffffffff1673ffffffffffffffffffffffffffffffffffffffff168152602001908152602001600020600080820160006101000a81549073ffffffffffffffffffffffffffffffffffffffff02191690556000820160146101000a81549060ff0219169055505060019050919050565b6000600460008373ffffffffffffffffffffffffffffffffffffffff1673ffffffffffffffffffffffffffffffffffffffff168152602001908152602001600020549050919050565b6000600254905090565b600080600460008473ffffffffffffffffffffffffffffffffffffffff1673ffffffffffffffffffffffffffffffffffffffff16815260200190815260200160002054905060008111801561180057508062093a804203115b915050919050565b6000600a60019054906101000a900473ffffffffffffffffffffffffffffffffffffffff16905090565b606060098054600181600116156101000203166002900480601f0160208091040260200160405190810160405280929190818152602001828054600181600116156101000203166002900480156118ca5780601f1061189f576101008083540402835291602001916118ca565b820191906000526020600020905b8154815290600101906020018083116118ad57829003601f168201915b5050505050905090565b6000611930600560008473ffffffffffffffffffffffffffffffffffffffff1673ffffffffffffffffffffffffffffffffffffffff16815260200190815260200160002054611922846115b4565b61250190919063ffffffff16565b9050919050565b60006119fa61194461204f565b846119f5856040518060600160405280602c81526020016133ef602c91396006600061196e61204f565b73ffffffffffffffffffffffffffffffffffffffff1673ffffffffffffffffffffffffffffffffffffffff16815260200190815260200160002060008a73ffffffffffffffffffffffffffffffffffffffff1673ffffffffffffffffffffffffffffffffffffffff16815260200190815260200160002054612c559092919063ffffffff16565b612057565b6001905092915050565b600080611a103361224e565b90506000611a1d8561224e565b9050611a2933866122bb565b15611ba657600080905060008590506000611a4333611d9a565b90506000611a5089611d9a565b9050858015611a655750611a63336117a7565b155b15611aaa57611a926064611a84600b548b61243190919063ffffffff16565b6124b790919063ffffffff16565b9350611aa7848961250190919063ffffffff16565b92505b611ab48984612d15565b15611ba1576000841115611b5857611b1484600560003373ffffffffffffffffffffffffffffffffffffffff1673ffffffffffffffffffffffffffffffffffffffff1681526020019081526020016000205461250190919063ffffffff16565b600560003373ffffffffffffffffffffffffffffffffffffffff1673ffffffffffffffffffffffffffffffffffffffff168152602001908152602001600020819055505b611b64338a8888612624565b611b70338787846127de565b611b7b88858461286e565b611b8886868587866128e1565b611b92338a612953565b60019650505050505050611bad565b505050505b6000925050505b92915050565b6000600a60019054906101000a900473ffffffffffffffffffffffffffffffffffffffff1673ffffffffffffffffffffffffffffffffffffffff163373ffffffffffffffffffffffffffffffffffffffff1614611c5b576040517f08c379a000000000000000000000000000000000000000000000000000000000815260040180806020018281038252602c815260200180613312602c913960400191505060405180910390fd5b611c6482611ff6565b15611cba576040517f08c379a00000000000000000000000000000000000000000000000000000000081526004018080602001828103825260458152602001806134836045913960600191505060405180910390fd5b60405180604001604052808373ffffffffffffffffffffffffffffffffffffffff16815260200160011515815250600e60008473ffffffffffffffffffffffffffffffffffffffff1673ffffffffffffffffffffffffffffffffffffffff16815260200190815260200160002060008201518160000160006101000a81548173ffffffffffffffffffffffffffffffffffffffff021916908373ffffffffffffffffffffffffffffffffffffffff16021790555060208201518160000160146101000a81548160ff02191690831515021790555090505060019050919050565b6000600560008373ffffffffffffffffffffffffffffffffffffffff1673ffffffffffffffffffffffffffffffffffffffff168152602001908152602001600020549050919050565b6000600660008473ffffffffffffffffffffffffffffffffffffffff1673ffffffffffffffffffffffffffffffffffffffff16815260200190815260200160002060008373ffffffffffffffffffffffffffffffffffffffff1673ffffffffffffffffffffffffffffffffffffffff16815260200190815260200160002054905092915050565b6000600a60019054906101000a900473ffffffffffffffffffffffffffffffffffffffff1673ffffffffffffffffffffffffffffffffffffffff163373ffffffffffffffffffffffffffffffffffffffff1614611f12576040517f08c379a000000000000000000000000000000000000000000000000000000000815260040180806020018281038252602c815260200180613312602c913960400191505060405180910390fd5b611f1b82610b92565b611f70576040517f08c379a000000000000000000000000000000000000000000000000000000000815260040180806020018281038252603e8152602001806131ca603e913960400191505060405180910390fd5b600d60008373ffffffffffffffffffffffffffffffffffffffff1673ffffffffffffffffffffffffffffffffffffffff168152602001908152602001600020600080820160006101000a81549073ffffffffffffffffffffffffffffffffffffffff02191690556000820160146101000a81549060ff0219169055505060019050919050565b6000600e60008373ffffffffffffffffffffffffffffffffffffffff1673ffffffffffffffffffffffffffffffffffffffff16815260200190815260200160002060000160149054906101000a900460ff169050919050565b600033905090565b600073ffffffffffffffffffffffffffffffffffffffff168373ffffffffffffffffffffffffffffffffffffffff1614156120dd576040517f08c379a000000000000000000000000000000000000000000000000000000000815260040180806020018281038252602b815260200180613235602b913960400191505060405180910390fd5b600073ffffffffffffffffffffffffffffffffffffffff168273ffffffffffffffffffffffffffffffffffffffff161415612163576040517f08c379a00000000000000000000000000000000000000000000000000000000081526004018080602001828103825260298152602001806131a16029913960400191505060405180910390fd5b80600660008573ffffffffffffffffffffffffffffffffffffffff1673ffffffffffffffffffffffffffffffffffffffff16815260200190815260200160002060008473ffffffffffffffffffffffffffffffffffffffff1673ffffffffffffffffffffffffffffffffffffffff168152602001908152602001600020819055508173ffffffffffffffffffffffffffffffffffffffff168373ffffffffffffffffffffffffffffffffffffffff167f8c5be1e5ebec7d5bd14f71427d1e84f3dd0314c0f7b2291e5b200ac8c7c3b925836040518082815260200191505060405180910390a3505050565b600061225982612d33565b1580156122b45750600a60019054906101000a900473ffffffffffffffffffffffffffffffffffffffff1673ffffffffffffffffffffffffffffffffffffffff168273ffffffffffffffffffffffffffffffffffffffff1614155b9050919050565b6000600a60019054906101000a900473ffffffffffffffffffffffffffffffffffffffff1673ffffffffffffffffffffffffffffffffffffffff168373ffffffffffffffffffffffffffffffffffffffff16148061231e575061231d82612d33565b5b8061232e575061232d83610b92565b5b8061233e575061233d82611ff6565b5b806123d25750600f60008373ffffffffffffffffffffffffffffffffffffffff1673ffffffffffffffffffffffffffffffffffffffff16815260200190815260200160002060008473ffffffffffffffffffffffffffffffffffffffff1673ffffffffffffffffffffffffffffffffffffffff16815260200190815260200160002060000160149054906101000a900460ff165b612427576040517f08c379a000000000000000000000000000000000000000000000000000000000815260040180806020018281038252603c815260200180613447603c913960400191505060405180910390fd5b6001905092915050565b60008083141561244457600090506124b1565b600082840290508284828161245557fe5b04146124ac576040517f08c379a00000000000000000000000000000000000000000000000000000000081526004018080602001828103825260218152602001806133a46021913960400191505060405180910390fd5b809150505b92915050565b60006124f983836040518060400160405280601a81526020017f536166654d6174683a206469766973696f6e206279207a65726f000000000000815250612d46565b905092915050565b600061254383836040518060400160405280601e81526020017f536166654d6174683a207375627472616374696f6e206f766572666c6f770000815250612c55565b905092915050565b6000612558848484612e0c565b6126198461256461204f565b612614856040518060600160405280602f81526020016132e3602f9139600660008b73ffffffffffffffffffffffffffffffffffffffff1673ffffffffffffffffffffffffffffffffffffffff16815260200190815260200160002060006125ca61204f565b73ffffffffffffffffffffffffffffffffffffffff1673ffffffffffffffffffffffffffffffffffffffff16815260200190815260200160002054612c559092919063ffffffff16565b612057565b600190509392505050565b81801561267057506000600560008673ffffffffffffffffffffffffffffffffffffffff1673ffffffffffffffffffffffffffffffffffffffff16815260200190815260200160002054145b15612715576126c9600460008673ffffffffffffffffffffffffffffffffffffffff1673ffffffffffffffffffffffffffffffffffffffff1681526020019081526020016000205460005461250190919063ffffffff16565b6000819055506000600460008673ffffffffffffffffffffffffffffffffffffffff1673ffffffffffffffffffffffffffffffffffffffff168152602001908152602001600020819055505b80156127d8576000600460008573ffffffffffffffffffffffffffffffffffffffff1673ffffffffffffffffffffffffffffffffffffffff168152602001908152602001600020549050600042905061278b8261277d83600054612afd90919063ffffffff16565b61250190919063ffffffff16565b60008190555080600460008773ffffffffffffffffffffffffffffffffffffffff1673ffffffffffffffffffffffffffffffffffffffff1681526020019081526020016000208190555050505b50505050565b82801561282a57506000600560008673ffffffffffffffffffffffffffffffffffffffff1673ffffffffffffffffffffffffffffffffffffffff16815260200190815260200160002054145b1561284357600160008154809291906001900391905055505b8180156128505750600081145b15612868576001600081548092919060010191905055505b50505050565b808311156128c057600061288b828561250190919063ffffffff16565b90506128b4836128a68360025461250190919063ffffffff16565b612afd90919063ffffffff16565b600281905550506128dc565b6128d582600254612afd90919063ffffffff16565b6002819055505b505050565b600060035490506000849050828511156128f9578290505b86156129275761292484612916838561250190919063ffffffff16565b61250190919063ffffffff16565b91505b8515612943576129408583612afd90919063ffffffff16565b91505b8160038190555050505050505050565b600f60008373ffffffffffffffffffffffffffffffffffffffff1673ffffffffffffffffffffffffffffffffffffffff16815260200190815260200160002060008273ffffffffffffffffffffffffffffffffffffffff1673ffffffffffffffffffffffffffffffffffffffff16815260200190815260200160002060000160149054906101000a900460ff16612af95760405180604001604052808273ffffffffffffffffffffffffffffffffffffffff16815260200160011515815250600f60008473ffffffffffffffffffffffffffffffffffffffff1673ffffffffffffffffffffffffffffffffffffffff16815260200190815260200160002060008373ffffffffffffffffffffffffffffffffffffffff1673ffffffffffffffffffffffffffffffffffffffff16815260200190815260200160002060008201518160000160006101000a81548173ffffffffffffffffffffffffffffffffffffffff021916908373ffffffffffffffffffffffffffffffffffffffff16021790555060208201518160000160146101000a81548160ff0219169083151502179055509050505b5050565b600080828401905083811015612b7b576040517f08c379a000000000000000000000000000000000000000000000000000000000815260040180806020018281038252601b8152602001807f536166654d6174683a206164646974696f6e206f766572666c6f77000000000081525060200191505060405180910390fd5b8091505092915050565b600080612b90613142565b90506000612b9e858361314f565b905060008054612bb96001548561243190919063ffffffff16565b039050612c4a670de0b6b3a7640000612c3c612c2b6002612c1d612bf087670de0b6b3a76400008a026124b790919063ffffffff16565b612c0f600354670de0b6b3a76400008e026124b790919063ffffffff16565b612afd90919063ffffffff16565b6124b790919063ffffffff16565b60025461243190919063ffffffff16565b6124b790919063ffffffff16565b935050505092915050565b6000838311158290612d02576040517f08c379a00000000000000000000000000000000000000000000000000000000081526004018080602001828103825283818151815260200191508051906020019080838360005b83811015612cc7578082015181840152602081019050612cac565b50505050905090810190601f168015612cf45780820380516001836020036101000a031916815260200191505b509250505060405180910390fd5b5060008385039050809150509392505050565b6000612d29612d2261204f565b8484612e0c565b6001905092915050565b600080823b905060008111915050919050565b60008083118290612df2576040517f08c379a00000000000000000000000000000000000000000000000000000000081526004018080602001828103825283818151815260200191508051906020019080838360005b83811015612db7578082015181840152602081019050612d9c565b50505050905090810190601f168015612de45780820380516001836020036101000a031916815260200191505b509250505060405180910390fd5b506000838581612dfe57fe5b049050809150509392505050565b600073ffffffffffffffffffffffffffffffffffffffff168373ffffffffffffffffffffffffffffffffffffffff161415612e92576040517f08c379a000000000000000000000000000000000000000000000000000000000815260040180806020018281038252602c81526020018061341b602c913960400191505060405180910390fd5b600073ffffffffffffffffffffffffffffffffffffffff168273ffffffffffffffffffffffffffffffffffffffff161415612f18576040517f08c379a000000000000000000000000000000000000000000000000000000000815260040180806020018281038252602a8152602001806133c5602a913960400191505060405180910390fd5b612f2383838361319b565b60008190506000600560008673ffffffffffffffffffffffffffffffffffffffff1673ffffffffffffffffffffffffffffffffffffffff1681526020019081526020016000205490506000612f77866115b4565b90508184118015612f885750808411155b15612f91578192505b612ffd836040518060600160405280602d8152602001613208602d9139600560008a73ffffffffffffffffffffffffffffffffffffffff1673ffffffffffffffffffffffffffffffffffffffff16815260200190815260200160002054612c559092919063ffffffff16565b600560008873ffffffffffffffffffffffffffffffffffffffff1673ffffffffffffffffffffffffffffffffffffffff1681526020019081526020016000208190555061309284600560008873ffffffffffffffffffffffffffffffffffffffff1673ffffffffffffffffffffffffffffffffffffffff16815260200190815260200160002054612afd90919063ffffffff16565b600560008773ffffffffffffffffffffffffffffffffffffffff1673ffffffffffffffffffffffffffffffffffffffff168152602001908152602001600020819055508473ffffffffffffffffffffffffffffffffffffffff168673ffffffffffffffffffffffffffffffffffffffff167fddf252ad1be2c89b69c2b068fc378daa952ba7f163c4a11628f55a4df523b3ef866040518082815260200191505060405180910390a3505050505050565b600062093a804203905090565b6000600460008473ffffffffffffffffffffffffffffffffffffffff1673ffffffffffffffffffffffffffffffffffffffff168152602001908152602001600020548203905092915050565b50505056fe4a757374486f646c426173653a20617070726f766520746f20746865207a65726f20616464726573734a757374486f646c3a2061646472657373206973206e6f742070726573656e7420696e207468652073656e64657220657863657074696f6e73206c6973744a757374486f646c426173653a207472616e7366657220616d6f756e7420657863656564732062616c616e63654a757374486f646c426173653a20617070726f76652066726f6d20746865207a65726f20616464726573734a757374486f646c3a206164647265737320697320616c72656164792070726573656e7420696e207468652073656e64657220657863657074696f6e73206c6973744a757374486f646c3a2061646472657373206973206e6f742070726573656e7420696e2074686520726563697069656e7420657863657074696f6e73206c6973744a757374486f646c426173653a207472616e7366657220616d6f756e74206578636565647320616c6c6f77616e63654a757374486f646c3a206f6e6c79206f776e65722063616e20706572666f726d207468697320616374696f6e4a757374486f646c3a206164647265737320697320616c72656164792070726573656e7420696e207468652077686974656c6973744a757374486f646c3a2061646472657373206973206e6f742070726573656e7420696e207468652077686974656c697374536166654d6174683a206d756c7469706c69636174696f6e206f766572666c6f774a757374486f646c426173653a207472616e7366657220746f20746865207a65726f20616464726573734a757374486f646c426173653a2064656372656173656420616c6c6f77616e63652062656c6f77207a65726f4a757374486f646c426173653a207472616e736665722066726f6d20746865207a65726f20616464726573734a757374486f646c3a20796f7520617265206e6f7420616c6c6f77656420746f2073656e6420746f6b656e7320746f207468617420616464726573734a757374486f646c3a206164647265737320697320616c72656164792070726573656e7420696e2074686520726563697069656e7420657863657074696f6e73206c697374a2646970667358221220837fc587755c1afd6456b22d7fbec0ca2dd713ae9ff00638947aacef2ace89c964736f6c634300060600334a757374486f646c426173653a206d696e7420746f20746865207a65726f2061646472657373",
  "immutableReferences": {},
  "source": "pragma solidity ^0.6.0;\n\nimport \"./JustHodlBase.sol\";\n\n/*   __    __\n    /  |  /  |\n    $$ |  $$ |\n    $$ |__$$ |\n    $$    $$ |     Just Hodl\n    $$$$$$$$ |     $JH\n    $$ |  $$ |\n    $$ |  $$ |\n    $$ /  $$ /\n\n    The Token For The Hodlers.\n\n    More informations at https://justhodl.finance\n*/\n\ncontract JustHodl is JustHodlBase {\n    address private owner;\n    uint256 private penaltyRatio = 10;\n    uint256 private maxSupply = 1000 * (10 ** 18);\n\n    struct Addr {\n        address _address;\n        bool exists;\n    }\n\n    mapping (address => Addr) private senderExceptions;\n    mapping (address => Addr) private recipientExceptions;\n    mapping (address => mapping (address => Addr)) private whitelistedSenders;\n\n    modifier _onlyOwner() {\n        require(msg.sender == owner, \"JustHodl: only owner can perform this action\");\n        _;\n    }\n\n    constructor() public payable JustHodlBase(\"JustHodl\", \"JH\") {\n        owner = msg.sender;\n        _mint(msg.sender, maxSupply);\n    }\n\n    function getOwner() public view returns (address) {\n        return owner;\n    }\n\n    function setOwner(address _address) public _onlyOwner {\n        owner = _address;\n    }\n\n    function isSenderException(address _address) public view returns (bool) {\n        return senderExceptions[_address].exists;\n    }\n\n    function addSenderException(address _address) public _onlyOwner returns (bool) {\n        require(!isSenderException(_address), \"JustHodl: address is already present in the sender exceptions list\");\n        senderExceptions[_address] = Addr(_address, true);\n        return true;\n    }\n\n    function removeSenderException(address _address) public _onlyOwner returns (bool) {\n        require(isSenderException(_address), \"JustHodl: address is not present in the sender exceptions list\");\n        delete senderExceptions[_address];\n        return true;\n    }\n\n    function isRecipientException(address _address) public view returns (bool) {\n        return recipientExceptions[_address].exists;\n    }\n\n    function addRecipientException(address _address) public _onlyOwner returns (bool) {\n        require(!isRecipientException(_address), \"JustHodl: address is already present in the recipient exceptions list\");\n        recipientExceptions[_address] = Addr(_address, true);\n        return true;\n    }\n\n    function removeRecipientException(address _address) public _onlyOwner returns (bool) {\n        require(isRecipientException(_address), \"JustHodl: address is not present in the recipient exceptions list\");\n        delete recipientExceptions[_address];\n        return true;\n    }\n\n    function isWhitelistedSender(address _address) public view returns (bool) {\n        return whitelistedSenders[msg.sender][_address].exists;\n    }\n\n    function addWhitelistedSender(address _address) public returns (bool) {\n        require(!isWhitelistedSender(_address), \"JustHodl: address is already present in the whitelist\");\n        whitelistedSenders[msg.sender][_address] = Addr(_address, true);\n        return true;\n    }\n\n    function removeWhitelistedSender(address _address) public returns (bool) {\n        require(isWhitelistedSender(_address), \"JustHodl: address is not present in the whitelist\");\n        delete whitelistedSenders[msg.sender][_address];\n        return true;\n    }\n\n    function transfer(address _to, uint256 _value) public override returns (bool) {\n        bool isFromHodler = _isValidHodler(msg.sender);\n        bool isToHodler = _isValidHodler(_to);\n        if (_allowedToSend(msg.sender, _to)) {\n            uint256 penalty = 0;\n            uint256 finalValue = _value;\n            uint256 pureFromBalanceBeforeThx = pureBalanceOf(msg.sender);\n            uint256 pureToBalanceBeforeThx = pureBalanceOf(_to);\n            if (isFromHodler && !hodlMinimumAchived(msg.sender)) {\n                penalty = _value.mul(penaltyRatio).div(100);\n                finalValue = _value.sub(penalty);\n            }\n            if (super.transfer(_to, finalValue)) {\n                if (penalty > 0) {\n                    _balances[msg.sender] = _balances[msg.sender].sub(penalty);\n                }\n                _updateTimer(msg.sender, _to, isFromHodler, isToHodler);\n                _updateHodlersCount(msg.sender, isFromHodler, isToHodler, pureToBalanceBeforeThx);\n                _updateBonusSupply(_value, penalty, pureFromBalanceBeforeThx);\n                _updateHoldersSupply(isFromHodler, isToHodler, finalValue, penalty, pureFromBalanceBeforeThx);\n                _updateAllowedSender(msg.sender, _to);\n                return true;\n            }\n        }\n        return false;\n    }\n\n    function transferFrom(address _from, address _to, uint256 _value) public override returns (bool) {\n        bool isFromHodler = _isValidHodler(_from);\n        bool isToHodler = _isValidHodler(_to);\n        if (_allowedToSend(_from, _to)) {\n            uint256 penalty = 0;\n            uint256 finalValue = _value;\n            uint256 pureFromBalanceBeforeThx = pureBalanceOf(_from);\n            uint256 pureToBalanceBeforeThx = pureBalanceOf(_to);\n            if (isFromHodler && !hodlMinimumAchived(_from)) {\n                penalty = _value.mul(penaltyRatio).div(100);\n                finalValue = _value.sub(penalty);\n            }\n            if (super.transferFrom(_from, _to, finalValue)) {\n                if (penalty > 0) {\n                    _balances[_from] = _balances[_from].sub(penalty);\n                }\n                _updateTimer(_from, _to, isFromHodler, isToHodler);\n                _updateHodlersCount(_from, isFromHodler, isToHodler, pureToBalanceBeforeThx);\n                _updateBonusSupply(_value, penalty, pureFromBalanceBeforeThx);\n                _updateHoldersSupply(isFromHodler, isToHodler, finalValue, penalty, pureFromBalanceBeforeThx);\n                _updateAllowedSender(_from, _to);\n                return true;\n            }\n        }\n        return false;\n    }\n\n    function _allowedToSend(address _from, address _to) private view returns (bool) {\n        require (\n            _from == owner ||\n            _isContract(_to) ||\n            isSenderException(_from) ||\n            isRecipientException(_to) ||\n            whitelistedSenders[_to][_from].exists,\n            \"JustHodl: you are not allowed to send tokens to that address\"\n        );\n        return true;\n    }\n\n    function _updateAllowedSender(address _from, address _to) private {\n        if (!whitelistedSenders[_from][_to].exists) {\n            whitelistedSenders[_from][_to] = Addr(_to, true);\n        }\n    }\n\n    function _updateTimer(address _from, address _to, bool _isFromHodler, bool _isToHodler) private {\n        if (_isFromHodler && _balances[_from] == 0) {\n            _totalHodlSinceLastBuy = _totalHodlSinceLastBuy.sub(_hodlerHodlTime[_from]);\n            _hodlerHodlTime[_from] = 0;\n        }\n        if (_isToHodler) {\n            uint256 oldLastBuy = _hodlerHodlTime[_to];\n            uint256 newLastBuy = now;\n            _totalHodlSinceLastBuy = _totalHodlSinceLastBuy.add(newLastBuy).sub(oldLastBuy);\n            _hodlerHodlTime[_to] = newLastBuy;\n        }\n    }\n\n    function _updateHodlersCount(address _from, bool _isFromHodler, bool _isToHodler, uint256 _pureToBalanceBeforeThx) private {\n        if (_isFromHodler && _balances[_from] == 0) {\n            _totalHodlersCount--;\n        }\n        if (_isToHodler && _pureToBalanceBeforeThx == 0) {\n            _totalHodlersCount++;\n        }\n    }\n\n    function _updateBonusSupply(uint256 _value, uint256 _penalty, uint256 _pureFromBalanceBeforeThx) private {\n        if (_value > _pureFromBalanceBeforeThx) {\n            uint256 spentBonus = _value.sub(_pureFromBalanceBeforeThx);\n            _bonusSupply = _bonusSupply.sub(spentBonus).add(_penalty);\n        } else {\n            _bonusSupply = _bonusSupply.add(_penalty);\n        }\n    }\n\n    function _updateHoldersSupply(bool _isFromHodler, bool _isToHodler, uint256 _value, uint256 _penalty, uint256 _pureFromBalanceBeforeThx) private {\n        uint256 finalValue = _holdersSupply;\n        uint256 subValue = _value;\n        if (_value > _pureFromBalanceBeforeThx) {\n            subValue = _pureFromBalanceBeforeThx;\n        }\n        if (_isFromHodler) {\n            finalValue = finalValue.sub(subValue).sub(_penalty);\n        }\n        if (_isToHodler) {\n            finalValue = finalValue.add(_value);\n        }\n        _holdersSupply = finalValue;\n    }\n\n    function _isValidHodler(address _address) private view returns (bool) {\n        return !_isContract(_address) && _address != owner;\n    }\n\n    function _isContract(address _address) private view returns (bool) {\n        uint256 size;\n        assembly { size := extcodesize(_address) }\n        return size > 0;\n    }\n}\n",
  "sourcePath": "/home/minato/projects/crypto/project-hodler/contracts/JustHodl.sol",
  "compiler": {
    "name": "solc",
    "version": "0.6.6+commit.6c089d02.Emscripten.clang"
  },
  "schemaVersion": "3.3.1",
  "updatedAt": "2020-11-07T10:29:47.356Z",
  "devdoc": {
    "methods": {}
  },
  "userdoc": {
    "methods": {}
  }
}